{
  "contractName": "A",
  "abi": [
    {
      "constant": true,
      "inputs": [],
      "name": "instance",
      "outputs": [
        {
          "name": "",
          "type": "address"
        }
      ],
      "payable": false,
      "stateMutability": "view",
      "type": "function"
    },
    {
      "constant": true,
      "inputs": [],
      "name": "readed",
      "outputs": [
        {
          "name": "",
          "type": "uint256"
        }
      ],
      "payable": false,
      "stateMutability": "view",
      "type": "function"
    },
    {
      "constant": false,
      "inputs": [],
      "name": "deployB",
      "outputs": [],
      "payable": true,
      "stateMutability": "payable",
      "type": "function"
    },
    {
      "constant": false,
      "inputs": [],
      "name": "test",
      "outputs": [],
      "payable": false,
      "stateMutability": "nonpayable",
      "type": "function"
    }
  ],
  "bytecode": "0x608060405234801561001057600080fd5b506103dd806100206000396000f300608060405260043610610062576000357c0100000000000000000000000000000000000000000000000000000000900463ffffffff168063022ec09514610067578063218ed7f5146100be578063eb20f2e8146100e9578063f8a8fd6d146100f3575b600080fd5b34801561007357600080fd5b5061007c61010a565b604051808273ffffffffffffffffffffffffffffffffffffffff1673ffffffffffffffffffffffffffffffffffffffff16815260200191505060405180910390f35b3480156100ca57600080fd5b506100d361012f565b6040518082815260200191505060405180910390f35b6100f1610135565b005b3480156100ff57600080fd5b506101086101af565b005b6000809054906101000a900473ffffffffffffffffffffffffffffffffffffffff1681565b60015481565b600034602a61014261027d565b808281526020019150506040518091039082f080158015610167573d6000803e3d6000fd5b5090509050806000806101000a81548173ffffffffffffffffffffffffffffffffffffffff021916908373ffffffffffffffffffffffffffffffffffffffff16021790555050565b60008060009054906101000a900473ffffffffffffffffffffffffffffffffffffffff1690508073ffffffffffffffffffffffffffffffffffffffff166369bd01c46040518163ffffffff167c0100000000000000000000000000000000000000000000000000000000028152600401602060405180830381600087803b15801561023957600080fd5b505af115801561024d573d6000803e3d6000fd5b505050506040513d602081101561026357600080fd5b810190808051906020019092919050505060018190555050565b6040516101248061028e83390190560060806040526040516020806101248339810180604052810190808051906020019092919050505060003411151561003557600080fd5b806000819055505060d98061004b6000396000f3006080604052600436106049576000357c0100000000000000000000000000000000000000000000000000000000900463ffffffff1680634e70b1dc14604e57806369bd01c4146076575b600080fd5b348015605957600080fd5b506060609e565b6040518082815260200191505060405180910390f35b348015608157600080fd5b50608860a4565b6040518082815260200191505060405180910390f35b60005481565b600080549050905600a165627a7a72305820c8dc4623cb027b06710e7f77c441d4d05e6f450beeb88d74e70114150b2f2c090029a165627a7a72305820380f0ff1fa0389e7d90257ccacf845fdff8ef6764f8c82755138b42f754e3e320029",
  "source": "pragma solidity ^0.4.23;\r\n\r\ncontract A {\r\n    \r\n    address public instance;\r\n    uint public readed;\r\n    \r\n    function deployB() public payable {\r\n        address instanceC = (new B).value(msg.value)(42); // deploy B with `msg.value` wei, and put `42` as argument in constructor\r\n        instance = instanceC;\r\n    }\r\n    \r\n    function test() public  {\r\n    \r\n        B contractB = B(instance);\r\n        \r\n        readed = contractB.getvalue();\r\n        \r\n    }\r\n    \r\n}\r\n\r\ncontract B {\r\n    uint public num;\r\n    constructor(uint _num) public payable {\r\n        require(msg.value > 0); // value gets transferred from A when A deploys it\r\n        num = _num; // num gets set to 42 when A deploys it\r\n    }\r\n    \r\n    function getvalue() public returns(uint) {\r\n        return num;\r\n    }\r\n    \r\n}",
  "sourcePath": "C:\\Users\\Erasmo\\Desktop\\DMarket\\contract\\contracts\\Prova.sol",
  "compiler": {
    "name": "solc",
    "version": "0.4.24+commit.e67f0147.Emscripten.clang"
  },
  "schemaVersion": "2.0.1",
  "updatedAt": "2018-12-15T16:52:28.446Z"
}