{
  "contractName": "A",
  "abi": [
    {
      "constant": true,
      "inputs": [],
      "name": "instance",
      "outputs": [
        {
          "name": "",
          "type": "address"
        }
      ],
      "payable": false,
      "stateMutability": "view",
      "type": "function"
    },
    {
      "constant": true,
      "inputs": [],
      "name": "readed",
      "outputs": [
        {
          "name": "",
          "type": "uint256"
        }
      ],
      "payable": false,
      "stateMutability": "view",
      "type": "function"
    },
    {
      "constant": false,
      "inputs": [],
      "name": "deployB",
      "outputs": [],
      "payable": true,
      "stateMutability": "payable",
      "type": "function"
    },
    {
      "constant": false,
      "inputs": [],
      "name": "test",
      "outputs": [],
      "payable": false,
      "stateMutability": "nonpayable",
      "type": "function"
    }
  ],
  "bytecode": "0x608060405234801561001057600080fd5b506103dd806100206000396000f300608060405260043610610062576000357c0100000000000000000000000000000000000000000000000000000000900463ffffffff168063022ec09514610067578063218ed7f5146100be578063eb20f2e8146100e9578063f8a8fd6d146100f3575b600080fd5b34801561007357600080fd5b5061007c61010a565b604051808273ffffffffffffffffffffffffffffffffffffffff1673ffffffffffffffffffffffffffffffffffffffff16815260200191505060405180910390f35b3480156100ca57600080fd5b506100d361012f565b6040518082815260200191505060405180910390f35b6100f1610135565b005b3480156100ff57600080fd5b506101086101af565b005b6000809054906101000a900473ffffffffffffffffffffffffffffffffffffffff1681565b60015481565b600034602a61014261027d565b808281526020019150506040518091039082f080158015610167573d6000803e3d6000fd5b5090509050806000806101000a81548173ffffffffffffffffffffffffffffffffffffffff021916908373ffffffffffffffffffffffffffffffffffffffff16021790555050565b60008060009054906101000a900473ffffffffffffffffffffffffffffffffffffffff1690508073ffffffffffffffffffffffffffffffffffffffff166369bd01c46040518163ffffffff167c0100000000000000000000000000000000000000000000000000000000028152600401602060405180830381600087803b15801561023957600080fd5b505af115801561024d573d6000803e3d6000fd5b505050506040513d602081101561026357600080fd5b810190808051906020019092919050505060018190555050565b6040516101248061028e83390190560060806040526040516020806101248339810180604052810190808051906020019092919050505060003411151561003557600080fd5b806000819055505060d98061004b6000396000f3006080604052600436106049576000357c0100000000000000000000000000000000000000000000000000000000900463ffffffff1680634e70b1dc14604e57806369bd01c4146076575b600080fd5b348015605957600080fd5b506060609e565b6040518082815260200191505060405180910390f35b348015608157600080fd5b50608860a4565b6040518082815260200191505060405180910390f35b60005481565b600080549050905600a165627a7a723058209c5ea3b0e031300a93ea901ed4ae47108ffe1e4c5a2dbfede4c6e4d4a41f8c5c0029a165627a7a72305820d6eae7cba31bb72b94f1fa63846d117f570c8b25a6f15804cdafd3cd181ab7a40029",
  "source": "pragma solidity ^0.4.23;\n\ncontract A {\n    \n    address public instance;\n    uint public readed;\n    \n    function deployB() public payable {\n        address instanceC = (new B).value(msg.value)(42); // deploy B with `msg.value` wei, and put `42` as argument in constructor\n        instance = instanceC;\n    }\n    \n    function test() public  {\n    \n        B contractB = B(instance);\n        \n        readed = contractB.getvalue();\n        \n    }\n    \n}\n\ncontract B {\n    uint public num;\n    constructor(uint _num) public payable {\n        require(msg.value > 0); // value gets transferred from A when A deploys it\n        num = _num; // num gets set to 42 when A deploys it\n    }\n    \n    function getvalue() public returns(uint) {\n        return num;\n    }\n    \n}",
  "sourcePath": "C:\\Users\\esolazzo\\Desktop\\client\\contract\\contracts\\Prova.sol",
  "compiler": {
    "name": "solc",
    "version": "0.4.24+commit.e67f0147.Emscripten.clang"
  },
  "schemaVersion": "2.0.1",
  "updatedAt": "2018-12-14T13:20:52.532Z"
}