{
  "contractName": "B",
  "abi": [
    {
      "constant": true,
      "inputs": [],
      "name": "num",
      "outputs": [
        {
          "name": "",
          "type": "uint256"
        }
      ],
      "payable": false,
      "stateMutability": "view",
      "type": "function"
    },
    {
      "inputs": [
        {
          "name": "_num",
          "type": "uint256"
        }
      ],
      "payable": true,
      "stateMutability": "payable",
      "type": "constructor"
    },
    {
      "constant": false,
      "inputs": [],
      "name": "getvalue",
      "outputs": [
        {
          "name": "",
          "type": "uint256"
        }
      ],
      "payable": false,
      "stateMutability": "nonpayable",
      "type": "function"
    }
  ],
  "bytecode": "0x60806040526040516020806101248339810180604052810190808051906020019092919050505060003411151561003557600080fd5b806000819055505060d98061004b6000396000f3006080604052600436106049576000357c0100000000000000000000000000000000000000000000000000000000900463ffffffff1680634e70b1dc14604e57806369bd01c4146076575b600080fd5b348015605957600080fd5b506060609e565b6040518082815260200191505060405180910390f35b348015608157600080fd5b50608860a4565b6040518082815260200191505060405180910390f35b60005481565b600080549050905600a165627a7a72305820c8dc4623cb027b06710e7f77c441d4d05e6f450beeb88d74e70114150b2f2c090029",
  "source": "pragma solidity ^0.4.23;\r\n\r\ncontract A {\r\n    \r\n    address public instance;\r\n    uint public readed;\r\n    \r\n    function deployB() public payable {\r\n        address instanceC = (new B).value(msg.value)(42); // deploy B with `msg.value` wei, and put `42` as argument in constructor\r\n        instance = instanceC;\r\n    }\r\n    \r\n    function test() public  {\r\n    \r\n        B contractB = B(instance);\r\n        \r\n        readed = contractB.getvalue();\r\n        \r\n    }\r\n    \r\n}\r\n\r\ncontract B {\r\n    uint public num;\r\n    constructor(uint _num) public payable {\r\n        require(msg.value > 0); // value gets transferred from A when A deploys it\r\n        num = _num; // num gets set to 42 when A deploys it\r\n    }\r\n    \r\n    function getvalue() public returns(uint) {\r\n        return num;\r\n    }\r\n    \r\n}",
  "sourcePath": "C:\\Users\\Erasmo\\Desktop\\DMarket\\contract\\contracts\\Prova.sol",
  "compiler": {
    "name": "solc",
    "version": "0.4.24+commit.e67f0147.Emscripten.clang"
  },
  "schemaVersion": "2.0.1",
  "updatedAt": "2018-12-15T16:52:28.448Z"
}