{
  "contractName": "Market",
  "abi": [
    {
      "constant": true,
      "inputs": [
        {
          "name": "",
          "type": "bytes32"
        }
      ],
      "name": "products",
      "outputs": [
        {
          "name": "description",
          "type": "string"
        },
        {
          "name": "seller",
          "type": "address"
        },
        {
          "name": "price",
          "type": "uint256"
        },
        {
          "name": "purchaseLUTLenght",
          "type": "uint256"
        }
      ],
      "payable": false,
      "stateMutability": "view",
      "type": "function"
    },
    {
      "constant": true,
      "inputs": [
        {
          "name": "",
          "type": "address"
        }
      ],
      "name": "users",
      "outputs": [
        {
          "name": "publicKey",
          "type": "string"
        },
        {
          "name": "name",
          "type": "string"
        },
        {
          "name": "avatar",
          "type": "string"
        },
        {
          "name": "productsLenght",
          "type": "uint256"
        },
        {
          "name": "purchaseLUTLenght",
          "type": "uint256"
        },
        {
          "name": "saleNumber",
          "type": "uint256"
        },
        {
          "name": "blocked",
          "type": "bool"
        }
      ],
      "payable": false,
      "stateMutability": "view",
      "type": "function"
    },
    {
      "constant": true,
      "inputs": [],
      "name": "children",
      "outputs": [
        {
          "name": "",
          "type": "address"
        }
      ],
      "payable": false,
      "stateMutability": "view",
      "type": "function"
    },
    {
      "inputs": [],
      "payable": false,
      "stateMutability": "nonpayable",
      "type": "constructor"
    },
    {
      "constant": false,
      "inputs": [
        {
          "name": "userAddress",
          "type": "address"
        },
        {
          "name": "key",
          "type": "string"
        },
        {
          "name": "name",
          "type": "string"
        },
        {
          "name": "avatar",
          "type": "string"
        }
      ],
      "name": "addUser",
      "outputs": [],
      "payable": false,
      "stateMutability": "nonpayable",
      "type": "function"
    },
    {
      "constant": false,
      "inputs": [
        {
          "name": "escrowAddress",
          "type": "address"
        }
      ],
      "name": "addUserPurchase",
      "outputs": [],
      "payable": false,
      "stateMutability": "nonpayable",
      "type": "function"
    },
    {
      "constant": true,
      "inputs": [
        {
          "name": "userAddress",
          "type": "address"
        }
      ],
      "name": "getUser",
      "outputs": [
        {
          "name": "",
          "type": "string"
        },
        {
          "name": "",
          "type": "string"
        },
        {
          "name": "",
          "type": "string"
        },
        {
          "name": "",
          "type": "bool"
        },
        {
          "name": "",
          "type": "uint256"
        },
        {
          "name": "",
          "type": "uint256"
        },
        {
          "name": "",
          "type": "uint256"
        }
      ],
      "payable": false,
      "stateMutability": "view",
      "type": "function"
    },
    {
      "constant": false,
      "inputs": [
        {
          "name": "userAddress",
          "type": "address"
        },
        {
          "name": "index",
          "type": "uint256"
        }
      ],
      "name": "getUserProduct",
      "outputs": [
        {
          "name": "",
          "type": "bytes32"
        }
      ],
      "payable": false,
      "stateMutability": "nonpayable",
      "type": "function"
    },
    {
      "constant": false,
      "inputs": [
        {
          "name": "userAddress",
          "type": "address"
        },
        {
          "name": "index",
          "type": "uint256"
        }
      ],
      "name": "getUserPurchase",
      "outputs": [
        {
          "name": "",
          "type": "address"
        }
      ],
      "payable": false,
      "stateMutability": "nonpayable",
      "type": "function"
    },
    {
      "constant": true,
      "inputs": [],
      "name": "getOwner",
      "outputs": [
        {
          "name": "",
          "type": "address"
        }
      ],
      "payable": false,
      "stateMutability": "view",
      "type": "function"
    },
    {
      "constant": false,
      "inputs": [
        {
          "name": "user",
          "type": "address"
        },
        {
          "name": "product",
          "type": "bytes32"
        },
        {
          "name": "buyer",
          "type": "address"
        }
      ],
      "name": "blockUser",
      "outputs": [],
      "payable": false,
      "stateMutability": "nonpayable",
      "type": "function"
    },
    {
      "constant": false,
      "inputs": [
        {
          "name": "product",
          "type": "bytes32"
        },
        {
          "name": "index",
          "type": "uint256"
        }
      ],
      "name": "getProductPurchase",
      "outputs": [
        {
          "name": "",
          "type": "address"
        }
      ],
      "payable": false,
      "stateMutability": "nonpayable",
      "type": "function"
    },
    {
      "constant": false,
      "inputs": [
        {
          "name": "product",
          "type": "bytes32"
        }
      ],
      "name": "getProductPrice",
      "outputs": [
        {
          "name": "",
          "type": "uint256"
        }
      ],
      "payable": false,
      "stateMutability": "nonpayable",
      "type": "function"
    },
    {
      "constant": false,
      "inputs": [
        {
          "name": "hashFile",
          "type": "bytes32"
        },
        {
          "name": "seller",
          "type": "address"
        },
        {
          "name": "price",
          "type": "uint256"
        }
      ],
      "name": "purchase",
      "outputs": [],
      "payable": true,
      "stateMutability": "payable",
      "type": "function"
    },
    {
      "constant": false,
      "inputs": [
        {
          "name": "hashFile",
          "type": "bytes32"
        },
        {
          "name": "buyer",
          "type": "address"
        }
      ],
      "name": "getEscrowAddress",
      "outputs": [
        {
          "name": "",
          "type": "address"
        }
      ],
      "payable": false,
      "stateMutability": "nonpayable",
      "type": "function"
    },
    {
      "constant": false,
      "inputs": [
        {
          "name": "description",
          "type": "string"
        },
        {
          "name": "hashProduct",
          "type": "bytes32"
        },
        {
          "name": "price",
          "type": "uint256"
        }
      ],
      "name": "addProduct",
      "outputs": [],
      "payable": false,
      "stateMutability": "nonpayable",
      "type": "function"
    },
    {
      "constant": false,
      "inputs": [
        {
          "name": "key",
          "type": "string"
        }
      ],
      "name": "convert",
      "outputs": [
        {
          "name": "ret",
          "type": "bytes32"
        }
      ],
      "payable": false,
      "stateMutability": "nonpayable",
      "type": "function"
    },
    {
      "constant": false,
      "inputs": [],
      "name": "getProductCode",
      "outputs": [
        {
          "name": "",
          "type": "uint256"
        }
      ],
      "payable": false,
      "stateMutability": "nonpayable",
      "type": "function"
    },
    {
      "constant": false,
      "inputs": [
        {
          "name": "code",
          "type": "uint256"
        }
      ],
      "name": "getProductCode",
      "outputs": [
        {
          "name": "",
          "type": "bytes32"
        }
      ],
      "payable": false,
      "stateMutability": "nonpayable",
      "type": "function"
    },
    {
      "constant": false,
      "inputs": [
        {
          "name": "user",
          "type": "address"
        },
        {
          "name": "hashProduct",
          "type": "bytes32"
        },
        {
          "name": "index",
          "type": "uint256"
        }
      ],
      "name": "deleteProduct",
      "outputs": [],
      "payable": false,
      "stateMutability": "nonpayable",
      "type": "function"
    },
    {
      "constant": false,
      "inputs": [
        {
          "name": "user",
          "type": "address"
        }
      ],
      "name": "unblockUser",
      "outputs": [],
      "payable": false,
      "stateMutability": "nonpayable",
      "type": "function"
    },
    {
      "constant": false,
      "inputs": [],
      "name": "kill",
      "outputs": [],
      "payable": false,
      "stateMutability": "nonpayable",
      "type": "function"
    }
  ],
  "bytecode": "0x608060405234801561001057600080fd5b50336000806101000a81548173ffffffffffffffffffffffffffffffffffffffff021916908373ffffffffffffffffffffffffffffffffffffffff16021790555060006005819055506135a0806100686000396000f30060806040526004361062000133576000357c0100000000000000000000000000000000000000000000000000000000900463ffffffff16806302dbedac146200013857806339d319e514620001965780633ee0c4c114620001dc57806341c0e1b5146200022857806346a568351462000242578063631c6da914620002d25780636f77926b146200033e5780637534dabb14620004fe57806379054391146200054e5780637a491b63146200063f5780637cebadb114620006c3578063893d20e8146200073757806391c57e73146200079157806392ab73d914620007d9578063962a64cd146200086d578063a1bf950b14620008f5578063a87430ba1462000973578063c2bc80fd1462000b33578063c6361c221462000b8d578063cd748bff1462000ca5578063f41a8c4f1462000ceb575b600080fd5b3480156200014557600080fd5b5062000194600480360381019080803573ffffffffffffffffffffffffffffffffffffffff16906020019092919080356000191690602001909291908035906020019092919050505062000d19565b005b348015620001a357600080fd5b50620001da600480360381019080803573ffffffffffffffffffffffffffffffffffffffff16906020019092919050505062001023565b005b348015620001e957600080fd5b506200020a60048036038101908080359060200190929190505050620010dd565b60405180826000191660001916815260200191505060405180910390f35b3480156200023557600080fd5b5062000240620010fa565b005b3480156200024f57600080fd5b5062000290600480360381019080803573ffffffffffffffffffffffffffffffffffffffff169060200190929190803590602001909291905050506200116f565b604051808273ffffffffffffffffffffffffffffffffffffffff1673ffffffffffffffffffffffffffffffffffffffff16815260200191505060405180910390f35b348015620002df57600080fd5b5062000320600480360381019080803573ffffffffffffffffffffffffffffffffffffffff16906020019092919080359060200190929190505050620011f4565b60405180826000191660001916815260200191505060405180910390f35b3480156200034b57600080fd5b5062000382600480360381019080803573ffffffffffffffffffffffffffffffffffffffff16906020019092919050505062001259565b604051808060200180602001806020018815151515815260200187815260200186815260200185815260200184810384528b818151815260200191508051906020019080838360005b83811015620003e8578082015181840152602081019050620003cb565b50505050905090810190601f168015620004165780820380516001836020036101000a031916815260200191505b5084810383528a818151815260200191508051906020019080838360005b838110156200045157808201518184015260208101905062000434565b50505050905090810190601f1680156200047f5780820380516001836020036101000a031916815260200191505b50848103825289818151815260200191508051906020019080838360005b83811015620004ba5780820151818401526020810190506200049d565b50505050905090810190601f168015620004e85780820380516001836020036101000a031916815260200191505b509a505050505050505050505060405180910390f35b6200054c6004803603810190808035600019169060200190929190803573ffffffffffffffffffffffffffffffffffffffff169060200190929190803590602001909291905050506200163c565b005b3480156200055b57600080fd5b50620005806004803603810190808035600019169060200190929190505050620019e5565b60405180806020018573ffffffffffffffffffffffffffffffffffffffff1673ffffffffffffffffffffffffffffffffffffffff168152602001848152602001838152602001828103825286818151815260200191508051906020019080838360005b8381101562000600578082015181840152602081019050620005e3565b50505050905090810190601f1680156200062e5780820380516001836020036101000a031916815260200191505b509550505050505060405180910390f35b3480156200064c57600080fd5b50620006c1600480360381019080803590602001908201803590602001908080601f016020809104026020016040519081016040528093929190818152602001838380828437820191505050505050919291929080356000191690602001909291908035906020019092919050505062001ad1565b005b348015620006d057600080fd5b5062000735600480360381019080803573ffffffffffffffffffffffffffffffffffffffff1690602001909291908035600019169060200190929190803573ffffffffffffffffffffffffffffffffffffffff16906020019092919050505062001d4b565b005b3480156200074457600080fd5b506200074f62001df2565b604051808273ffffffffffffffffffffffffffffffffffffffff1673ffffffffffffffffffffffffffffffffffffffff16815260200191505060405180910390f35b3480156200079e57600080fd5b50620007c3600480360381019080803560001916906020019092919050505062001e1b565b6040518082815260200191505060405180910390f35b348015620007e657600080fd5b506200082b6004803603810190808035600019169060200190929190803573ffffffffffffffffffffffffffffffffffffffff16906020019092919050505062001e43565b604051808273ffffffffffffffffffffffffffffffffffffffff1673ffffffffffffffffffffffffffffffffffffffff16815260200191505060405180910390f35b3480156200087a57600080fd5b50620008d7600480360381019080803590602001908201803590602001908080601f016020809104026020016040519081016040528093929190818152602001838380828437820191505050505050919291929050505062001ec9565b60405180826000191660001916815260200191505060405180910390f35b3480156200090257600080fd5b506200093160048036038101908080356000191690602001909291908035906020019092919050505062001ee7565b604051808273ffffffffffffffffffffffffffffffffffffffff1673ffffffffffffffffffffffffffffffffffffffff16815260200191505060405180910390f35b3480156200098057600080fd5b50620009b7600480360381019080803573ffffffffffffffffffffffffffffffffffffffff16906020019092919050505062001f48565b604051808060200180602001806020018881526020018781526020018681526020018515151515815260200184810384528b818151815260200191508051906020019080838360005b8381101562000a1d57808201518184015260208101905062000a00565b50505050905090810190601f16801562000a4b5780820380516001836020036101000a031916815260200191505b5084810383528a818151815260200191508051906020019080838360005b8381101562000a8657808201518184015260208101905062000a69565b50505050905090810190601f16801562000ab45780820380516001836020036101000a031916815260200191505b50848103825289818151815260200191508051906020019080838360005b8381101562000aef57808201518184015260208101905062000ad2565b50505050905090810190601f16801562000b1d5780820380516001836020036101000a031916815260200191505b509a505050505050505050505060405180910390f35b34801562000b4057600080fd5b5062000b4b6200216b565b604051808273ffffffffffffffffffffffffffffffffffffffff1673ffffffffffffffffffffffffffffffffffffffff16815260200191505060405180910390f35b34801562000b9a57600080fd5b5062000ca3600480360381019080803573ffffffffffffffffffffffffffffffffffffffff169060200190929190803590602001908201803590602001908080601f0160208091040260200160405190810160405280939291908181526020018383808284378201915050505050509192919290803590602001908201803590602001908080601f0160208091040260200160405190810160405280939291908181526020018383808284378201915050505050509192919290803590602001908201803590602001908080601f016020809104026020016040519081016040528093929190818152602001838380828437820191505050505050919291929050505062002191565b005b34801562000cb257600080fd5b5062000ce9600480360381019080803573ffffffffffffffffffffffffffffffffffffffff16906020019092919050505062002410565b005b34801562000cf857600080fd5b5062000d036200250b565b6040518082815260200191505060405180910390f35b8273ffffffffffffffffffffffffffffffffffffffff163373ffffffffffffffffffffffffffffffffffffffff1614156200101e57600260008473ffffffffffffffffffffffffffffffffffffffff1673ffffffffffffffffffffffffffffffffffffffff1681526020019081526020016000206003016001600260008673ffffffffffffffffffffffffffffffffffffffff1673ffffffffffffffffffffffffffffffffffffffff168152602001908152602001600020600301805490500381548110151562000de657fe5b9060005260206000200154600260008573ffffffffffffffffffffffffffffffffffffffff1673ffffffffffffffffffffffffffffffffffffffff1681526020019081526020016000206003018281548110151562000e4157fe5b906000526020600020018160001916905550600260008473ffffffffffffffffffffffffffffffffffffffff1673ffffffffffffffffffffffffffffffffffffffff1681526020019081526020016000206003016001600260008673ffffffffffffffffffffffffffffffffffffffff1673ffffffffffffffffffffffffffffffffffffffff168152602001908152602001600020600301805490500381548110151562000eeb57fe5b9060005260206000200160009055600260008473ffffffffffffffffffffffffffffffffffffffff1673ffffffffffffffffffffffffffffffffffffffff16815260200190815260200160002060030180548091906001900362000f50919062002515565b506003600083600019166000191681526020019081526020016000206000808201600062000f7f919062002544565b6001820160006101000a81549073ffffffffffffffffffffffffffffffffffffffff0219169055600282016000905560048201600062000fc0919062002590565b60058201600090555050600260008473ffffffffffffffffffffffffffffffffffffffff1673ffffffffffffffffffffffffffffffffffffffff16815260200190815260200160002060040160008154809291906001900391905055505b505050565b6000809054906101000a900473ffffffffffffffffffffffffffffffffffffffff1673ffffffffffffffffffffffffffffffffffffffff163373ffffffffffffffffffffffffffffffffffffffff161415156200107f57600080fd5b6000600260008373ffffffffffffffffffffffffffffffffffffffff1673ffffffffffffffffffffffffffffffffffffffff16815260200190815260200160002060080160006101000a81548160ff02191690831515021790555050565b600060046000838152602001908152602001600020549050919050565b6000809054906101000a900473ffffffffffffffffffffffffffffffffffffffff1673ffffffffffffffffffffffffffffffffffffffff163373ffffffffffffffffffffffffffffffffffffffff161415156200115657600080fd5b3373ffffffffffffffffffffffffffffffffffffffff16ff5b6000600260008473ffffffffffffffffffffffffffffffffffffffff1673ffffffffffffffffffffffffffffffffffffffff16815260200190815260200160002060050182815481101515620011c157fe5b9060005260206000200160009054906101000a900473ffffffffffffffffffffffffffffffffffffffff16905092915050565b6000600260008473ffffffffffffffffffffffffffffffffffffffff1673ffffffffffffffffffffffffffffffffffffffff168152602001908152602001600020600301828154811015156200124657fe5b9060005260206000200154905092915050565b6060806060600080600080600260008973ffffffffffffffffffffffffffffffffffffffff1673ffffffffffffffffffffffffffffffffffffffff168152602001908152602001600020600001600260008a73ffffffffffffffffffffffffffffffffffffffff1673ffffffffffffffffffffffffffffffffffffffff168152602001908152602001600020600101600260008b73ffffffffffffffffffffffffffffffffffffffff1673ffffffffffffffffffffffffffffffffffffffff168152602001908152602001600020600201600260008c73ffffffffffffffffffffffffffffffffffffffff1673ffffffffffffffffffffffffffffffffffffffff16815260200190815260200160002060080160009054906101000a900460ff16600260008d73ffffffffffffffffffffffffffffffffffffffff1673ffffffffffffffffffffffffffffffffffffffff16815260200190815260200160002060040154600260008e73ffffffffffffffffffffffffffffffffffffffff1673ffffffffffffffffffffffffffffffffffffffff16815260200190815260200160002060060154600260008f73ffffffffffffffffffffffffffffffffffffffff1673ffffffffffffffffffffffffffffffffffffffff16815260200190815260200160002060070154868054600181600116156101000203166002900480601f016020809104026020016040519081016040528092919081815260200182805460018160011615610100020316600290048015620014dc5780601f10620014b057610100808354040283529160200191620014dc565b820191906000526020600020905b815481529060010190602001808311620014be57829003601f168201915b50505050509650858054600181600116156101000203166002900480601f0160208091040260200160405190810160405280929190818152602001828054600181600116156101000203166002900480156200157c5780601f1062001550576101008083540402835291602001916200157c565b820191906000526020600020905b8154815290600101906020018083116200155e57829003601f168201915b50505050509550848054600181600116156101000203166002900480601f0160208091040260200160405190810160405280929190818152602001828054600181600116156101000203166002900480156200161c5780601f10620015f0576101008083540402835291602001916200161c565b820191906000526020600020905b815481529060010190602001808311620015fe57829003601f168201915b505050505094509650965096509650965096509650919395979092949650565b60008060028302341415156200165157600080fd5b30856200165d620025b3565b808373ffffffffffffffffffffffffffffffffffffffff1673ffffffffffffffffffffffffffffffffffffffff168152602001826000191660001916815260200192505050604051809103906000f080158015620016bf573d6000803e3d6000fd5b5091508190508073ffffffffffffffffffffffffffffffffffffffff1663410459ad856040518263ffffffff167c0100000000000000000000000000000000000000000000000000000000028152600401808273ffffffffffffffffffffffffffffffffffffffff1673ffffffffffffffffffffffffffffffffffffffff168152602001915050600060405180830381600087803b1580156200176157600080fd5b505af115801562001776573d6000803e3d6000fd5b505050508073ffffffffffffffffffffffffffffffffffffffff16635db53f8b346040518263ffffffff167c01000000000000000000000000000000000000000000000000000000000281526004016000604051808303818588803b158015620017df57600080fd5b505af1158015620017f4573d6000803e3d6000fd5b50505050508160036000876000191660001916815260200190815260200160002060030160003373ffffffffffffffffffffffffffffffffffffffff1673ffffffffffffffffffffffffffffffffffffffff16815260200190815260200160002060006101000a81548173ffffffffffffffffffffffffffffffffffffffff021916908373ffffffffffffffffffffffffffffffffffffffff1602179055506003600086600019166000191681526020019081526020016000206004018290806001815401808255809150509060018203906000526020600020016000909192909190916101000a81548173ffffffffffffffffffffffffffffffffffffffff021916908373ffffffffffffffffffffffffffffffffffffffff16021790555050600360008660001916600019168152602001908152602001600020600501600081548092919060010191905055506002600060036000886000191660001916815260200190815260200160002060010160009054906101000a900473ffffffffffffffffffffffffffffffffffffffff1673ffffffffffffffffffffffffffffffffffffffff1673ffffffffffffffffffffffffffffffffffffffff16815260200190815260200160002060070160008154809291906001019190505550620019de8262002410565b5050505050565b6003602052806000526040600020600091509050806000018054600181600116156101000203166002900480601f01602080910402602001604051908101604052809291908181526020018280546001816001161561010002031660029004801562001a955780601f1062001a695761010080835404028352916020019162001a95565b820191906000526020600020905b81548152906001019060200180831162001a7757829003601f168201915b5050505050908060010160009054906101000a900473ffffffffffffffffffffffffffffffffffffffff16908060020154908060050154905084565b60606003600084600019166000191681526020019081526020016000206000018054600181600116156101000203166002900480601f01602080910402602001604051908101604052809291908181526020018280546001816001161561010002031660029004801562001b895780601f1062001b5d5761010080835404028352916020019162001b89565b820191906000526020600020905b81548152906001019060200180831162001b6b57829003601f168201915b5050505050905060008151141562001d455783600360008560001916600019168152602001908152602001600020600001908051906020019062001bcf929190620025c4565b503360036000856000191660001916815260200190815260200160002060010160006101000a81548173ffffffffffffffffffffffffffffffffffffffff021916908373ffffffffffffffffffffffffffffffffffffffff1602179055508160036000856000191660001916815260200190815260200160002060020181905550600260003373ffffffffffffffffffffffffffffffffffffffff1673ffffffffffffffffffffffffffffffffffffffff16815260200190815260200160002060040160008154809291906001019190505550600260003373ffffffffffffffffffffffffffffffffffffffff1673ffffffffffffffffffffffffffffffffffffffff1681526020019081526020016000206003018390806001815401808255809150509060018203906000526020600020016000909192909190915090600019169055508260046000600554815260200190815260200160002081600019169055506005600081548092919060010191905055505b50505050565b600062001d59838362001e43565b90508073ffffffffffffffffffffffffffffffffffffffff163373ffffffffffffffffffffffffffffffffffffffff16141562001dec576001600260008673ffffffffffffffffffffffffffffffffffffffff1673ffffffffffffffffffffffffffffffffffffffff16815260200190815260200160002060080160006101000a81548160ff0219169083151502179055505b50505050565b60008060009054906101000a900473ffffffffffffffffffffffffffffffffffffffff16905090565b6000600360008360001916600019168152602001908152602001600020600201549050919050565b600060036000846000191660001916815260200190815260200160002060030160008373ffffffffffffffffffffffffffffffffffffffff1673ffffffffffffffffffffffffffffffffffffffff16815260200190815260200160002060009054906101000a900473ffffffffffffffffffffffffffffffffffffffff16905092915050565b600060208251111562001edb57600080fd5b60208201519050919050565b60006003600084600019166000191681526020019081526020016000206004018281548110151562001f1557fe5b9060005260206000200160009054906101000a900473ffffffffffffffffffffffffffffffffffffffff16905092915050565b6002602052806000526040600020600091509050806000018054600181600116156101000203166002900480601f01602080910402602001604051908101604052809291908181526020018280546001816001161561010002031660029004801562001ff85780601f1062001fcc5761010080835404028352916020019162001ff8565b820191906000526020600020905b81548152906001019060200180831162001fda57829003601f168201915b505050505090806001018054600181600116156101000203166002900480601f0160208091040260200160405190810160405280929190818152602001828054600181600116156101000203166002900480156200209a5780601f106200206e576101008083540402835291602001916200209a565b820191906000526020600020905b8154815290600101906020018083116200207c57829003601f168201915b505050505090806002018054600181600116156101000203166002900480601f0160208091040260200160405190810160405280929190818152602001828054600181600116156101000203166002900480156200213c5780601f1062002110576101008083540402835291602001916200213c565b820191906000526020600020905b8154815290600101906020018083116200211e57829003601f168201915b5050505050908060040154908060060154908060070154908060080160009054906101000a900460ff16905087565b600160009054906101000a900473ffffffffffffffffffffffffffffffffffffffff1681565b8373ffffffffffffffffffffffffffffffffffffffff163373ffffffffffffffffffffffffffffffffffffffff16141515620021cc57600080fd5b82600260008673ffffffffffffffffffffffffffffffffffffffff1673ffffffffffffffffffffffffffffffffffffffff168152602001908152602001600020600001908051906020019062002224929190620025c4565b5081600260008673ffffffffffffffffffffffffffffffffffffffff1673ffffffffffffffffffffffffffffffffffffffff16815260200190815260200160002060010190805190602001906200227d929190620025c4565b5080600260008673ffffffffffffffffffffffffffffffffffffffff1673ffffffffffffffffffffffffffffffffffffffff1681526020019081526020016000206002019080519060200190620022d6929190620025c4565b506000600260008673ffffffffffffffffffffffffffffffffffffffff1673ffffffffffffffffffffffffffffffffffffffff16815260200190815260200160002060080160006101000a81548160ff0219169083151502179055506000600260008673ffffffffffffffffffffffffffffffffffffffff1673ffffffffffffffffffffffffffffffffffffffff168152602001908152602001600020600401819055506000600260008673ffffffffffffffffffffffffffffffffffffffff1673ffffffffffffffffffffffffffffffffffffffff168152602001908152602001600020600601819055506000600260008673ffffffffffffffffffffffffffffffffffffffff1673ffffffffffffffffffffffffffffffffffffffff1681526020019081526020016000206007018190555050505050565b600260003373ffffffffffffffffffffffffffffffffffffffff1673ffffffffffffffffffffffffffffffffffffffff1681526020019081526020016000206005018190806001815401808255809150509060018203906000526020600020016000909192909190916101000a81548173ffffffffffffffffffffffffffffffffffffffff021916908373ffffffffffffffffffffffffffffffffffffffff16021790555050600260003373ffffffffffffffffffffffffffffffffffffffff1673ffffffffffffffffffffffffffffffffffffffff1681526020019081526020016000206006016000815480929190600101919050555050565b6000600554905090565b8154818355818111156200253f578183600052602060002091820191016200253e91906200264b565b5b505050565b50805460018160011615610100020316600290046000825580601f106200256c57506200258d565b601f0160209004906000526020600020908101906200258c919062002673565b5b50565b5080546000825590600052602060002090810190620025b0919062002673565b50565b604051610ed9806200269c83390190565b828054600181600116156101000203166002900490600052602060002090601f016020900481019282601f106200260757805160ff191683800117855562002638565b8280016001018555821562002638579182015b82811115620026375782518255916020019190600101906200261a565b5b50905062002647919062002673565b5090565b6200267091905b808211156200266c57600081600090555060010162002652565b5090565b90565b6200269891905b80821115620026945760008160009055506001016200267a565b5090565b905600608060405234801561001057600080fd5b50604051604080610ed9833981018060405281019080805190602001909291908051906020019092919050505062015180420160068190555081600560006101000a81548173ffffffffffffffffffffffffffffffffffffffff021916908373ffffffffffffffffffffffffffffffffffffffff1602179055506000600a819055506000600b8190555033600e60006101000a81548173ffffffffffffffffffffffffffffffffffffffff021916908373ffffffffffffffffffffffffffffffffffffffff1602179055508060018160001916905550600560009054906101000a900473ffffffffffffffffffffffffffffffffffffffff16600960006101000a81548173ffffffffffffffffffffffffffffffffffffffff021916908373ffffffffffffffffffffffffffffffffffffffff160217905550600960009054906101000a900473ffffffffffffffffffffffffffffffffffffffff1673ffffffffffffffffffffffffffffffffffffffff166391c57e736001546040518263ffffffff167c0100000000000000000000000000000000000000000000000000000000028152600401808260001916600019168152602001915050602060405180830381600087803b1580156101e457600080fd5b505af11580156101f8573d6000803e3d6000fd5b505050506040513d602081101561020e57600080fd5b8101908080519060200190929190505050600c8190555060008060006101000a81548160ff0219169083600481111561024357fe5b02179055505050610c80806102596000396000f3006080604052600436106100ba576000357c0100000000000000000000000000000000000000000000000000000000900463ffffffff168063410459ad146100bf57806341d3b12e146101025780635db53f8b146101f85780637150d8ae1461020257806381ee132f146102595780638e19899e146102e9578063a035b1fe14610332578063ae90b2131461035d578063c19d93fb146103b4578063c5995e9a146103ed578063d8e30a871461047d578063df0b52c8146104b0575b600080fd5b3480156100cb57600080fd5b50610100600480360381019080803573ffffffffffffffffffffffffffffffffffffffff169060200190929190505050610540565b005b6101f66004803603810190808035600019169060200190929190803590602001908201803590602001908080601f0160208091040260200160405190810160405280939291908181526020018383808284378201915050505050509192919290803590602001908201803590602001908080601f0160208091040260200160405190810160405280939291908181526020018383808284378201915050505050509192919290803590602001908201803590602001908080601f01602080910402602001604051908101604052809392919081815260200183838082843782019150505050505091929192905050506105e0565b005b6102006106f3565b005b34801561020e57600080fd5b506102176107a8565b604051808273ffffffffffffffffffffffffffffffffffffffff1673ffffffffffffffffffffffffffffffffffffffff16815260200191505060405180910390f35b34801561026557600080fd5b5061026e6107ce565b6040518080602001828103825283818151815260200191508051906020019080838360005b838110156102ae578082015181840152602081019050610293565b50505050905090810190601f1680156102db5780820380516001836020036101000a031916815260200191505b509250505060405180910390f35b3480156102f557600080fd5b50610318600480360381019080803560001916906020019092919050505061086c565b604051808215151515815260200191505060405180910390f35b34801561033e57600080fd5b506103476109fc565b6040518082815260200191505060405180910390f35b34801561036957600080fd5b50610372610a02565b604051808273ffffffffffffffffffffffffffffffffffffffff1673ffffffffffffffffffffffffffffffffffffffff16815260200191505060405180910390f35b3480156103c057600080fd5b506103c9610a28565b604051808260048111156103d957fe5b60ff16815260200191505060405180910390f35b3480156103f957600080fd5b50610402610a3a565b6040518080602001828103825283818151815260200191508051906020019080838360005b83811015610442578082015181840152602081019050610427565b50505050905090810190601f16801561046f5780820380516001836020036101000a031916815260200191505b509250505060405180910390f35b34801561048957600080fd5b50610492610ad8565b60405180826000191660001916815260200191505060405180910390f35b3480156104bc57600080fd5b506104c5610ade565b6040518080602001828103825283818151815260200191508051906020019080838360005b838110156105055780820151818401526020810190506104ea565b50505050905090810190601f1680156105325780820380516001836020036101000a031916815260200191505b509250505060405180910390f35b600e60009054906101000a900473ffffffffffffffffffffffffffffffffffffffff1673ffffffffffffffffffffffffffffffffffffffff163373ffffffffffffffffffffffffffffffffffffffff1614151561059c57600080fd5b80600d60006101000a81548173ffffffffffffffffffffffffffffffffffffffff021916908373ffffffffffffffffffffffffffffffffffffffff16021790555050565b6000600d60009054906101000a900473ffffffffffffffffffffffffffffffffffffffff1673ffffffffffffffffffffffffffffffffffffffff163373ffffffffffffffffffffffffffffffffffffffff1614151561063e57600080fd5b84600019166001546000191614151561065657600080fd5b600c543414151561066657600080fd5b836003908051906020019061067c929190610baf565b508260029080519060200190610693929190610baf565b5081600490805190602001906106aa929190610baf565b503490506106c381600a54610b7c90919063ffffffff16565b600a8190555060026000806101000a81548160ff021916908360048111156106e757fe5b02179055505050505050565b6000600e60009054906101000a900473ffffffffffffffffffffffffffffffffffffffff1673ffffffffffffffffffffffffffffffffffffffff163373ffffffffffffffffffffffffffffffffffffffff1614151561075157600080fd5b600c546002023414151561076457600080fd5b34905061077c81600b54610b7c90919063ffffffff16565b600b8190555060016000806101000a81548160ff021916908360048111156107a057fe5b021790555050565b600e60009054906101000a900473ffffffffffffffffffffffffffffffffffffffff1681565b60048054600181600116156101000203166002900480601f0160208091040260200160405190810160405280929190818152602001828054600181600116156101000203166002900480156108645780601f1061083957610100808354040283529160200191610864565b820191906000526020600020905b81548152906001019060200180831161084757829003601f168201915b505050505081565b6000806000600e60009054906101000a900473ffffffffffffffffffffffffffffffffffffffff1673ffffffffffffffffffffffffffffffffffffffff163373ffffffffffffffffffffffffffffffffffffffff161415156108cd57600080fd5b83600019166001546000191614156109cd57600b549150600a5490506108f1610b9d565b600d60009054906101000a900473ffffffffffffffffffffffffffffffffffffffff1673ffffffffffffffffffffffffffffffffffffffff166108fc839081150290604051600060405180830381858888f19350505050158015610959573d6000803e3d6000fd5b503373ffffffffffffffffffffffffffffffffffffffff166108fc829081150290604051600060405180830381858888f193505050501580156109a0573d6000803e3d6000fd5b5060046000806101000a81548160ff021916908360048111156109bf57fe5b0217905550600192506109f5565b60036000806101000a81548160ff021916908360048111156109eb57fe5b0217905550600092505b5050919050565b600c5481565b600d60009054906101000a900473ffffffffffffffffffffffffffffffffffffffff1681565b6000809054906101000a900460ff1681565b60038054600181600116156101000203166002900480601f016020809104026020016040519081016040528092919081815260200182805460018160011615610100020316600290048015610ad05780601f10610aa557610100808354040283529160200191610ad0565b820191906000526020600020905b815481529060010190602001808311610ab357829003601f168201915b505050505081565b60015481565b60028054600181600116156101000203166002900480601f016020809104026020016040519081016040528092919081815260200182805460018160011615610100020316600290048015610b745780601f10610b4957610100808354040283529160200191610b74565b820191906000526020600020905b815481529060010190602001808311610b5757829003601f168201915b505050505081565b6000808284019050838110151515610b9357600080fd5b8091505092915050565b6000600a819055506000600b81905550565b828054600181600116156101000203166002900490600052602060002090601f016020900481019282601f10610bf057805160ff1916838001178555610c1e565b82800160010185558215610c1e579182015b82811115610c1d578251825591602001919060010190610c02565b5b509050610c2b9190610c2f565b5090565b610c5191905b80821115610c4d576000816000905550600101610c35565b5090565b905600a165627a7a7230582046abda4003ea24bc18af58b54878e7e729c4a99a7748f45df08e33bee1b8b9a20029a165627a7a72305820139dfd00973b7de09890441b69290dcb5cc9bba634c727bb655a1ce1f51c03e00029",
  "source": "pragma solidity ^0.4.23;\r\n\r\nimport './MarketEscrow.sol';\r\n\r\ncontract Market {\r\n\r\naddress private owner;\r\n\r\naddress public children;\r\n\r\nconstructor() {\r\n  owner = msg.sender;\r\n  productsCount = 0;\r\n}\r\n\r\n\r\nstruct user {\r\n  string publicKey;\r\n  string name;\r\n  string avatar;\r\n  bytes32[] products;\r\n  uint256 productsLenght;\r\n  address[] purchaseLUT;\r\n  uint256 purchaseLUTLenght;\r\n  uint256 saleNumber;\r\n  bool blocked;\r\n}\r\n\r\nmapping (address => user) public users;\r\n\r\nfunction addUser(address userAddress, string key, string name, string avatar) public {\r\n  require(msg.sender == userAddress);\r\n  users[userAddress].publicKey = key;\r\n  users[userAddress].name = name;\r\n  users[userAddress].avatar = avatar;\r\n  users[userAddress].blocked = false;\r\n  users[userAddress].productsLenght = 0;  \r\n  users[userAddress].purchaseLUTLenght = 0; \r\n  users[userAddress].saleNumber = 0;\r\n}\r\n\r\nfunction addUserPurchase(address escrowAddress) public {\r\n  users[msg.sender].purchaseLUT.push(escrowAddress);\r\n  users[msg.sender].purchaseLUTLenght++;\r\n}\r\n\r\n\r\nfunction getUser(address userAddress) public view returns (string,string,string,bool,uint256,uint256,uint256) {\r\n  return (users[userAddress].publicKey,users[userAddress].name,users[userAddress].avatar,users[userAddress].blocked,users[userAddress].productsLenght,users[userAddress].purchaseLUTLenght,users[userAddress].saleNumber);\r\n}\r\n\r\n\r\n\r\nfunction getUserProduct(address userAddress, uint256 index) returns(bytes32) {\r\n  return users[userAddress].products[index];\r\n}\r\n\r\nfunction getUserPurchase(address userAddress, uint256 index) returns(address) {\r\n  return users[userAddress].purchaseLUT[index];\r\n}\r\n\r\n\r\nfunction getOwner() public view returns (address) {\r\n  return owner;\r\n}\r\n\r\nfunction blockUser(address user, bytes32 product, address buyer) public {\r\n  var requesterAddress = getEscrowAddress(product,buyer);\r\n  if (msg.sender == requesterAddress) {\r\n    users[user].blocked = true;\r\n  }\r\n}\r\n\r\nstruct product {\r\n  string description;\r\n  address seller;\r\n  uint256 price;\r\n  mapping (address => address) purchase;\r\n  address[] purchaseLUT;\r\n  uint256 purchaseLUTLenght;\r\n}\r\n\r\nmapping (bytes32 => product) public products;\r\nmapping (uint => bytes32) private productsIndex; //doSomeStuff(accountBalances[accountIndex[i]]);\r\nuint private  productsCount;\r\n\r\nfunction getProductPurchase(bytes32 product, uint256 index) returns(address) {\r\n  return products[product].purchaseLUT[index];\r\n}\r\n\r\nfunction getProductPrice(bytes32 product) returns(uint256) {\r\n  return products[product].price;\r\n}\r\n/*\r\nfunction purchase(bytes32 hashFile, address escrowAddress) {\r\n  products[hashFile].purchase[msg.sender] = escrowAddress;\r\n  products[hashFile].purchaseLUT.push(escrowAddress);\r\n  products[hashFile].purchaseLUTLenght++;\r\n  users[products[hashFile].seller].saleNumber++;\r\n}*/\r\n\r\nfunction purchase(bytes32 hashFile, address seller, uint256 price) public payable {\r\n  require(msg.value == (price*2));\r\n  address instanceEscrowAddress = new MarketEscrow(address(this),hashFile); \r\n  MarketEscrow instanceEscrow = MarketEscrow(instanceEscrowAddress);\r\n  instanceEscrow.setPayee(seller);\r\n  instanceEscrow.depositFromBuyer.value(msg.value)();\r\n\r\n  products[hashFile].purchase[msg.sender] = instanceEscrowAddress;\r\n  products[hashFile].purchaseLUT.push(instanceEscrowAddress);\r\n  products[hashFile].purchaseLUTLenght++;\r\n  users[products[hashFile].seller].saleNumber++;\r\n\r\n  addUserPurchase(instanceEscrowAddress);\r\n}\r\n\r\n\r\nfunction getEscrowAddress(bytes32 hashFile, address buyer) returns(address) {\r\n  return products[hashFile].purchase[buyer];\r\n}\r\n\r\n/*function existProduct(string hashFile) public view returns (bool){\r\n  if (products[hashFile].description == \"\") return false;\r\n  else return true;\r\n}*/\r\n\r\n/*\r\nfunction find(uint value) returns(uint) {\r\n        uint i = 0;\r\n        while (values[i] != value) {\r\n            i++;\r\n        }\r\n        return i;\r\n    }\r\n\r\n    function removeByValue(uint value) {\r\n        uint i = find(value);\r\n        removeByIndex(i);\r\n    }\r\n */\r\n\r\n\r\nfunction addProduct(string description, bytes32 hashProduct, uint256 price) public /*payable*/ {\r\n  //bytes32 hashProduct = convert(hashString);\r\n  bytes memory EmptyStringTest = bytes(products[hashProduct].description); \r\n  if(EmptyStringTest.length == 0) {\r\n    products[hashProduct].description = description;\r\n    products[hashProduct].seller = msg.sender;\r\n    products[hashProduct].price = price;\r\n    users[msg.sender].productsLenght++;\r\n    users[msg.sender].products.push(hashProduct);\r\n    productsIndex[productsCount] = hashProduct;\r\n    productsCount++;\r\n  }\r\n}\r\n\r\nfunction convert(string key) returns (bytes32 ret) {\r\n    if (bytes(key).length > 32) {\r\n      throw;\r\n    }\r\n\r\n    assembly {\r\n      ret := mload(add(key, 32))\r\n    }\r\n  }\r\n/*\r\nfunction getProduct(bytes32 hashProduct) public returns(string,address,uint256,uint256) {\r\n  //bytes32 hashProduct = convert(hashString);\r\n  return (products[hashProduct].description,products[hashProduct].seller,products[hashProduct].price,products[hashProduct].purchaseLUTLenght);\r\n}*/\r\n\r\nfunction getProductCode(uint code) public returns(bytes32) {\r\n  return productsIndex[code];\r\n}\r\n\r\nfunction getProductCode() public returns(uint) {\r\n  return productsCount;\r\n}\r\n\r\nfunction deleteProduct(address user, bytes32 hashProduct, uint256 index) public {\r\n  //bytes32 hashProduct = convert(hashString);\r\n  if (msg.sender == user) {\r\n    users[user].products[index] = users[user].products[users[user].products.length-1];\r\n    delete users[user].products[users[user].products.length-1];\r\n    users[user].products.length--;\r\n    delete products[hashProduct];\r\n    users[user].productsLenght--;\r\n  }\r\n}\r\n\r\n//function deposit(address payee) public payable\r\n\r\nfunction unblockUser (address user) restricted public {\r\n  users[user].blocked = false;\r\n}\r\n\r\n  \r\nfunction kill() restricted public {\r\n    selfdestruct(msg.sender);\r\n  }\r\n\r\nmodifier restricted() {\r\n    require(msg.sender == owner);\r\n    _;\r\n  }\r\n}\r\n",
  "sourcePath": "C:\\Users\\Erasmo\\Desktop\\DMarket\\contract\\contracts\\Market.sol",
  "compiler": {
    "name": "solc",
    "version": "0.4.24+commit.e67f0147.Emscripten.clang"
  },
  "schemaVersion": "2.0.1",
  "updatedAt": "2018-12-13T21:24:32.615Z"
}