{
  "contractName": "MarketEscrow",
  "abi": [
    {
      "constant": true,
      "inputs": [],
      "name": "buyer",
      "outputs": [
        {
          "name": "",
          "type": "address"
        }
      ],
      "payable": false,
      "stateMutability": "view",
      "type": "function"
    },
    {
      "constant": true,
      "inputs": [],
      "name": "nameFile",
      "outputs": [
        {
          "name": "",
          "type": "string"
        }
      ],
      "payable": false,
      "stateMutability": "view",
      "type": "function"
    },
    {
      "constant": true,
      "inputs": [],
      "name": "payee",
      "outputs": [
        {
          "name": "",
          "type": "address"
        }
      ],
      "payable": false,
      "stateMutability": "view",
      "type": "function"
    },
    {
      "constant": true,
      "inputs": [],
      "name": "state",
      "outputs": [
        {
          "name": "",
          "type": "uint8"
        }
      ],
      "payable": false,
      "stateMutability": "view",
      "type": "function"
    },
    {
      "constant": true,
      "inputs": [],
      "name": "addressEncryptedFile",
      "outputs": [
        {
          "name": "",
          "type": "string"
        }
      ],
      "payable": false,
      "stateMutability": "view",
      "type": "function"
    },
    {
      "constant": true,
      "inputs": [],
      "name": "hashFile",
      "outputs": [
        {
          "name": "",
          "type": "bytes32"
        }
      ],
      "payable": false,
      "stateMutability": "view",
      "type": "function"
    },
    {
      "constant": true,
      "inputs": [],
      "name": "keyAddress",
      "outputs": [
        {
          "name": "",
          "type": "string"
        }
      ],
      "payable": false,
      "stateMutability": "view",
      "type": "function"
    },
    {
      "inputs": [
        {
          "name": "addr",
          "type": "address"
        },
        {
          "name": "hFile",
          "type": "bytes32"
        }
      ],
      "payable": false,
      "stateMutability": "nonpayable",
      "type": "constructor"
    },
    {
      "constant": false,
      "inputs": [
        {
          "name": "p",
          "type": "address"
        }
      ],
      "name": "setPayee",
      "outputs": [],
      "payable": false,
      "stateMutability": "nonpayable",
      "type": "function"
    },
    {
      "constant": false,
      "inputs": [
        {
          "name": "hFile",
          "type": "bytes32"
        },
        {
          "name": "hEncryptedFile",
          "type": "string"
        },
        {
          "name": "key",
          "type": "string"
        },
        {
          "name": "name",
          "type": "string"
        }
      ],
      "name": "setFile",
      "outputs": [],
      "payable": true,
      "stateMutability": "payable",
      "type": "function"
    },
    {
      "constant": false,
      "inputs": [],
      "name": "depositFromBuyer",
      "outputs": [],
      "payable": true,
      "stateMutability": "payable",
      "type": "function"
    },
    {
      "constant": false,
      "inputs": [
        {
          "name": "hFile",
          "type": "bytes32"
        }
      ],
      "name": "withdraw",
      "outputs": [],
      "payable": false,
      "stateMutability": "nonpayable",
      "type": "function"
    }
  ],
  "bytecode": "0x608060405234801561001057600080fd5b50604051604080610d4c833981018060405281019080805190602001909291908051906020019092919050505062015180420160068190555081600560006101000a81548173ffffffffffffffffffffffffffffffffffffffff021916908373ffffffffffffffffffffffffffffffffffffffff1602179055506000600a819055506000600b8190555033600e60006101000a81548173ffffffffffffffffffffffffffffffffffffffff021916908373ffffffffffffffffffffffffffffffffffffffff1602179055508060018160001916905550600560009054906101000a900473ffffffffffffffffffffffffffffffffffffffff16600960006101000a81548173ffffffffffffffffffffffffffffffffffffffff021916908373ffffffffffffffffffffffffffffffffffffffff16021790555060008060006101000a81548160ff0219169083600481111561016757fe5b02179055505050610bcf8061017d6000396000f3006080604052600436106100af576000357c0100000000000000000000000000000000000000000000000000000000900463ffffffff168063410459ad146100b457806341d3b12e146100f75780635db53f8b146101ed5780637150d8ae146101f757806381ee132f1461024e5780638e19899e146102de578063ae90b2131461030f578063c19d93fb14610366578063c5995e9a1461039f578063d8e30a871461042f578063df0b52c814610462575b600080fd5b3480156100c057600080fd5b506100f5600480360381019080803573ffffffffffffffffffffffffffffffffffffffff1690602001909291905050506104f2565b005b6101eb6004803603810190808035600019169060200190929190803590602001908201803590602001908080601f0160208091040260200160405190810160405280939291908181526020018383808284378201915050505050509192919290803590602001908201803590602001908080601f0160208091040260200160405190810160405280939291908181526020018383808284378201915050505050509192919290803590602001908201803590602001908080601f0160208091040260200160405190810160405280939291908181526020018383808284378201915050505050509192919290505050610592565b005b6101f5610695565b005b34801561020357600080fd5b5061020c610737565b604051808273ffffffffffffffffffffffffffffffffffffffff1673ffffffffffffffffffffffffffffffffffffffff16815260200191505060405180910390f35b34801561025a57600080fd5b5061026361075d565b6040518080602001828103825283818151815260200191508051906020019080838360005b838110156102a3578082015181840152602081019050610288565b50505050905090810190601f1680156102d05780820380516001836020036101000a031916815260200191505b509250505060405180910390f35b3480156102ea57600080fd5b5061030d60048036038101908080356000191690602001909291905050506107fb565b005b34801561031b57600080fd5b50610324610951565b604051808273ffffffffffffffffffffffffffffffffffffffff1673ffffffffffffffffffffffffffffffffffffffff16815260200191505060405180910390f35b34801561037257600080fd5b5061037b610977565b6040518082600481111561038b57fe5b60ff16815260200191505060405180910390f35b3480156103ab57600080fd5b506103b4610989565b6040518080602001828103825283818151815260200191508051906020019080838360005b838110156103f45780820151818401526020810190506103d9565b50505050905090810190601f1680156104215780820380516001836020036101000a031916815260200191505b509250505060405180910390f35b34801561043b57600080fd5b50610444610a27565b60405180826000191660001916815260200191505060405180910390f35b34801561046e57600080fd5b50610477610a2d565b6040518080602001828103825283818151815260200191508051906020019080838360005b838110156104b757808201518184015260208101905061049c565b50505050905090810190601f1680156104e45780820380516001836020036101000a031916815260200191505b509250505060405180910390f35b600e60009054906101000a900473ffffffffffffffffffffffffffffffffffffffff1673ffffffffffffffffffffffffffffffffffffffff163373ffffffffffffffffffffffffffffffffffffffff1614151561054e57600080fd5b80600d60006101000a81548173ffffffffffffffffffffffffffffffffffffffff021916908373ffffffffffffffffffffffffffffffffffffffff16021790555050565b6000600d60009054906101000a900473ffffffffffffffffffffffffffffffffffffffff1673ffffffffffffffffffffffffffffffffffffffff163373ffffffffffffffffffffffffffffffffffffffff161415156105f057600080fd5b84600019166001546000191614151561060857600080fd5b836003908051906020019061061e929190610afe565b508260029080519060200190610635929190610afe565b50816004908051906020019061064c929190610afe565b5034905061066581600a54610acb90919063ffffffff16565b600a8190555060026000806101000a81548160ff0219169083600481111561068957fe5b02179055505050505050565b6000600e60009054906101000a900473ffffffffffffffffffffffffffffffffffffffff1673ffffffffffffffffffffffffffffffffffffffff163373ffffffffffffffffffffffffffffffffffffffff161415156106f357600080fd5b34905061070b81600b54610acb90919063ffffffff16565b600b8190555060016000806101000a81548160ff0219169083600481111561072f57fe5b021790555050565b600e60009054906101000a900473ffffffffffffffffffffffffffffffffffffffff1681565b60048054600181600116156101000203166002900480601f0160208091040260200160405190810160405280929190818152602001828054600181600116156101000203166002900480156107f35780601f106107c8576101008083540402835291602001916107f3565b820191906000526020600020905b8154815290600101906020018083116107d657829003601f168201915b505050505081565b600e60009054906101000a900473ffffffffffffffffffffffffffffffffffffffff1673ffffffffffffffffffffffffffffffffffffffff163373ffffffffffffffffffffffffffffffffffffffff1614151561085757600080fd5b80600019166001546000191614151561086f57600080fd5b610877610aec565b600d60009054906101000a900473ffffffffffffffffffffffffffffffffffffffff1673ffffffffffffffffffffffffffffffffffffffff166108fc600a549081150290604051600060405180830381858888f193505050501580156108e1573d6000803e3d6000fd5b503373ffffffffffffffffffffffffffffffffffffffff166108fc600b549081150290604051600060405180830381858888f1935050505015801561092a573d6000803e3d6000fd5b5060046000806101000a81548160ff0219169083600481111561094957fe5b021790555050565b600d60009054906101000a900473ffffffffffffffffffffffffffffffffffffffff1681565b6000809054906101000a900460ff1681565b60038054600181600116156101000203166002900480601f016020809104026020016040519081016040528092919081815260200182805460018160011615610100020316600290048015610a1f5780601f106109f457610100808354040283529160200191610a1f565b820191906000526020600020905b815481529060010190602001808311610a0257829003601f168201915b505050505081565b60015481565b60028054600181600116156101000203166002900480601f016020809104026020016040519081016040528092919081815260200182805460018160011615610100020316600290048015610ac35780601f10610a9857610100808354040283529160200191610ac3565b820191906000526020600020905b815481529060010190602001808311610aa657829003601f168201915b505050505081565b6000808284019050838110151515610ae257600080fd5b8091505092915050565b60006007819055506000600881905550565b828054600181600116156101000203166002900490600052602060002090601f016020900481019282601f10610b3f57805160ff1916838001178555610b6d565b82800160010185558215610b6d579182015b82811115610b6c578251825591602001919060010190610b51565b5b509050610b7a9190610b7e565b5090565b610ba091905b80821115610b9c576000816000905550600101610b84565b5090565b905600a165627a7a72305820751c38acb82b8112746adf94f365260fff515bdb11829ac6651992c402015cee0029",
  "source": "pragma solidity ^0.4.23;\r\n\r\n//import '../../node_modules/openzeppelin-solidity/contracts/payment/ConditionalEscrow.sol';\r\nimport '../../node_modules/openzeppelin-solidity/contracts/math/SafeMath.sol';\r\nimport './Market.sol';\r\n\r\ncontract MarketEscrow /*is ConditionalEscrow*/ {\r\n\r\nusing SafeMath for uint256;\r\n\r\nenum State {Contratto_creato,In_attesa_del_venditore,Prodotto_disponibile,Errore_nella_transazione,Operazione_conclusa}\r\nState public state;\r\n    \r\n \r\nbytes32 public hashFile;\r\n\r\nstring public keyAddress;\r\nstring public addressEncryptedFile; \r\nstring public nameFile; \r\naddress private _marketAddress; \r\nuint256 private _expiration;\r\n\r\nuint256 private depositPayee;\r\nuint256 private depositBuyer;\r\nMarket private _marketIstance;\r\n\r\nuint256 private _depositSeller;\r\nuint256 private _depositBuyer;\r\nuint256 private _payment;\r\n\r\naddress public payee;\r\naddress public buyer;\r\n    \r\nconstructor(address addr,bytes32 hFile) public {\r\n    _expiration = now + 86400;\r\n    _marketAddress = addr;\r\n    _depositSeller = 0;\r\n    _depositBuyer = 0;\r\n    buyer = msg.sender;\r\n    hashFile = hFile;\r\n    _marketIstance = Market(_marketAddress);\r\n    state = State.Contratto_creato;\r\n    }    \r\n    \r\nfunction setPayee(address p) public onlyBuyer() {\r\n payee = p;\r\n}\r\n\r\nfunction setFile(bytes32 hFile, string hEncryptedFile, string key, string name) public payable onlyPayee()  {\r\n    //bytes32 hFile = marketIstance.convert(hFileString);\r\n    //bytes32 hEncryptedFile = marketIstance.convert(hEncryptedFileString);\r\n    /*require(hashFile == hFile);\r\n    addressEncryptedFile = hEncryptedFile;\r\n    keyAddress = key;\r\n    deposit(msg.sender);\r\n    state = State.Prodotto_disponibile;*/\r\n    require(hashFile == hFile);\r\n    addressEncryptedFile = hEncryptedFile;\r\n    keyAddress = key;\r\n    nameFile = name;\r\n    uint256 amount = msg.value;\r\n    _depositSeller = _depositSeller.add(amount);\r\n    //deposit(msg.sender);\r\n    //depositPayee = msg.value;\r\n    state = State.Prodotto_disponibile;\r\n}\r\n/*\r\nfunction getHashAddress() public view returns(bytes32) {\r\n    return hashEncryptedFile;\r\n}*/\r\n\r\nfunction depositFromBuyer() public payable onlyBuyer() {\r\n    /*require(depositBuyer == 0);\r\n    deposit(msg.sender);\r\n    depositBuyer = depositsOf(msg.sender);*/\r\n    uint256 amount = msg.value;\r\n    _depositBuyer = _depositBuyer.add(amount);\r\n    state = State.In_attesa_del_venditore;\r\n}\r\n/*\r\nfunction depositFromSeller() public payable onlyPayee() {\r\n    \r\n    deposit(msg.sender);\r\n    \r\n    state = State.In_attesa_del_venditore;\r\n}*/\r\n/*\r\nfunction withdrawalAllowed(address payee) public view returns (bool) {\r\n      \r\n        address h = marketIstance.getEscrowAddress(hashFile,this.primary());\r\n        //if(stringsEqual(hashFile,h)) return true;\r\n        if (h == address(this)) {           \r\n            return true;\r\n        }\r\n        else {          \r\n            return false;\r\n        }\r\n    }\r\n\r\nfunction withdraw(address payee) public onlyPrimary() {\r\n    require(withdrawalAllowed(payee));\r\n    payee.transfer(depositPayee);\r\n    msg.sender.transfer(depositBuyer);\r\n    resetDeposit();\r\n    super.withdraw(payee);\r\n    state = State.Operazione_conclusa;\r\n  }\r\n\r\nfunction blockUser(address payee) public onlyPrimary() {\r\n marketIstance.blockUser(payee,hashFile,this.primary());\r\n}\r\n\r\nfunction resetDeposit() private {\r\n    depositPayee = 0;\r\n    depositBuyer = 0;\r\n}\r\n\r\nfunction refundBuyer(address payee) public onlyPrimary() {\r\n    if (!withdrawalAllowed(payee)){\r\n        //this.primary().transfer(depositPayee);\r\n        msg.sender.transfer(depositPayee);\r\n        msg.sender.transfer(depositBuyer);\r\n        resetDeposit();\r\n        msg.sender.transfer(depositsOf(payee));\r\n        state = State.Operazione_conclusa;\r\n        selfdestruct(msg.sender);\r\n    }       \r\n}*/\r\n\r\nfunction withdraw(bytes32 hFile) public onlyBuyer() {\r\n    require(hashFile == hFile);\r\n    resetDeposit();\r\n    payee.transfer(_depositSeller);\r\n    msg.sender.transfer(_depositBuyer);\r\n    \r\n    //super.withdraw(payee);\r\n    state = State.Operazione_conclusa;\r\n  }\r\n\r\n  function resetDeposit() private {\r\n    depositPayee = 0;\r\n    depositBuyer = 0;\r\n}\r\n\r\nmodifier onlyPayee() {\r\n    require(msg.sender == payee);\r\n    _;\r\n  }\r\n\r\nmodifier onlyBuyer() {\r\n    require(msg.sender == buyer);\r\n    _;\r\n }\r\n\r\n\r\n}",
  "sourcePath": "C:\\Users\\Erasmo\\Desktop\\DMarket\\contract\\contracts\\MarketEscrow.sol",
  "compiler": {
    "name": "solc",
    "version": "0.4.24+commit.e67f0147.Emscripten.clang"
  },
  "schemaVersion": "2.0.1",
  "updatedAt": "2018-12-10T10:52:02.253Z"
}