{
  "contractName": "MarketEscrow",
  "abi": [
    {
      "constant": false,
      "inputs": [
        {
          "name": "recipient",
          "type": "address"
        }
      ],
      "name": "transferPrimary",
      "outputs": [],
      "payable": false,
      "stateMutability": "nonpayable",
      "type": "function"
    },
    {
      "constant": true,
      "inputs": [],
      "name": "buyer",
      "outputs": [
        {
          "name": "",
          "type": "address"
        }
      ],
      "payable": false,
      "stateMutability": "view",
      "type": "function"
    },
    {
      "constant": true,
      "inputs": [],
      "name": "payee",
      "outputs": [
        {
          "name": "",
          "type": "address"
        }
      ],
      "payable": false,
      "stateMutability": "view",
      "type": "function"
    },
    {
      "constant": true,
      "inputs": [],
      "name": "state",
      "outputs": [
        {
          "name": "",
          "type": "uint8"
        }
      ],
      "payable": false,
      "stateMutability": "view",
      "type": "function"
    },
    {
      "constant": true,
      "inputs": [],
      "name": "primary",
      "outputs": [
        {
          "name": "",
          "type": "address"
        }
      ],
      "payable": false,
      "stateMutability": "view",
      "type": "function"
    },
    {
      "constant": true,
      "inputs": [],
      "name": "hashFile",
      "outputs": [
        {
          "name": "",
          "type": "bytes32"
        }
      ],
      "payable": false,
      "stateMutability": "view",
      "type": "function"
    },
    {
      "constant": true,
      "inputs": [],
      "name": "keyAddress",
      "outputs": [
        {
          "name": "",
          "type": "string"
        }
      ],
      "payable": false,
      "stateMutability": "view",
      "type": "function"
    },
    {
      "constant": true,
      "inputs": [
        {
          "name": "payee",
          "type": "address"
        }
      ],
      "name": "depositsOf",
      "outputs": [
        {
          "name": "",
          "type": "uint256"
        }
      ],
      "payable": false,
      "stateMutability": "view",
      "type": "function"
    },
    {
      "constant": false,
      "inputs": [
        {
          "name": "payee",
          "type": "address"
        }
      ],
      "name": "deposit",
      "outputs": [],
      "payable": true,
      "stateMutability": "payable",
      "type": "function"
    },
    {
      "inputs": [
        {
          "name": "addr",
          "type": "address"
        },
        {
          "name": "hFile",
          "type": "bytes32"
        }
      ],
      "payable": false,
      "stateMutability": "nonpayable",
      "type": "constructor"
    },
    {
      "anonymous": false,
      "inputs": [
        {
          "indexed": true,
          "name": "payee",
          "type": "address"
        },
        {
          "indexed": false,
          "name": "weiAmount",
          "type": "uint256"
        }
      ],
      "name": "Deposited",
      "type": "event"
    },
    {
      "anonymous": false,
      "inputs": [
        {
          "indexed": true,
          "name": "payee",
          "type": "address"
        },
        {
          "indexed": false,
          "name": "weiAmount",
          "type": "uint256"
        }
      ],
      "name": "Withdrawn",
      "type": "event"
    },
    {
      "constant": false,
      "inputs": [
        {
          "name": "p",
          "type": "address"
        }
      ],
      "name": "setPayee",
      "outputs": [],
      "payable": false,
      "stateMutability": "nonpayable",
      "type": "function"
    },
    {
      "constant": false,
      "inputs": [
        {
          "name": "hFile",
          "type": "bytes32"
        },
        {
          "name": "hEncryptedFile",
          "type": "string"
        },
        {
          "name": "key",
          "type": "string"
        }
      ],
      "name": "setFile",
      "outputs": [],
      "payable": true,
      "stateMutability": "payable",
      "type": "function"
    },
    {
      "constant": true,
      "inputs": [],
      "name": "getHashAddress",
      "outputs": [
        {
          "name": "",
          "type": "bytes32"
        }
      ],
      "payable": false,
      "stateMutability": "view",
      "type": "function"
    },
    {
      "constant": false,
      "inputs": [],
      "name": "depositFromBuyer",
      "outputs": [],
      "payable": true,
      "stateMutability": "payable",
      "type": "function"
    },
    {
      "constant": false,
      "inputs": [],
      "name": "depositFromSeller",
      "outputs": [],
      "payable": true,
      "stateMutability": "payable",
      "type": "function"
    },
    {
      "constant": true,
      "inputs": [
        {
          "name": "payee",
          "type": "address"
        }
      ],
      "name": "withdrawalAllowed",
      "outputs": [
        {
          "name": "",
          "type": "bool"
        }
      ],
      "payable": false,
      "stateMutability": "view",
      "type": "function"
    },
    {
      "constant": false,
      "inputs": [
        {
          "name": "payee",
          "type": "address"
        }
      ],
      "name": "withdraw",
      "outputs": [],
      "payable": false,
      "stateMutability": "nonpayable",
      "type": "function"
    },
    {
      "constant": false,
      "inputs": [
        {
          "name": "payee",
          "type": "address"
        }
      ],
      "name": "blockUser",
      "outputs": [],
      "payable": false,
      "stateMutability": "nonpayable",
      "type": "function"
    },
    {
      "constant": false,
      "inputs": [
        {
          "name": "payee",
          "type": "address"
        }
      ],
      "name": "refundBuyer",
      "outputs": [],
      "payable": false,
      "stateMutability": "nonpayable",
      "type": "function"
    }
  ],
  "bytecode": "0x608060405234801561001057600080fd5b5060405160408061182c8339810180604052810190808051906020019092919080519060200190929190505050336000806101000a81548173ffffffffffffffffffffffffffffffffffffffff021916908373ffffffffffffffffffffffffffffffffffffffff16021790555062015180420160088190555081600760006101000a81548173ffffffffffffffffffffffffffffffffffffffff021916908373ffffffffffffffffffffffffffffffffffffffff1602179055506000600a819055506000600b8190555033600260016101000a81548173ffffffffffffffffffffffffffffffffffffffff021916908373ffffffffffffffffffffffffffffffffffffffff1602179055508060038160001916905550600760009054906101000a900473ffffffffffffffffffffffffffffffffffffffff16600c60006101000a81548173ffffffffffffffffffffffffffffffffffffffff021916908373ffffffffffffffffffffffffffffffffffffffff1602179055506000600260006101000a81548160ff021916908360048111156101a857fe5b0217905550505061166e806101be6000396000f3006080604052600436106100fc576000357c0100000000000000000000000000000000000000000000000000000000900463ffffffff1680632348238c14610101578063297d398b146101445780633da01325146101f4578063410459ad1461023757806351cff8d91461027a5780635db53f8b146102bd5780635f71f317146102c7578063685ca1941461030a5780637150d8ae14610365578063ae90b213146103bc578063c19d93fb14610413578063c6dbdf611461044c578063c966cc8d146104a3578063d8e30a87146104ad578063df0b52c8146104e0578063e3a9db1a14610570578063f340fa01146105c7578063fa285e4c146105fd575b600080fd5b34801561010d57600080fd5b50610142600480360381019080803573ffffffffffffffffffffffffffffffffffffffff169060200190929190505050610630565b005b6101f26004803603810190808035600019169060200190929190803590602001908201803590602001908080601f0160208091040260200160405190810160405280939291908181526020018383808284378201915050505050509192919290803590602001908201803590602001908080601f016020809104026020016040519081016040528093929190818152602001838380828437820191505050505050919291929050505061070a565b005b34801561020057600080fd5b50610235600480360381019080803573ffffffffffffffffffffffffffffffffffffffff1690602001909291905050506107dd565b005b34801561024357600080fd5b50610278600480360381019080803573ffffffffffffffffffffffffffffffffffffffff1690602001909291905050506109f4565b005b34801561028657600080fd5b506102bb600480360381019080803573ffffffffffffffffffffffffffffffffffffffff169060200190929190505050610a93565b005b6102c5610bcc565b005b3480156102d357600080fd5b50610308600480360381019080803573ffffffffffffffffffffffffffffffffffffffff169060200190929190505050610c76565b005b34801561031657600080fd5b5061034b600480360381019080803573ffffffffffffffffffffffffffffffffffffffff169060200190929190505050610e09565b604051808215151515815260200191505060405180910390f35b34801561037157600080fd5b5061037a610ffe565b604051808273ffffffffffffffffffffffffffffffffffffffff1673ffffffffffffffffffffffffffffffffffffffff16815260200191505060405180910390f35b3480156103c857600080fd5b506103d1611024565b604051808273ffffffffffffffffffffffffffffffffffffffff1673ffffffffffffffffffffffffffffffffffffffff16815260200191505060405180910390f35b34801561041f57600080fd5b5061042861104a565b6040518082600481111561043857fe5b60ff16815260200191505060405180910390f35b34801561045857600080fd5b5061046161105d565b604051808273ffffffffffffffffffffffffffffffffffffffff1673ffffffffffffffffffffffffffffffffffffffff16815260200191505060405180910390f35b6104ab611086565b005b3480156104b957600080fd5b506104c2611111565b60405180826000191660001916815260200191505060405180910390f35b3480156104ec57600080fd5b506104f5611117565b6040518080602001828103825283818151815260200191508051906020019080838360005b8381101561053557808201518184015260208101905061051a565b50505050905090810190601f1680156105625780820380516001836020036101000a031916815260200191505b509250505060405180910390f35b34801561057c57600080fd5b506105b1600480360381019080803573ffffffffffffffffffffffffffffffffffffffff1690602001909291905050506111b5565b6040518082815260200191505060405180910390f35b6105fb600480360381019080803573ffffffffffffffffffffffffffffffffffffffff1690602001909291905050506111fe565b005b34801561060957600080fd5b50610612611345565b60405180826000191660001916815260200191505060405180910390f35b6000809054906101000a900473ffffffffffffffffffffffffffffffffffffffff1673ffffffffffffffffffffffffffffffffffffffff163373ffffffffffffffffffffffffffffffffffffffff1614151561068b57600080fd5b600073ffffffffffffffffffffffffffffffffffffffff168173ffffffffffffffffffffffffffffffffffffffff16141515156106c757600080fd5b806000806101000a81548173ffffffffffffffffffffffffffffffffffffffff021916908373ffffffffffffffffffffffffffffffffffffffff16021790555050565b6000600960009054906101000a900473ffffffffffffffffffffffffffffffffffffffff1673ffffffffffffffffffffffffffffffffffffffff163373ffffffffffffffffffffffffffffffffffffffff1614151561076857600080fd5b826006908051906020019061077e92919061159d565b50816005908051906020019061079592919061159d565b503490506107ae81600d546113aa90919063ffffffff16565b600d8190555060028060006101000a81548160ff021916908360048111156107d257fe5b021790555050505050565b6000809054906101000a900473ffffffffffffffffffffffffffffffffffffffff1673ffffffffffffffffffffffffffffffffffffffff163373ffffffffffffffffffffffffffffffffffffffff1614151561083857600080fd5b600c60009054906101000a900473ffffffffffffffffffffffffffffffffffffffff1673ffffffffffffffffffffffffffffffffffffffff16637cebadb1826003543073ffffffffffffffffffffffffffffffffffffffff1663c6dbdf616040518163ffffffff167c0100000000000000000000000000000000000000000000000000000000028152600401602060405180830381600087803b1580156108de57600080fd5b505af11580156108f2573d6000803e3d6000fd5b505050506040513d602081101561090857600080fd5b81019080805190602001909291905050506040518463ffffffff167c0100000000000000000000000000000000000000000000000000000000028152600401808473ffffffffffffffffffffffffffffffffffffffff1673ffffffffffffffffffffffffffffffffffffffff16815260200183600019166000191681526020018273ffffffffffffffffffffffffffffffffffffffff1673ffffffffffffffffffffffffffffffffffffffff1681526020019350505050600060405180830381600087803b1580156109d957600080fd5b505af11580156109ed573d6000803e3d6000fd5b5050505050565b6000809054906101000a900473ffffffffffffffffffffffffffffffffffffffff1673ffffffffffffffffffffffffffffffffffffffff163373ffffffffffffffffffffffffffffffffffffffff16141515610a4f57600080fd5b80600960006101000a81548173ffffffffffffffffffffffffffffffffffffffff021916908373ffffffffffffffffffffffffffffffffffffffff16021790555050565b6000809054906101000a900473ffffffffffffffffffffffffffffffffffffffff1673ffffffffffffffffffffffffffffffffffffffff163373ffffffffffffffffffffffffffffffffffffffff16141515610aee57600080fd5b610af781610e09565b1515610b0257600080fd5b8073ffffffffffffffffffffffffffffffffffffffff166108fc600a549081150290604051600060405180830381858888f19350505050158015610b4a573d6000803e3d6000fd5b503373ffffffffffffffffffffffffffffffffffffffff166108fc600b549081150290604051600060405180830381858888f19350505050158015610b93573d6000803e3d6000fd5b50610b9c6113cb565b610ba5816113dd565b6004600260006101000a81548160ff02191690836004811115610bc457fe5b021790555050565b6000809054906101000a900473ffffffffffffffffffffffffffffffffffffffff1673ffffffffffffffffffffffffffffffffffffffff163373ffffffffffffffffffffffffffffffffffffffff16141515610c2757600080fd5b6000600b54141515610c3857600080fd5b610c41336111fe565b610c4a336111b5565b600b819055506001600260006101000a81548160ff02191690836004811115610c6f57fe5b0217905550565b6000809054906101000a900473ffffffffffffffffffffffffffffffffffffffff1673ffffffffffffffffffffffffffffffffffffffff163373ffffffffffffffffffffffffffffffffffffffff16141515610cd157600080fd5b610cda81610e09565b1515610e06573373ffffffffffffffffffffffffffffffffffffffff166108fc600a549081150290604051600060405180830381858888f19350505050158015610d28573d6000803e3d6000fd5b503373ffffffffffffffffffffffffffffffffffffffff166108fc600b549081150290604051600060405180830381858888f19350505050158015610d71573d6000803e3d6000fd5b50610d7a6113cb565b3373ffffffffffffffffffffffffffffffffffffffff166108fc610d9d836111b5565b9081150290604051600060405180830381858888f19350505050158015610dc8573d6000803e3d6000fd5b506004600260006101000a81548160ff02191690836004811115610de857fe5b02179055503373ffffffffffffffffffffffffffffffffffffffff16ff5b50565b600080600c60009054906101000a900473ffffffffffffffffffffffffffffffffffffffff1673ffffffffffffffffffffffffffffffffffffffff166392ab73d96003543073ffffffffffffffffffffffffffffffffffffffff1663c6dbdf616040518163ffffffff167c0100000000000000000000000000000000000000000000000000000000028152600401602060405180830381600087803b158015610eb157600080fd5b505af1158015610ec5573d6000803e3d6000fd5b505050506040513d6020811015610edb57600080fd5b81019080805190602001909291905050506040518363ffffffff167c01000000000000000000000000000000000000000000000000000000000281526004018083600019166000191681526020018273ffffffffffffffffffffffffffffffffffffffff1673ffffffffffffffffffffffffffffffffffffffff16815260200192505050602060405180830381600087803b158015610f7957600080fd5b505af1158015610f8d573d6000803e3d6000fd5b505050506040513d6020811015610fa357600080fd5b810190808051906020019092919050505090503073ffffffffffffffffffffffffffffffffffffffff168173ffffffffffffffffffffffffffffffffffffffff161415610ff35760019150610ff8565b600091505b50919050565b600260019054906101000a900473ffffffffffffffffffffffffffffffffffffffff1681565b600960009054906101000a900473ffffffffffffffffffffffffffffffffffffffff1681565b600260009054906101000a900460ff1681565b60008060009054906101000a900473ffffffffffffffffffffffffffffffffffffffff16905090565b600960009054906101000a900473ffffffffffffffffffffffffffffffffffffffff1673ffffffffffffffffffffffffffffffffffffffff163373ffffffffffffffffffffffffffffffffffffffff161415156110e257600080fd5b6110eb336111fe565b6001600260006101000a81548160ff0219169083600481111561110a57fe5b0217905550565b60035481565b60058054600181600116156101000203166002900480601f0160208091040260200160405190810160405280929190818152602001828054600181600116156101000203166002900480156111ad5780601f10611182576101008083540402835291602001916111ad565b820191906000526020600020905b81548152906001019060200180831161119057829003601f168201915b505050505081565b6000600160008373ffffffffffffffffffffffffffffffffffffffff1673ffffffffffffffffffffffffffffffffffffffff168152602001908152602001600020549050919050565b60008060009054906101000a900473ffffffffffffffffffffffffffffffffffffffff1673ffffffffffffffffffffffffffffffffffffffff163373ffffffffffffffffffffffffffffffffffffffff1614151561125b57600080fd5b3490506112b081600160008573ffffffffffffffffffffffffffffffffffffffff1673ffffffffffffffffffffffffffffffffffffffff168152602001908152602001600020546113aa90919063ffffffff16565b600160008473ffffffffffffffffffffffffffffffffffffffff1673ffffffffffffffffffffffffffffffffffffffff168152602001908152602001600020819055508173ffffffffffffffffffffffffffffffffffffffff167f2da466a7b24304f47e87fa2e1e5a81b9831ce54fec19055ce277ca2f39ba42c4826040518082815260200191505060405180910390a25050565b60008060009054906101000a900473ffffffffffffffffffffffffffffffffffffffff1673ffffffffffffffffffffffffffffffffffffffff163373ffffffffffffffffffffffffffffffffffffffff161415156113a257600080fd5b600454905090565b60008082840190508381101515156113c157600080fd5b8091505092915050565b6000600a819055506000600b81905550565b6113e681610e09565b15156113f157600080fd5b6113fa816113fd565b50565b60008060009054906101000a900473ffffffffffffffffffffffffffffffffffffffff1673ffffffffffffffffffffffffffffffffffffffff163373ffffffffffffffffffffffffffffffffffffffff1614151561145a57600080fd5b600160008373ffffffffffffffffffffffffffffffffffffffff1673ffffffffffffffffffffffffffffffffffffffff168152602001908152602001600020549050803073ffffffffffffffffffffffffffffffffffffffff1631101515156114bf57fe5b6000600160008473ffffffffffffffffffffffffffffffffffffffff1673ffffffffffffffffffffffffffffffffffffffff168152602001908152602001600020819055508173ffffffffffffffffffffffffffffffffffffffff166108fc829081150290604051600060405180830381858888f1935050505015801561154a573d6000803e3d6000fd5b508173ffffffffffffffffffffffffffffffffffffffff167f7084f5476618d8e60b11ef0d7d3f06914655adb8793e28ff7f018d4c76d505d5826040518082815260200191505060405180910390a25050565b828054600181600116156101000203166002900490600052602060002090601f016020900481019282601f106115de57805160ff191683800117855561160c565b8280016001018555821561160c579182015b8281111561160b5782518255916020019190600101906115f0565b5b509050611619919061161d565b5090565b61163f91905b8082111561163b576000816000905550600101611623565b5090565b905600a165627a7a7230582092a27a363197089584ede1feaa55e9a1428c90d1e651f3b66051cd626b801d7b0029",
  "source": "pragma solidity ^0.4.23;\r\n\r\nimport '../../node_modules/openzeppelin-solidity/contracts/payment/ConditionalEscrow.sol';\r\nimport './Market.sol';\r\n\r\ncontract MarketEscrow is ConditionalEscrow {\r\n\r\nenum State {Contratto_creato,In_attesa_del_venditore,Prodotto_disponibile,In_attesa_del_compratore,Operazione_conclusa}\r\nState public state;\r\n    \r\naddress public buyer;    \r\nbytes32 public hashFile;\r\nbytes32 private hashEncryptedFile; // DA VALUTARE\r\nstring public keyAddress;\r\nstring private addressEncryptedFile; \r\naddress private marketAddress; \r\nuint256 private expiration;\r\naddress public payee;\r\nuint256 private depositPayee;\r\nuint256 private depositBuyer;\r\nMarket private marketIstance;\r\n\r\nuint256 private _depositSeller;\r\n    \r\nconstructor(address addr,bytes32 hFile) public {\r\n    expiration = now + 86400;\r\n    marketAddress = addr;\r\n    depositPayee = 0;\r\n    depositBuyer = 0;\r\n    buyer = msg.sender;\r\n    hashFile = hFile;\r\n    marketIstance = Market(marketAddress);\r\n    state = State.Contratto_creato;\r\n    }    \r\n    \r\nfunction setPayee(address p) public onlyPrimary() {\r\n payee = p;\r\n}\r\n\r\nfunction setFile(bytes32 hFile, string hEncryptedFile, string key) public payable onlyPayee()  {\r\n    //bytes32 hFile = marketIstance.convert(hFileString);\r\n    //bytes32 hEncryptedFile = marketIstance.convert(hEncryptedFileString);\r\n    /*require(hashFile == hFile);\r\n    addressEncryptedFile = hEncryptedFile;\r\n    keyAddress = key;\r\n    deposit(msg.sender);\r\n    state = State.Prodotto_disponibile;*/\r\n    //require(hashFile == hFile);\r\n    addressEncryptedFile = hEncryptedFile;\r\n    keyAddress = key;\r\n    uint256 amount = msg.value;\r\n    _depositSeller = _depositSeller.add(amount);\r\n    //deposit(msg.sender);\r\n    //depositPayee = msg.value;\r\n    state = State.Prodotto_disponibile;\r\n}\r\n\r\nfunction getHashAddress() public view onlyPrimary() returns(bytes32) {\r\n    return hashEncryptedFile;\r\n}\r\n\r\nfunction depositFromBuyer() public payable onlyPrimary() {\r\n    require(depositBuyer == 0);\r\n    deposit(msg.sender);\r\n    depositBuyer = depositsOf(msg.sender);\r\n    state = State.In_attesa_del_venditore;\r\n}\r\n\r\nfunction depositFromSeller() public payable onlyPayee() {\r\n    \r\n    deposit(msg.sender);\r\n    \r\n    state = State.In_attesa_del_venditore;\r\n}\r\n\r\nfunction withdrawalAllowed(address payee) public view returns (bool) {\r\n      \r\n        address h = marketIstance.getEscrowAddress(hashFile,this.primary());\r\n        //if(stringsEqual(hashFile,h)) return true;\r\n        if (h == address(this)) {           \r\n            return true;\r\n        }\r\n        else {          \r\n            return false;\r\n        }\r\n    }\r\n\r\nfunction withdraw(address payee) public onlyPrimary() {\r\n    require(withdrawalAllowed(payee));\r\n    payee.transfer(depositPayee);\r\n    msg.sender.transfer(depositBuyer);\r\n    resetDeposit();\r\n    super.withdraw(payee);\r\n    state = State.Operazione_conclusa;\r\n  }\r\n\r\nfunction blockUser(address payee) public onlyPrimary() {\r\n marketIstance.blockUser(payee,hashFile,this.primary());\r\n}\r\n\r\nfunction resetDeposit() private {\r\n    depositPayee = 0;\r\n    depositBuyer = 0;\r\n}\r\n\r\nfunction refundBuyer(address payee) public onlyPrimary() {\r\n    if (!withdrawalAllowed(payee)){\r\n        //this.primary().transfer(depositPayee);\r\n        msg.sender.transfer(depositPayee);\r\n        msg.sender.transfer(depositBuyer);\r\n        resetDeposit();\r\n        msg.sender.transfer(depositsOf(payee));\r\n        state = State.Operazione_conclusa;\r\n        selfdestruct(msg.sender);\r\n    }       \r\n}\r\n\r\nmodifier onlyPayee() {\r\n    require(msg.sender == payee);\r\n    _;\r\n  }\r\n\r\n\r\n}",
  "sourcePath": "C:\\Users\\esolazzo\\Desktop\\client\\contract\\contracts\\MarketEscrow.sol",
  "compiler": {
    "name": "solc",
    "version": "0.4.24+commit.e67f0147.Emscripten.clang"
  },
  "schemaVersion": "2.0.1",
  "updatedAt": "2018-12-07T13:46:45.391Z"
}