{
  "contractName": "MarketEscrow",
  "abi": [
    {
      "constant": false,
      "inputs": [
        {
          "name": "recipient",
          "type": "address"
        }
      ],
      "name": "transferPrimary",
      "outputs": [],
      "payable": false,
      "stateMutability": "nonpayable",
      "type": "function"
    },
    {
      "constant": true,
      "inputs": [],
      "name": "buyer",
      "outputs": [
        {
          "name": "",
          "type": "address"
        }
      ],
      "payable": false,
      "stateMutability": "view",
      "type": "function"
    },
    {
      "constant": true,
      "inputs": [],
      "name": "nameFile",
      "outputs": [
        {
          "name": "",
          "type": "string"
        }
      ],
      "payable": false,
      "stateMutability": "view",
      "type": "function"
    },
    {
      "constant": true,
      "inputs": [],
      "name": "payee",
      "outputs": [
        {
          "name": "",
          "type": "address"
        }
      ],
      "payable": false,
      "stateMutability": "view",
      "type": "function"
    },
    {
      "constant": true,
      "inputs": [],
      "name": "state",
      "outputs": [
        {
          "name": "",
          "type": "uint8"
        }
      ],
      "payable": false,
      "stateMutability": "view",
      "type": "function"
    },
    {
      "constant": true,
      "inputs": [],
      "name": "addressEncryptedFile",
      "outputs": [
        {
          "name": "",
          "type": "string"
        }
      ],
      "payable": false,
      "stateMutability": "view",
      "type": "function"
    },
    {
      "constant": true,
      "inputs": [],
      "name": "primary",
      "outputs": [
        {
          "name": "",
          "type": "address"
        }
      ],
      "payable": false,
      "stateMutability": "view",
      "type": "function"
    },
    {
      "constant": true,
      "inputs": [],
      "name": "hashFile",
      "outputs": [
        {
          "name": "",
          "type": "bytes32"
        }
      ],
      "payable": false,
      "stateMutability": "view",
      "type": "function"
    },
    {
      "constant": true,
      "inputs": [],
      "name": "keyAddress",
      "outputs": [
        {
          "name": "",
          "type": "string"
        }
      ],
      "payable": false,
      "stateMutability": "view",
      "type": "function"
    },
    {
      "constant": true,
      "inputs": [
        {
          "name": "payee",
          "type": "address"
        }
      ],
      "name": "depositsOf",
      "outputs": [
        {
          "name": "",
          "type": "uint256"
        }
      ],
      "payable": false,
      "stateMutability": "view",
      "type": "function"
    },
    {
      "constant": false,
      "inputs": [
        {
          "name": "payee",
          "type": "address"
        }
      ],
      "name": "deposit",
      "outputs": [],
      "payable": true,
      "stateMutability": "payable",
      "type": "function"
    },
    {
      "inputs": [
        {
          "name": "addr",
          "type": "address"
        },
        {
          "name": "hFile",
          "type": "bytes32"
        }
      ],
      "payable": false,
      "stateMutability": "nonpayable",
      "type": "constructor"
    },
    {
      "anonymous": false,
      "inputs": [
        {
          "indexed": true,
          "name": "payee",
          "type": "address"
        },
        {
          "indexed": false,
          "name": "weiAmount",
          "type": "uint256"
        }
      ],
      "name": "Deposited",
      "type": "event"
    },
    {
      "anonymous": false,
      "inputs": [
        {
          "indexed": true,
          "name": "payee",
          "type": "address"
        },
        {
          "indexed": false,
          "name": "weiAmount",
          "type": "uint256"
        }
      ],
      "name": "Withdrawn",
      "type": "event"
    },
    {
      "constant": false,
      "inputs": [
        {
          "name": "p",
          "type": "address"
        }
      ],
      "name": "setPayee",
      "outputs": [],
      "payable": false,
      "stateMutability": "nonpayable",
      "type": "function"
    },
    {
      "constant": false,
      "inputs": [
        {
          "name": "hFile",
          "type": "bytes32"
        },
        {
          "name": "hEncryptedFile",
          "type": "string"
        },
        {
          "name": "key",
          "type": "string"
        },
        {
          "name": "name",
          "type": "string"
        }
      ],
      "name": "setFile",
      "outputs": [],
      "payable": true,
      "stateMutability": "payable",
      "type": "function"
    },
    {
      "constant": true,
      "inputs": [],
      "name": "getHashAddress",
      "outputs": [
        {
          "name": "",
          "type": "bytes32"
        }
      ],
      "payable": false,
      "stateMutability": "view",
      "type": "function"
    },
    {
      "constant": false,
      "inputs": [],
      "name": "depositFromBuyer",
      "outputs": [],
      "payable": true,
      "stateMutability": "payable",
      "type": "function"
    },
    {
      "constant": false,
      "inputs": [],
      "name": "depositFromSeller",
      "outputs": [],
      "payable": true,
      "stateMutability": "payable",
      "type": "function"
    },
    {
      "constant": true,
      "inputs": [
        {
          "name": "payee",
          "type": "address"
        }
      ],
      "name": "withdrawalAllowed",
      "outputs": [
        {
          "name": "",
          "type": "bool"
        }
      ],
      "payable": false,
      "stateMutability": "view",
      "type": "function"
    },
    {
      "constant": false,
      "inputs": [
        {
          "name": "payee",
          "type": "address"
        }
      ],
      "name": "withdraw",
      "outputs": [],
      "payable": false,
      "stateMutability": "nonpayable",
      "type": "function"
    },
    {
      "constant": false,
      "inputs": [
        {
          "name": "payee",
          "type": "address"
        }
      ],
      "name": "blockUser",
      "outputs": [],
      "payable": false,
      "stateMutability": "nonpayable",
      "type": "function"
    },
    {
      "constant": false,
      "inputs": [
        {
          "name": "payee",
          "type": "address"
        }
      ],
      "name": "refundBuyer",
      "outputs": [],
      "payable": false,
      "stateMutability": "nonpayable",
      "type": "function"
    }
  ],
  "bytecode": "0x608060405234801561001057600080fd5b50604051604080611afc8339810180604052810190808051906020019092919080519060200190929190505050336000806101000a81548173ffffffffffffffffffffffffffffffffffffffff021916908373ffffffffffffffffffffffffffffffffffffffff16021790555062015180420160098190555081600860006101000a81548173ffffffffffffffffffffffffffffffffffffffff021916908373ffffffffffffffffffffffffffffffffffffffff1602179055506000600b819055506000600c8190555033600260016101000a81548173ffffffffffffffffffffffffffffffffffffffff021916908373ffffffffffffffffffffffffffffffffffffffff1602179055508060038160001916905550600860009054906101000a900473ffffffffffffffffffffffffffffffffffffffff16600d60006101000a81548173ffffffffffffffffffffffffffffffffffffffff021916908373ffffffffffffffffffffffffffffffffffffffff1602179055506000600260006101000a81548160ff021916908360048111156101a857fe5b0217905550505061193e806101be6000396000f300608060405260043610610112576000357c0100000000000000000000000000000000000000000000000000000000900463ffffffff1680632348238c146101175780633da013251461015a578063410459ad1461019d57806341d3b12e146101e057806351cff8d9146102d65780635db53f8b146103195780635f71f31714610323578063685ca194146103665780637150d8ae146103c157806381ee132f14610418578063ae90b213146104a8578063c19d93fb146104ff578063c5995e9a14610538578063c6dbdf61146105c8578063c966cc8d1461061f578063d8e30a8714610629578063df0b52c81461065c578063e3a9db1a146106ec578063f340fa0114610743578063fa285e4c14610779575b600080fd5b34801561012357600080fd5b50610158600480360381019080803573ffffffffffffffffffffffffffffffffffffffff1690602001909291905050506107ac565b005b34801561016657600080fd5b5061019b600480360381019080803573ffffffffffffffffffffffffffffffffffffffff169060200190929190505050610886565b005b3480156101a957600080fd5b506101de600480360381019080803573ffffffffffffffffffffffffffffffffffffffff169060200190929190505050610a9d565b005b6102d46004803603810190808035600019169060200190929190803590602001908201803590602001908080601f0160208091040260200160405190810160405280939291908181526020018383808284378201915050505050509192919290803590602001908201803590602001908080601f0160208091040260200160405190810160405280939291908181526020018383808284378201915050505050509192919290803590602001908201803590602001908080601f0160208091040260200160405190810160405280939291908181526020018383808284378201915050505050509192919290505050610b3c565b005b3480156102e257600080fd5b50610317600480360381019080803573ffffffffffffffffffffffffffffffffffffffff169060200190929190505050610c27565b005b610321610d60565b005b34801561032f57600080fd5b50610364600480360381019080803573ffffffffffffffffffffffffffffffffffffffff169060200190929190505050610e0a565b005b34801561037257600080fd5b506103a7600480360381019080803573ffffffffffffffffffffffffffffffffffffffff169060200190929190505050610f9d565b604051808215151515815260200191505060405180910390f35b3480156103cd57600080fd5b506103d6611192565b604051808273ffffffffffffffffffffffffffffffffffffffff1673ffffffffffffffffffffffffffffffffffffffff16815260200191505060405180910390f35b34801561042457600080fd5b5061042d6111b8565b6040518080602001828103825283818151815260200191508051906020019080838360005b8381101561046d578082015181840152602081019050610452565b50505050905090810190601f16801561049a5780820380516001836020036101000a031916815260200191505b509250505060405180910390f35b3480156104b457600080fd5b506104bd611256565b604051808273ffffffffffffffffffffffffffffffffffffffff1673ffffffffffffffffffffffffffffffffffffffff16815260200191505060405180910390f35b34801561050b57600080fd5b5061051461127c565b6040518082600481111561052457fe5b60ff16815260200191505060405180910390f35b34801561054457600080fd5b5061054d61128f565b6040518080602001828103825283818151815260200191508051906020019080838360005b8381101561058d578082015181840152602081019050610572565b50505050905090810190601f1680156105ba5780820380516001836020036101000a031916815260200191505b509250505060405180910390f35b3480156105d457600080fd5b506105dd61132d565b604051808273ffffffffffffffffffffffffffffffffffffffff1673ffffffffffffffffffffffffffffffffffffffff16815260200191505060405180910390f35b610627611356565b005b34801561063557600080fd5b5061063e6113e1565b60405180826000191660001916815260200191505060405180910390f35b34801561066857600080fd5b506106716113e7565b6040518080602001828103825283818151815260200191508051906020019080838360005b838110156106b1578082015181840152602081019050610696565b50505050905090810190601f1680156106de5780820380516001836020036101000a031916815260200191505b509250505060405180910390f35b3480156106f857600080fd5b5061072d600480360381019080803573ffffffffffffffffffffffffffffffffffffffff169060200190929190505050611485565b6040518082815260200191505060405180910390f35b610777600480360381019080803573ffffffffffffffffffffffffffffffffffffffff1690602001909291905050506114ce565b005b34801561078557600080fd5b5061078e611615565b60405180826000191660001916815260200191505060405180910390f35b6000809054906101000a900473ffffffffffffffffffffffffffffffffffffffff1673ffffffffffffffffffffffffffffffffffffffff163373ffffffffffffffffffffffffffffffffffffffff1614151561080757600080fd5b600073ffffffffffffffffffffffffffffffffffffffff168173ffffffffffffffffffffffffffffffffffffffff161415151561084357600080fd5b806000806101000a81548173ffffffffffffffffffffffffffffffffffffffff021916908373ffffffffffffffffffffffffffffffffffffffff16021790555050565b6000809054906101000a900473ffffffffffffffffffffffffffffffffffffffff1673ffffffffffffffffffffffffffffffffffffffff163373ffffffffffffffffffffffffffffffffffffffff161415156108e157600080fd5b600d60009054906101000a900473ffffffffffffffffffffffffffffffffffffffff1673ffffffffffffffffffffffffffffffffffffffff16637cebadb1826003543073ffffffffffffffffffffffffffffffffffffffff1663c6dbdf616040518163ffffffff167c0100000000000000000000000000000000000000000000000000000000028152600401602060405180830381600087803b15801561098757600080fd5b505af115801561099b573d6000803e3d6000fd5b505050506040513d60208110156109b157600080fd5b81019080805190602001909291905050506040518463ffffffff167c0100000000000000000000000000000000000000000000000000000000028152600401808473ffffffffffffffffffffffffffffffffffffffff1673ffffffffffffffffffffffffffffffffffffffff16815260200183600019166000191681526020018273ffffffffffffffffffffffffffffffffffffffff1673ffffffffffffffffffffffffffffffffffffffff1681526020019350505050600060405180830381600087803b158015610a8257600080fd5b505af1158015610a96573d6000803e3d6000fd5b5050505050565b6000809054906101000a900473ffffffffffffffffffffffffffffffffffffffff1673ffffffffffffffffffffffffffffffffffffffff163373ffffffffffffffffffffffffffffffffffffffff16141515610af857600080fd5b80600a60006101000a81548173ffffffffffffffffffffffffffffffffffffffff021916908373ffffffffffffffffffffffffffffffffffffffff16021790555050565b6000600a60009054906101000a900473ffffffffffffffffffffffffffffffffffffffff1673ffffffffffffffffffffffffffffffffffffffff163373ffffffffffffffffffffffffffffffffffffffff16141515610b9a57600080fd5b8360069080519060200190610bb092919061186d565b508260059080519060200190610bc792919061186d565b508160079080519060200190610bde92919061186d565b50349050610bf781600e5461167a90919063ffffffff16565b600e8190555060028060006101000a81548160ff02191690836004811115610c1b57fe5b02179055505050505050565b6000809054906101000a900473ffffffffffffffffffffffffffffffffffffffff1673ffffffffffffffffffffffffffffffffffffffff163373ffffffffffffffffffffffffffffffffffffffff16141515610c8257600080fd5b610c8b81610f9d565b1515610c9657600080fd5b8073ffffffffffffffffffffffffffffffffffffffff166108fc600b549081150290604051600060405180830381858888f19350505050158015610cde573d6000803e3d6000fd5b503373ffffffffffffffffffffffffffffffffffffffff166108fc600c549081150290604051600060405180830381858888f19350505050158015610d27573d6000803e3d6000fd5b50610d3061169b565b610d39816116ad565b6004600260006101000a81548160ff02191690836004811115610d5857fe5b021790555050565b6000809054906101000a900473ffffffffffffffffffffffffffffffffffffffff1673ffffffffffffffffffffffffffffffffffffffff163373ffffffffffffffffffffffffffffffffffffffff16141515610dbb57600080fd5b6000600c54141515610dcc57600080fd5b610dd5336114ce565b610dde33611485565b600c819055506001600260006101000a81548160ff02191690836004811115610e0357fe5b0217905550565b6000809054906101000a900473ffffffffffffffffffffffffffffffffffffffff1673ffffffffffffffffffffffffffffffffffffffff163373ffffffffffffffffffffffffffffffffffffffff16141515610e6557600080fd5b610e6e81610f9d565b1515610f9a573373ffffffffffffffffffffffffffffffffffffffff166108fc600b549081150290604051600060405180830381858888f19350505050158015610ebc573d6000803e3d6000fd5b503373ffffffffffffffffffffffffffffffffffffffff166108fc600c549081150290604051600060405180830381858888f19350505050158015610f05573d6000803e3d6000fd5b50610f0e61169b565b3373ffffffffffffffffffffffffffffffffffffffff166108fc610f3183611485565b9081150290604051600060405180830381858888f19350505050158015610f5c573d6000803e3d6000fd5b506004600260006101000a81548160ff02191690836004811115610f7c57fe5b02179055503373ffffffffffffffffffffffffffffffffffffffff16ff5b50565b600080600d60009054906101000a900473ffffffffffffffffffffffffffffffffffffffff1673ffffffffffffffffffffffffffffffffffffffff166392ab73d96003543073ffffffffffffffffffffffffffffffffffffffff1663c6dbdf616040518163ffffffff167c0100000000000000000000000000000000000000000000000000000000028152600401602060405180830381600087803b15801561104557600080fd5b505af1158015611059573d6000803e3d6000fd5b505050506040513d602081101561106f57600080fd5b81019080805190602001909291905050506040518363ffffffff167c01000000000000000000000000000000000000000000000000000000000281526004018083600019166000191681526020018273ffffffffffffffffffffffffffffffffffffffff1673ffffffffffffffffffffffffffffffffffffffff16815260200192505050602060405180830381600087803b15801561110d57600080fd5b505af1158015611121573d6000803e3d6000fd5b505050506040513d602081101561113757600080fd5b810190808051906020019092919050505090503073ffffffffffffffffffffffffffffffffffffffff168173ffffffffffffffffffffffffffffffffffffffff161415611187576001915061118c565b600091505b50919050565b600260019054906101000a900473ffffffffffffffffffffffffffffffffffffffff1681565b60078054600181600116156101000203166002900480601f01602080910402602001604051908101604052809291908181526020018280546001816001161561010002031660029004801561124e5780601f106112235761010080835404028352916020019161124e565b820191906000526020600020905b81548152906001019060200180831161123157829003601f168201915b505050505081565b600a60009054906101000a900473ffffffffffffffffffffffffffffffffffffffff1681565b600260009054906101000a900460ff1681565b60068054600181600116156101000203166002900480601f0160208091040260200160405190810160405280929190818152602001828054600181600116156101000203166002900480156113255780601f106112fa57610100808354040283529160200191611325565b820191906000526020600020905b81548152906001019060200180831161130857829003601f168201915b505050505081565b60008060009054906101000a900473ffffffffffffffffffffffffffffffffffffffff16905090565b600a60009054906101000a900473ffffffffffffffffffffffffffffffffffffffff1673ffffffffffffffffffffffffffffffffffffffff163373ffffffffffffffffffffffffffffffffffffffff161415156113b257600080fd5b6113bb336114ce565b6001600260006101000a81548160ff021916908360048111156113da57fe5b0217905550565b60035481565b60058054600181600116156101000203166002900480601f01602080910402602001604051908101604052809291908181526020018280546001816001161561010002031660029004801561147d5780601f106114525761010080835404028352916020019161147d565b820191906000526020600020905b81548152906001019060200180831161146057829003601f168201915b505050505081565b6000600160008373ffffffffffffffffffffffffffffffffffffffff1673ffffffffffffffffffffffffffffffffffffffff168152602001908152602001600020549050919050565b60008060009054906101000a900473ffffffffffffffffffffffffffffffffffffffff1673ffffffffffffffffffffffffffffffffffffffff163373ffffffffffffffffffffffffffffffffffffffff1614151561152b57600080fd5b34905061158081600160008573ffffffffffffffffffffffffffffffffffffffff1673ffffffffffffffffffffffffffffffffffffffff1681526020019081526020016000205461167a90919063ffffffff16565b600160008473ffffffffffffffffffffffffffffffffffffffff1673ffffffffffffffffffffffffffffffffffffffff168152602001908152602001600020819055508173ffffffffffffffffffffffffffffffffffffffff167f2da466a7b24304f47e87fa2e1e5a81b9831ce54fec19055ce277ca2f39ba42c4826040518082815260200191505060405180910390a25050565b60008060009054906101000a900473ffffffffffffffffffffffffffffffffffffffff1673ffffffffffffffffffffffffffffffffffffffff163373ffffffffffffffffffffffffffffffffffffffff1614151561167257600080fd5b600454905090565b600080828401905083811015151561169157600080fd5b8091505092915050565b6000600b819055506000600c81905550565b6116b681610f9d565b15156116c157600080fd5b6116ca816116cd565b50565b60008060009054906101000a900473ffffffffffffffffffffffffffffffffffffffff1673ffffffffffffffffffffffffffffffffffffffff163373ffffffffffffffffffffffffffffffffffffffff1614151561172a57600080fd5b600160008373ffffffffffffffffffffffffffffffffffffffff1673ffffffffffffffffffffffffffffffffffffffff168152602001908152602001600020549050803073ffffffffffffffffffffffffffffffffffffffff16311015151561178f57fe5b6000600160008473ffffffffffffffffffffffffffffffffffffffff1673ffffffffffffffffffffffffffffffffffffffff168152602001908152602001600020819055508173ffffffffffffffffffffffffffffffffffffffff166108fc829081150290604051600060405180830381858888f1935050505015801561181a573d6000803e3d6000fd5b508173ffffffffffffffffffffffffffffffffffffffff167f7084f5476618d8e60b11ef0d7d3f06914655adb8793e28ff7f018d4c76d505d5826040518082815260200191505060405180910390a25050565b828054600181600116156101000203166002900490600052602060002090601f016020900481019282601f106118ae57805160ff19168380011785556118dc565b828001600101855582156118dc579182015b828111156118db5782518255916020019190600101906118c0565b5b5090506118e991906118ed565b5090565b61190f91905b8082111561190b5760008160009055506001016118f3565b5090565b905600a165627a7a7230582038d796d38e9776565b7f18c2c1a0f93292c082ba26564387217b8a697db7fcba0029",
  "source": "pragma solidity ^0.4.23;\r\n\r\nimport '../../node_modules/openzeppelin-solidity/contracts/payment/ConditionalEscrow.sol';\r\nimport './Market.sol';\r\n\r\ncontract MarketEscrow is ConditionalEscrow {\r\n\r\nenum State {Contratto_creato,In_attesa_del_venditore,Prodotto_disponibile,In_attesa_del_compratore,Operazione_conclusa}\r\nState public state;\r\n    \r\naddress public buyer;    \r\nbytes32 public hashFile;\r\nbytes32 private hashEncryptedFile; // DA VALUTARE\r\nstring public keyAddress;\r\nstring public addressEncryptedFile; \r\nstring public nameFile; \r\naddress private marketAddress; \r\nuint256 private expiration;\r\naddress public payee;\r\nuint256 private depositPayee;\r\nuint256 private depositBuyer;\r\nMarket private marketIstance;\r\n\r\nuint256 private _depositSeller;\r\n    \r\nconstructor(address addr,bytes32 hFile) public {\r\n    expiration = now + 86400;\r\n    marketAddress = addr;\r\n    depositPayee = 0;\r\n    depositBuyer = 0;\r\n    buyer = msg.sender;\r\n    hashFile = hFile;\r\n    marketIstance = Market(marketAddress);\r\n    state = State.Contratto_creato;\r\n    }    \r\n    \r\nfunction setPayee(address p) public onlyPrimary() {\r\n payee = p;\r\n}\r\n\r\nfunction setFile(bytes32 hFile, string hEncryptedFile, string key, string name) public payable onlyPayee()  {\r\n    //bytes32 hFile = marketIstance.convert(hFileString);\r\n    //bytes32 hEncryptedFile = marketIstance.convert(hEncryptedFileString);\r\n    /*require(hashFile == hFile);\r\n    addressEncryptedFile = hEncryptedFile;\r\n    keyAddress = key;\r\n    deposit(msg.sender);\r\n    state = State.Prodotto_disponibile;*/\r\n    //require(hashFile == hFile);\r\n    addressEncryptedFile = hEncryptedFile;\r\n    keyAddress = key;\r\n    nameFile = name;\r\n    uint256 amount = msg.value;\r\n    _depositSeller = _depositSeller.add(amount);\r\n    //deposit(msg.sender);\r\n    //depositPayee = msg.value;\r\n    state = State.Prodotto_disponibile;\r\n}\r\n\r\nfunction getHashAddress() public view onlyPrimary() returns(bytes32) {\r\n    return hashEncryptedFile;\r\n}\r\n\r\nfunction depositFromBuyer() public payable onlyPrimary() {\r\n    require(depositBuyer == 0);\r\n    deposit(msg.sender);\r\n    depositBuyer = depositsOf(msg.sender);\r\n    state = State.In_attesa_del_venditore;\r\n}\r\n\r\nfunction depositFromSeller() public payable onlyPayee() {\r\n    \r\n    deposit(msg.sender);\r\n    \r\n    state = State.In_attesa_del_venditore;\r\n}\r\n\r\nfunction withdrawalAllowed(address payee) public view returns (bool) {\r\n      \r\n        address h = marketIstance.getEscrowAddress(hashFile,this.primary());\r\n        //if(stringsEqual(hashFile,h)) return true;\r\n        if (h == address(this)) {           \r\n            return true;\r\n        }\r\n        else {          \r\n            return false;\r\n        }\r\n    }\r\n\r\nfunction withdraw(address payee) public onlyPrimary() {\r\n    require(withdrawalAllowed(payee));\r\n    payee.transfer(depositPayee);\r\n    msg.sender.transfer(depositBuyer);\r\n    resetDeposit();\r\n    super.withdraw(payee);\r\n    state = State.Operazione_conclusa;\r\n  }\r\n\r\nfunction blockUser(address payee) public onlyPrimary() {\r\n marketIstance.blockUser(payee,hashFile,this.primary());\r\n}\r\n\r\nfunction resetDeposit() private {\r\n    depositPayee = 0;\r\n    depositBuyer = 0;\r\n}\r\n\r\nfunction refundBuyer(address payee) public onlyPrimary() {\r\n    if (!withdrawalAllowed(payee)){\r\n        //this.primary().transfer(depositPayee);\r\n        msg.sender.transfer(depositPayee);\r\n        msg.sender.transfer(depositBuyer);\r\n        resetDeposit();\r\n        msg.sender.transfer(depositsOf(payee));\r\n        state = State.Operazione_conclusa;\r\n        selfdestruct(msg.sender);\r\n    }       \r\n}\r\n\r\nmodifier onlyPayee() {\r\n    require(msg.sender == payee);\r\n    _;\r\n  }\r\n\r\n\r\n}",
  "sourcePath": "C:\\Users\\Erasmo\\Desktop\\DMarket\\contract\\contracts\\MarketEscrow.sol",
  "compiler": {
    "name": "solc",
    "version": "0.4.24+commit.e67f0147.Emscripten.clang"
  },
  "schemaVersion": "2.0.1",
  "updatedAt": "2018-12-08T10:20:33.261Z"
}