{
  "contractName": "Market",
  "abi": [
    {
      "constant": true,
      "inputs": [],
      "name": "children",
      "outputs": [
        {
          "name": "",
          "type": "address"
        }
      ],
      "payable": false,
      "stateMutability": "view",
      "type": "function"
    },
    {
      "inputs": [],
      "payable": false,
      "stateMutability": "nonpayable",
      "type": "constructor"
    },
    {
      "constant": false,
      "inputs": [
        {
          "name": "userAddress",
          "type": "address"
        },
        {
          "name": "key",
          "type": "string"
        },
        {
          "name": "name",
          "type": "string"
        },
        {
          "name": "avatar",
          "type": "string"
        }
      ],
      "name": "addUser",
      "outputs": [],
      "payable": false,
      "stateMutability": "nonpayable",
      "type": "function"
    },
    {
      "constant": true,
      "inputs": [
        {
          "name": "userAddress",
          "type": "address"
        }
      ],
      "name": "getUser",
      "outputs": [
        {
          "name": "",
          "type": "string"
        },
        {
          "name": "",
          "type": "string"
        },
        {
          "name": "",
          "type": "string"
        },
        {
          "name": "",
          "type": "bool"
        },
        {
          "name": "",
          "type": "uint256"
        }
      ],
      "payable": false,
      "stateMutability": "view",
      "type": "function"
    },
    {
      "constant": false,
      "inputs": [
        {
          "name": "userAddress",
          "type": "address"
        },
        {
          "name": "index",
          "type": "uint256"
        }
      ],
      "name": "getUserProduct",
      "outputs": [
        {
          "name": "",
          "type": "bytes32"
        }
      ],
      "payable": false,
      "stateMutability": "nonpayable",
      "type": "function"
    },
    {
      "constant": true,
      "inputs": [],
      "name": "getOwner",
      "outputs": [
        {
          "name": "",
          "type": "address"
        }
      ],
      "payable": false,
      "stateMutability": "view",
      "type": "function"
    },
    {
      "constant": false,
      "inputs": [
        {
          "name": "user",
          "type": "address"
        },
        {
          "name": "product",
          "type": "bytes32"
        },
        {
          "name": "buyer",
          "type": "address"
        }
      ],
      "name": "blockUser",
      "outputs": [],
      "payable": false,
      "stateMutability": "nonpayable",
      "type": "function"
    },
    {
      "constant": false,
      "inputs": [
        {
          "name": "hashFile",
          "type": "bytes32"
        },
        {
          "name": "escrowAddress",
          "type": "address"
        }
      ],
      "name": "purchase",
      "outputs": [],
      "payable": false,
      "stateMutability": "nonpayable",
      "type": "function"
    },
    {
      "constant": false,
      "inputs": [
        {
          "name": "hashFile",
          "type": "bytes32"
        },
        {
          "name": "buyer",
          "type": "address"
        }
      ],
      "name": "getEscrowAddress",
      "outputs": [
        {
          "name": "",
          "type": "address"
        }
      ],
      "payable": false,
      "stateMutability": "nonpayable",
      "type": "function"
    },
    {
      "constant": false,
      "inputs": [
        {
          "name": "description",
          "type": "string"
        },
        {
          "name": "hashString",
          "type": "string"
        },
        {
          "name": "price",
          "type": "uint256"
        }
      ],
      "name": "addProduct",
      "outputs": [],
      "payable": false,
      "stateMutability": "nonpayable",
      "type": "function"
    },
    {
      "constant": false,
      "inputs": [
        {
          "name": "key",
          "type": "string"
        }
      ],
      "name": "convert",
      "outputs": [
        {
          "name": "ret",
          "type": "bytes32"
        }
      ],
      "payable": false,
      "stateMutability": "nonpayable",
      "type": "function"
    },
    {
      "constant": false,
      "inputs": [
        {
          "name": "hashString",
          "type": "string"
        }
      ],
      "name": "getProduct",
      "outputs": [
        {
          "name": "",
          "type": "string"
        },
        {
          "name": "",
          "type": "address"
        },
        {
          "name": "",
          "type": "uint256"
        },
        {
          "name": "",
          "type": "uint256"
        }
      ],
      "payable": false,
      "stateMutability": "nonpayable",
      "type": "function"
    },
    {
      "constant": false,
      "inputs": [
        {
          "name": "user",
          "type": "address"
        },
        {
          "name": "hashString",
          "type": "string"
        },
        {
          "name": "index",
          "type": "uint256"
        }
      ],
      "name": "deleteProduct",
      "outputs": [],
      "payable": false,
      "stateMutability": "nonpayable",
      "type": "function"
    },
    {
      "constant": false,
      "inputs": [
        {
          "name": "user",
          "type": "address"
        }
      ],
      "name": "unblockUser",
      "outputs": [],
      "payable": false,
      "stateMutability": "nonpayable",
      "type": "function"
    },
    {
      "constant": false,
      "inputs": [],
      "name": "kill",
      "outputs": [],
      "payable": false,
      "stateMutability": "nonpayable",
      "type": "function"
    }
  ],
  "bytecode": "0x608060405234801561001057600080fd5b50336000806101000a81548173ffffffffffffffffffffffffffffffffffffffff021916908373ffffffffffffffffffffffffffffffffffffffff1602179055506000600581905550611998806100686000396000f3006080604052600436106100d0576000357c0100000000000000000000000000000000000000000000000000000000900463ffffffff16806339d319e5146100d557806341c0e1b514610118578063631c6da91461012f57806368111cce146101985780636f77926b146102bb5780637cebadb114610461578063893d20e8146104d257806392ab73d914610529578063962a64cd146105ba578063c2bc80fd1461063f578063c55998a814610696578063c6361c2214610729578063e56422a21461083e578063f28ea1c11461088f575b600080fd5b3480156100e157600080fd5b50610116600480360381019080803573ffffffffffffffffffffffffffffffffffffffff169060200190929190505050610948565b005b34801561012457600080fd5b5061012d610a01565b005b34801561013b57600080fd5b5061017a600480360381019080803573ffffffffffffffffffffffffffffffffffffffff16906020019092919080359060200190929190505050610a75565b60405180826000191660001916815260200191505060405180910390f35b3480156101a457600080fd5b506101ff600480360381019080803590602001908201803590602001908080601f0160208091040260200160405190810160405280939291908181526020018383808284378201915050505050509192919290505050610ad9565b60405180806020018573ffffffffffffffffffffffffffffffffffffffff1673ffffffffffffffffffffffffffffffffffffffff168152602001848152602001838152602001828103825286818151815260200191508051906020019080838360005b8381101561027d578082015181840152602081019050610262565b50505050905090810190601f1680156102aa5780820380516001836020036101000a031916815260200191505b509550505050505060405180910390f35b3480156102c757600080fd5b506102fc600480360381019080803573ffffffffffffffffffffffffffffffffffffffff169060200190929190505050610c33565b6040518080602001806020018060200186151515158152602001858152602001848103845289818151815260200191508051906020019080838360005b83811015610354578082015181840152602081019050610339565b50505050905090810190601f1680156103815780820380516001836020036101000a031916815260200191505b50848103835288818151815260200191508051906020019080838360005b838110156103ba57808201518184015260208101905061039f565b50505050905090810190601f1680156103e75780820380516001836020036101000a031916815260200191505b50848103825287818151815260200191508051906020019080838360005b83811015610420578082015181840152602081019050610405565b50505050905090810190601f16801561044d5780820380516001836020036101000a031916815260200191505b509850505050505050505060405180910390f35b34801561046d57600080fd5b506104d0600480360381019080803573ffffffffffffffffffffffffffffffffffffffff1690602001909291908035600019169060200190929190803573ffffffffffffffffffffffffffffffffffffffff169060200190929190505050610f7b565b005b3480156104de57600080fd5b506104e761101f565b604051808273ffffffffffffffffffffffffffffffffffffffff1673ffffffffffffffffffffffffffffffffffffffff16815260200191505060405180910390f35b34801561053557600080fd5b506105786004803603810190808035600019169060200190929190803573ffffffffffffffffffffffffffffffffffffffff169060200190929190505050611048565b604051808273ffffffffffffffffffffffffffffffffffffffff1673ffffffffffffffffffffffffffffffffffffffff16815260200191505060405180910390f35b3480156105c657600080fd5b50610621600480360381019080803590602001908201803590602001908080601f01602080910402602001604051908101604052809392919081815260200183838082843782019150505050505091929192905050506110ce565b60405180826000191660001916815260200191505060405180910390f35b34801561064b57600080fd5b506106546110eb565b604051808273ffffffffffffffffffffffffffffffffffffffff1673ffffffffffffffffffffffffffffffffffffffff16815260200191505060405180910390f35b3480156106a257600080fd5b50610727600480360381019080803573ffffffffffffffffffffffffffffffffffffffff169060200190929190803590602001908201803590602001908080601f016020809104026020016040519081016040528093929190818152602001838380828437820191505050505050919291929080359060200190929190505050611111565b005b34801561073557600080fd5b5061083c600480360381019080803573ffffffffffffffffffffffffffffffffffffffff169060200190929190803590602001908201803590602001908080601f0160208091040260200160405190810160405280939291908181526020018383808284378201915050505050509192919290803590602001908201803590602001908080601f0160208091040260200160405190810160405280939291908181526020018383808284378201915050505050509192919290803590602001908201803590602001908080601f01602080910402602001604051908101604052809392919081815260200183838082843782019150505050505091929192905050506113b5565b005b34801561084a57600080fd5b5061088d6004803603810190808035600019169060200190929190803573ffffffffffffffffffffffffffffffffffffffff169060200190929190505050611563565b005b34801561089b57600080fd5b50610946600480360381019080803590602001908201803590602001908080601f0160208091040260200160405190810160405280939291908181526020018383808284378201915050505050509192919290803590602001908201803590602001908080601f016020809104026020016040519081016040528093929190818152602001838380828437820191505050505050919291929080359060200190929190505050611683565b005b6000809054906101000a900473ffffffffffffffffffffffffffffffffffffffff1673ffffffffffffffffffffffffffffffffffffffff163373ffffffffffffffffffffffffffffffffffffffff161415156109a357600080fd5b6000600260008373ffffffffffffffffffffffffffffffffffffffff1673ffffffffffffffffffffffffffffffffffffffff16815260200190815260200160002060050160006101000a81548160ff02191690831515021790555050565b6000809054906101000a900473ffffffffffffffffffffffffffffffffffffffff1673ffffffffffffffffffffffffffffffffffffffff163373ffffffffffffffffffffffffffffffffffffffff16141515610a5c57600080fd5b3373ffffffffffffffffffffffffffffffffffffffff16ff5b6000600260008473ffffffffffffffffffffffffffffffffffffffff1673ffffffffffffffffffffffffffffffffffffffff16815260200190815260200160002060030182815481101515610ac657fe5b9060005260206000200154905092915050565b6060600080600080610aea866110ce565b905060036000826000191660001916815260200190815260200160002060000160036000836000191660001916815260200190815260200160002060010160009054906101000a900473ffffffffffffffffffffffffffffffffffffffff166003600084600019166000191681526020019081526020016000206002015460036000856000191660001916815260200190815260200160002060050154838054600181600116156101000203166002900480601f016020809104026020016040519081016040528092919081815260200182805460018160011615610100020316600290048015610c1c5780601f10610bf157610100808354040283529160200191610c1c565b820191906000526020600020905b815481529060010190602001808311610bff57829003601f168201915b505050505093509450945094509450509193509193565b6060806060600080600260008773ffffffffffffffffffffffffffffffffffffffff1673ffffffffffffffffffffffffffffffffffffffff168152602001908152602001600020600001600260008873ffffffffffffffffffffffffffffffffffffffff1673ffffffffffffffffffffffffffffffffffffffff168152602001908152602001600020600101600260008973ffffffffffffffffffffffffffffffffffffffff1673ffffffffffffffffffffffffffffffffffffffff168152602001908152602001600020600201600260008a73ffffffffffffffffffffffffffffffffffffffff1673ffffffffffffffffffffffffffffffffffffffff16815260200190815260200160002060050160009054906101000a900460ff16600260008b73ffffffffffffffffffffffffffffffffffffffff1673ffffffffffffffffffffffffffffffffffffffff16815260200190815260200160002060040154848054600181600116156101000203166002900480601f016020809104026020016040519081016040528092919081815260200182805460018160011615610100020316600290048015610e295780601f10610dfe57610100808354040283529160200191610e29565b820191906000526020600020905b815481529060010190602001808311610e0c57829003601f168201915b50505050509450838054600181600116156101000203166002900480601f016020809104026020016040519081016040528092919081815260200182805460018160011615610100020316600290048015610ec55780601f10610e9a57610100808354040283529160200191610ec5565b820191906000526020600020905b815481529060010190602001808311610ea857829003601f168201915b50505050509350828054600181600116156101000203166002900480601f016020809104026020016040519081016040528092919081815260200182805460018160011615610100020316600290048015610f615780601f10610f3657610100808354040283529160200191610f61565b820191906000526020600020905b815481529060010190602001808311610f4457829003601f168201915b505050505092509450945094509450945091939590929450565b6000610f878383611048565b90508073ffffffffffffffffffffffffffffffffffffffff163373ffffffffffffffffffffffffffffffffffffffff161415611019576001600260008673ffffffffffffffffffffffffffffffffffffffff1673ffffffffffffffffffffffffffffffffffffffff16815260200190815260200160002060050160006101000a81548160ff0219169083151502179055505b50505050565b60008060009054906101000a900473ffffffffffffffffffffffffffffffffffffffff16905090565b600060036000846000191660001916815260200190815260200160002060030160008373ffffffffffffffffffffffffffffffffffffffff1673ffffffffffffffffffffffffffffffffffffffff16815260200190815260200160002060009054906101000a900473ffffffffffffffffffffffffffffffffffffffff16905092915050565b60006020825111156110df57600080fd5b60208201519050919050565b600160009054906101000a900473ffffffffffffffffffffffffffffffffffffffff1681565b60008061111d846110ce565b91508290505b6001600260008773ffffffffffffffffffffffffffffffffffffffff1673ffffffffffffffffffffffffffffffffffffffff168152602001908152602001600020600301805490500381101561123e57600260008673ffffffffffffffffffffffffffffffffffffffff1673ffffffffffffffffffffffffffffffffffffffff168152602001908152602001600020600301600182018154811015156111c557fe5b9060005260206000200154600260008773ffffffffffffffffffffffffffffffffffffffff1673ffffffffffffffffffffffffffffffffffffffff1681526020019081526020016000206003018281548110151561121f57fe5b9060005260206000200181600019169055508080600101915050611123565b600260008673ffffffffffffffffffffffffffffffffffffffff1673ffffffffffffffffffffffffffffffffffffffff1681526020019081526020016000206003016001600260008873ffffffffffffffffffffffffffffffffffffffff1673ffffffffffffffffffffffffffffffffffffffff16815260200190815260200160002060030180549050038154811015156112d557fe5b9060005260206000200160009055600260008673ffffffffffffffffffffffffffffffffffffffff1673ffffffffffffffffffffffffffffffffffffffff168152602001908152602001600020600301805480919060019003611338919061180d565b50600360008360001916600019168152602001908152602001600020600080820160006113659190611839565b6001820160006101000a81549073ffffffffffffffffffffffffffffffffffffffff021916905560028201600090556004820160006113a49190611881565b600582016000905550505050505050565b82600260008673ffffffffffffffffffffffffffffffffffffffff1673ffffffffffffffffffffffffffffffffffffffff168152602001908152602001600020600001908051906020019061140b9291906118a2565b5081600260008673ffffffffffffffffffffffffffffffffffffffff1673ffffffffffffffffffffffffffffffffffffffff16815260200190815260200160002060010190805190602001906114629291906118a2565b5080600260008673ffffffffffffffffffffffffffffffffffffffff1673ffffffffffffffffffffffffffffffffffffffff16815260200190815260200160002060020190805190602001906114b99291906118a2565b506000600260008673ffffffffffffffffffffffffffffffffffffffff1673ffffffffffffffffffffffffffffffffffffffff16815260200190815260200160002060050160006101000a81548160ff0219169083151502179055506000600260008673ffffffffffffffffffffffffffffffffffffffff1673ffffffffffffffffffffffffffffffffffffffff1681526020019081526020016000206004018190555050505050565b8060036000846000191660001916815260200190815260200160002060030160003373ffffffffffffffffffffffffffffffffffffffff1673ffffffffffffffffffffffffffffffffffffffff16815260200190815260200160002060006101000a81548173ffffffffffffffffffffffffffffffffffffffff021916908373ffffffffffffffffffffffffffffffffffffffff1602179055506003600083600019166000191681526020019081526020016000206004013390806001815401808255809150509060018203906000526020600020016000909192909190916101000a81548173ffffffffffffffffffffffffffffffffffffffff021916908373ffffffffffffffffffffffffffffffffffffffff160217905550505050565b600061168e836110ce565b90508360036000836000191660001916815260200190815260200160002060000190805190602001906116c29291906118a2565b503360036000836000191660001916815260200190815260200160002060010160006101000a81548173ffffffffffffffffffffffffffffffffffffffff021916908373ffffffffffffffffffffffffffffffffffffffff1602179055508160036000836000191660001916815260200190815260200160002060020181905550600260003373ffffffffffffffffffffffffffffffffffffffff1673ffffffffffffffffffffffffffffffffffffffff16815260200190815260200160002060040160008154809291906001019190505550600260003373ffffffffffffffffffffffffffffffffffffffff1673ffffffffffffffffffffffffffffffffffffffff16815260200190815260200160002060030181908060018154018082558091505090600182039060005260206000200160009091929091909150906000191690555050505050565b815481835581811115611834578183600052602060002091820191016118339190611922565b5b505050565b50805460018160011615610100020316600290046000825580601f1061185f575061187e565b601f01602090049060005260206000209081019061187d9190611947565b5b50565b508054600082559060005260206000209081019061189f9190611947565b50565b828054600181600116156101000203166002900490600052602060002090601f016020900481019282601f106118e357805160ff1916838001178555611911565b82800160010185558215611911579182015b828111156119105782518255916020019190600101906118f5565b5b50905061191e9190611947565b5090565b61194491905b80821115611940576000816000905550600101611928565b5090565b90565b61196991905b8082111561196557600081600090555060010161194d565b5090565b905600a165627a7a7230582090cee8eb2462d79ff0047ea12e35caede563d25b94d7cde11e079b3e3121884c0029",
  "source": "pragma solidity ^0.4.23;\r\n\r\ncontract Market {\r\n\r\naddress private owner;\r\n\r\naddress public children;\r\n\r\nconstructor() {\r\n  owner = msg.sender;\r\n  productsCount = 0;\r\n}\r\n\r\n\r\nstruct user {\r\n  string publicKey;\r\n  string name;\r\n  string avatar;\r\n  bytes32[] products;\r\n  uint256 productsLenght;\r\n  bool blocked;\r\n}\r\n\r\nmapping (address => user) private users;\r\n\r\nfunction addUser(address userAddress, string key, string name, string avatar) public {\r\n  users[userAddress].publicKey = key;\r\n  users[userAddress].name = name;\r\n  users[userAddress].avatar = avatar;\r\n  users[userAddress].blocked = false;\r\n  users[userAddress].productsLenght = 0;  \r\n}\r\n\r\n\r\nfunction getUser(address userAddress) public view returns (string,string,string,bool,uint256) {\r\n  return (users[userAddress].publicKey,users[userAddress].name,users[userAddress].avatar,users[userAddress].blocked,users[userAddress].productsLenght);\r\n}\r\n\r\n\r\n\r\nfunction getUserProduct(address userAddress, uint256 index) returns(bytes32) {\r\n  return users[userAddress].products[index];\r\n}\r\n\r\nfunction getOwner() public view returns (address) {\r\n  return owner;\r\n}\r\n\r\nfunction blockUser(address user, bytes32 product, address buyer) public {\r\n  var requesterAddress = getEscrowAddress(product,buyer);\r\n  if (msg.sender == requesterAddress) {\r\n    users[user].blocked = true;\r\n  }\r\n}\r\n\r\nstruct product {\r\n  string description;\r\n  address seller;\r\n  uint256 price;\r\n  mapping (address => address) purchase;\r\n  address[] purchaseLUT;\r\n  uint256 purchaseLUTLenght;\r\n}\r\n\r\nmapping (bytes32 => product) private products;\r\nmapping (uint => bytes32) productsIndex; //doSomeStuff(accountBalances[accountIndex[i]]);\r\nuint productsCount;\r\n\r\nfunction purchase(bytes32 hashFile, address escrowAddress) {\r\n  products[hashFile].purchase[msg.sender] = escrowAddress;\r\n  products[hashFile].purchaseLUT.push(msg.sender);\r\n}\r\n\r\nfunction getEscrowAddress(bytes32 hashFile, address buyer) returns(address) {\r\n  return products[hashFile].purchase[buyer];\r\n}\r\n\r\n/*function existProduct(string hashFile) public view returns (bool){\r\n  if (products[hashFile].description == \"\") return false;\r\n  else return true;\r\n}*/\r\n\r\n\r\nfunction addProduct(string description, string hashString, uint256 price) public /*payable*/ {\r\n  bytes32 hashProduct = convert(hashString);\r\n  products[hashProduct].description = description;\r\n  products[hashProduct].seller = msg.sender;\r\n  products[hashProduct].price = price;\r\n  users[msg.sender].productsLenght++;\r\n  users[msg.sender].products.push(hashProduct);\r\n}\r\n\r\nfunction convert(string key) returns (bytes32 ret) {\r\n    if (bytes(key).length > 32) {\r\n      throw;\r\n    }\r\n\r\n    assembly {\r\n      ret := mload(add(key, 32))\r\n    }\r\n  }\r\n\r\nfunction getProduct(string hashString) public returns(string,address,uint256,uint256) {\r\n  bytes32 hashProduct = convert(hashString);\r\n  return (products[hashProduct].description,products[hashProduct].seller,products[hashProduct].price,products[hashProduct].purchaseLUTLenght);\r\n}\r\n\r\nfunction deleteProduct(address user, string hashString, uint256 index) public {\r\n  bytes32 hashProduct = convert(hashString);\r\n  for (uint i = index; i<users[user].products.length-1; i++){\r\n      users[user].products[i] = users[user].products[i+1];\r\n  }\r\n  delete users[user].products[users[user].products.length-1];\r\n  users[user].products.length--;\r\n  delete products[hashProduct];\r\n}\r\n\r\n//function deposit(address payee) public payable\r\n\r\nfunction unblockUser (address user) restricted public {\r\n  users[user].blocked = false;\r\n}\r\n\r\n  \r\nfunction kill() restricted public {\r\n    selfdestruct(msg.sender);\r\n  }\r\n\r\nmodifier restricted() {\r\n    require(msg.sender == owner);\r\n    _;\r\n  }\r\n}\r\n",
  "sourcePath": "C:\\Users\\esolazzo\\Desktop\\client\\contract\\contracts\\Market.sol",
  "compiler": {
    "name": "solc",
    "version": "0.4.24+commit.e67f0147.Emscripten.clang"
  },
  "schemaVersion": "2.0.1",
  "updatedAt": "2018-10-30T11:36:41.536Z"
}