{
  "contractName": "MarketEscrow",
  "abi": [
    {
      "constant": false,
      "inputs": [
        {
          "name": "recipient",
          "type": "address"
        }
      ],
      "name": "transferPrimary",
      "outputs": [],
      "payable": false,
      "stateMutability": "nonpayable",
      "type": "function"
    },
    {
      "constant": true,
      "inputs": [],
      "name": "primary",
      "outputs": [
        {
          "name": "",
          "type": "address"
        }
      ],
      "payable": false,
      "stateMutability": "view",
      "type": "function"
    },
    {
      "constant": true,
      "inputs": [
        {
          "name": "payee",
          "type": "address"
        }
      ],
      "name": "depositsOf",
      "outputs": [
        {
          "name": "",
          "type": "uint256"
        }
      ],
      "payable": false,
      "stateMutability": "view",
      "type": "function"
    },
    {
      "constant": false,
      "inputs": [
        {
          "name": "payee",
          "type": "address"
        }
      ],
      "name": "deposit",
      "outputs": [],
      "payable": true,
      "stateMutability": "payable",
      "type": "function"
    },
    {
      "inputs": [
        {
          "name": "addr",
          "type": "address"
        }
      ],
      "payable": false,
      "stateMutability": "nonpayable",
      "type": "constructor"
    },
    {
      "anonymous": false,
      "inputs": [
        {
          "indexed": true,
          "name": "payee",
          "type": "address"
        },
        {
          "indexed": false,
          "name": "weiAmount",
          "type": "uint256"
        }
      ],
      "name": "Deposited",
      "type": "event"
    },
    {
      "anonymous": false,
      "inputs": [
        {
          "indexed": true,
          "name": "payee",
          "type": "address"
        },
        {
          "indexed": false,
          "name": "weiAmount",
          "type": "uint256"
        }
      ],
      "name": "Withdrawn",
      "type": "event"
    },
    {
      "constant": false,
      "inputs": [
        {
          "name": "p",
          "type": "address"
        }
      ],
      "name": "setPayee",
      "outputs": [],
      "payable": false,
      "stateMutability": "nonpayable",
      "type": "function"
    },
    {
      "constant": false,
      "inputs": [
        {
          "name": "hFileString",
          "type": "string"
        },
        {
          "name": "hEncryptedFileString",
          "type": "string"
        }
      ],
      "name": "setFile",
      "outputs": [],
      "payable": true,
      "stateMutability": "payable",
      "type": "function"
    },
    {
      "constant": true,
      "inputs": [],
      "name": "getHashAddress",
      "outputs": [
        {
          "name": "",
          "type": "bytes32"
        }
      ],
      "payable": false,
      "stateMutability": "view",
      "type": "function"
    },
    {
      "constant": false,
      "inputs": [],
      "name": "depositFromBuyer",
      "outputs": [],
      "payable": true,
      "stateMutability": "payable",
      "type": "function"
    },
    {
      "constant": true,
      "inputs": [
        {
          "name": "payee",
          "type": "address"
        }
      ],
      "name": "withdrawalAllowed",
      "outputs": [
        {
          "name": "",
          "type": "bool"
        }
      ],
      "payable": false,
      "stateMutability": "view",
      "type": "function"
    },
    {
      "constant": false,
      "inputs": [
        {
          "name": "payee",
          "type": "address"
        }
      ],
      "name": "withdraw",
      "outputs": [],
      "payable": false,
      "stateMutability": "nonpayable",
      "type": "function"
    },
    {
      "constant": false,
      "inputs": [
        {
          "name": "payee",
          "type": "address"
        }
      ],
      "name": "blockUser",
      "outputs": [],
      "payable": false,
      "stateMutability": "nonpayable",
      "type": "function"
    },
    {
      "constant": false,
      "inputs": [
        {
          "name": "payee",
          "type": "address"
        }
      ],
      "name": "refundBuyer",
      "outputs": [],
      "payable": false,
      "stateMutability": "nonpayable",
      "type": "function"
    }
  ],
  "bytecode": "0x608060405234801561001057600080fd5b5060405160208061152383398101806040528101908080519060200190929190505050336000806101000a81548173ffffffffffffffffffffffffffffffffffffffff021916908373ffffffffffffffffffffffffffffffffffffffff16021790555062015180420160058190555080600460006101000a81548173ffffffffffffffffffffffffffffffffffffffff021916908373ffffffffffffffffffffffffffffffffffffffff16021790555060006007819055506000600881905550600460009054906101000a900473ffffffffffffffffffffffffffffffffffffffff16600960006101000a81548173ffffffffffffffffffffffffffffffffffffffff021916908373ffffffffffffffffffffffffffffffffffffffff160217905550506113e0806101436000396000f3006080604052600436106100ba576000357c0100000000000000000000000000000000000000000000000000000000900463ffffffff1680632348238c146100bf5780633da0132514610102578063410459ad1461014557806351cff8d9146101885780635db53f8b146101cb5780635f71f317146101d5578063685ca19414610218578063a1478ed014610273578063c6dbdf6114610315578063e3a9db1a1461036c578063f340fa01146103c3578063fa285e4c146103f9575b600080fd5b3480156100cb57600080fd5b50610100600480360381019080803573ffffffffffffffffffffffffffffffffffffffff16906020019092919050505061042c565b005b34801561010e57600080fd5b50610143600480360381019080803573ffffffffffffffffffffffffffffffffffffffff169060200190929190505050610506565b005b34801561015157600080fd5b50610186600480360381019080803573ffffffffffffffffffffffffffffffffffffffff16906020019092919050505061071d565b005b34801561019457600080fd5b506101c9600480360381019080803573ffffffffffffffffffffffffffffffffffffffff1690602001909291905050506107bc565b005b6101d36108d1565b005b3480156101e157600080fd5b50610216600480360381019080803573ffffffffffffffffffffffffffffffffffffffff169060200190929190505050610946565b005b34801561022457600080fd5b50610259600480360381019080803573ffffffffffffffffffffffffffffffffffffffff169060200190929190505050610ab5565b604051808215151515815260200191505060405180910390f35b610313600480360381019080803590602001908201803590602001908080601f0160208091040260200160405190810160405280939291908181526020018383808284378201915050505050509192919290803590602001908201803590602001908080601f0160208091040260200160405190810160405280939291908181526020018383808284378201915050505050509192919290505050610caa565b005b34801561032157600080fd5b5061032a610fa3565b604051808273ffffffffffffffffffffffffffffffffffffffff1673ffffffffffffffffffffffffffffffffffffffff16815260200191505060405180910390f35b34801561037857600080fd5b506103ad600480360381019080803573ffffffffffffffffffffffffffffffffffffffff169060200190929190505050610fcc565b6040518082815260200191505060405180910390f35b6103f7600480360381019080803573ffffffffffffffffffffffffffffffffffffffff169060200190929190505050611015565b005b34801561040557600080fd5b5061040e61115c565b60405180826000191660001916815260200191505060405180910390f35b6000809054906101000a900473ffffffffffffffffffffffffffffffffffffffff1673ffffffffffffffffffffffffffffffffffffffff163373ffffffffffffffffffffffffffffffffffffffff1614151561048757600080fd5b600073ffffffffffffffffffffffffffffffffffffffff168173ffffffffffffffffffffffffffffffffffffffff16141515156104c357600080fd5b806000806101000a81548173ffffffffffffffffffffffffffffffffffffffff021916908373ffffffffffffffffffffffffffffffffffffffff16021790555050565b6000809054906101000a900473ffffffffffffffffffffffffffffffffffffffff1673ffffffffffffffffffffffffffffffffffffffff163373ffffffffffffffffffffffffffffffffffffffff1614151561056157600080fd5b600960009054906101000a900473ffffffffffffffffffffffffffffffffffffffff1673ffffffffffffffffffffffffffffffffffffffff16637cebadb1826002543073ffffffffffffffffffffffffffffffffffffffff1663c6dbdf616040518163ffffffff167c0100000000000000000000000000000000000000000000000000000000028152600401602060405180830381600087803b15801561060757600080fd5b505af115801561061b573d6000803e3d6000fd5b505050506040513d602081101561063157600080fd5b81019080805190602001909291905050506040518463ffffffff167c0100000000000000000000000000000000000000000000000000000000028152600401808473ffffffffffffffffffffffffffffffffffffffff1673ffffffffffffffffffffffffffffffffffffffff16815260200183600019166000191681526020018273ffffffffffffffffffffffffffffffffffffffff1673ffffffffffffffffffffffffffffffffffffffff1681526020019350505050600060405180830381600087803b15801561070257600080fd5b505af1158015610716573d6000803e3d6000fd5b5050505050565b6000809054906101000a900473ffffffffffffffffffffffffffffffffffffffff1673ffffffffffffffffffffffffffffffffffffffff163373ffffffffffffffffffffffffffffffffffffffff1614151561077857600080fd5b80600660006101000a81548173ffffffffffffffffffffffffffffffffffffffff021916908373ffffffffffffffffffffffffffffffffffffffff16021790555050565b6000809054906101000a900473ffffffffffffffffffffffffffffffffffffffff1673ffffffffffffffffffffffffffffffffffffffff163373ffffffffffffffffffffffffffffffffffffffff1614151561081757600080fd5b61082081610ab5565b151561082b57600080fd5b8073ffffffffffffffffffffffffffffffffffffffff166108fc6007549081150290604051600060405180830381858888f19350505050158015610873573d6000803e3d6000fd5b503373ffffffffffffffffffffffffffffffffffffffff166108fc6008549081150290604051600060405180830381858888f193505050501580156108bc573d6000803e3d6000fd5b506108c56111c1565b6108ce816111d3565b50565b6000809054906101000a900473ffffffffffffffffffffffffffffffffffffffff1673ffffffffffffffffffffffffffffffffffffffff163373ffffffffffffffffffffffffffffffffffffffff1614151561092c57600080fd5b600060085414151561093d57600080fd5b34600881905550565b6000809054906101000a900473ffffffffffffffffffffffffffffffffffffffff1673ffffffffffffffffffffffffffffffffffffffff163373ffffffffffffffffffffffffffffffffffffffff161415156109a157600080fd5b6109aa81610ab5565b1515610ab2573373ffffffffffffffffffffffffffffffffffffffff166108fc6007549081150290604051600060405180830381858888f193505050501580156109f8573d6000803e3d6000fd5b503373ffffffffffffffffffffffffffffffffffffffff166108fc6008549081150290604051600060405180830381858888f19350505050158015610a41573d6000803e3d6000fd5b50610a4a6111c1565b3373ffffffffffffffffffffffffffffffffffffffff166108fc610a6d83610fcc565b9081150290604051600060405180830381858888f19350505050158015610a98573d6000803e3d6000fd5b503373ffffffffffffffffffffffffffffffffffffffff16ff5b50565b600080600960009054906101000a900473ffffffffffffffffffffffffffffffffffffffff1673ffffffffffffffffffffffffffffffffffffffff166392ab73d96002543073ffffffffffffffffffffffffffffffffffffffff1663c6dbdf616040518163ffffffff167c0100000000000000000000000000000000000000000000000000000000028152600401602060405180830381600087803b158015610b5d57600080fd5b505af1158015610b71573d6000803e3d6000fd5b505050506040513d6020811015610b8757600080fd5b81019080805190602001909291905050506040518363ffffffff167c01000000000000000000000000000000000000000000000000000000000281526004018083600019166000191681526020018273ffffffffffffffffffffffffffffffffffffffff1673ffffffffffffffffffffffffffffffffffffffff16815260200192505050602060405180830381600087803b158015610c2557600080fd5b505af1158015610c39573d6000803e3d6000fd5b505050506040513d6020811015610c4f57600080fd5b810190808051906020019092919050505090503073ffffffffffffffffffffffffffffffffffffffff168173ffffffffffffffffffffffffffffffffffffffff161415610c9f5760019150610ca4565b600091505b50919050565b600080600660009054906101000a900473ffffffffffffffffffffffffffffffffffffffff1673ffffffffffffffffffffffffffffffffffffffff163373ffffffffffffffffffffffffffffffffffffffff16141515610d0957600080fd5b600960009054906101000a900473ffffffffffffffffffffffffffffffffffffffff1673ffffffffffffffffffffffffffffffffffffffff1663962a64cd856040518263ffffffff167c01000000000000000000000000000000000000000000000000000000000281526004018080602001828103825283818151815260200191508051906020019080838360005b83811015610db3578082015181840152602081019050610d98565b50505050905090810190601f168015610de05780820380516001836020036101000a031916815260200191505b5092505050602060405180830381600087803b158015610dff57600080fd5b505af1158015610e13573d6000803e3d6000fd5b505050506040513d6020811015610e2957600080fd5b81019080805190602001909291905050509150600960009054906101000a900473ffffffffffffffffffffffffffffffffffffffff1673ffffffffffffffffffffffffffffffffffffffff1663962a64cd846040518263ffffffff167c01000000000000000000000000000000000000000000000000000000000281526004018080602001828103825283818151815260200191508051906020019080838360005b83811015610ee6578082015181840152602081019050610ecb565b50505050905090810190601f168015610f135780820380516001836020036101000a031916815260200191505b5092505050602060405180830381600087803b158015610f3257600080fd5b505af1158015610f46573d6000803e3d6000fd5b505050506040513d6020811015610f5c57600080fd5b810190808051906020019092919050505090506000600754141515610f8057600080fd5b816002816000191690555080600381600019169055503460078190555050505050565b60008060009054906101000a900473ffffffffffffffffffffffffffffffffffffffff16905090565b6000600160008373ffffffffffffffffffffffffffffffffffffffff1673ffffffffffffffffffffffffffffffffffffffff168152602001908152602001600020549050919050565b60008060009054906101000a900473ffffffffffffffffffffffffffffffffffffffff1673ffffffffffffffffffffffffffffffffffffffff163373ffffffffffffffffffffffffffffffffffffffff1614151561107257600080fd5b3490506110c781600160008573ffffffffffffffffffffffffffffffffffffffff1673ffffffffffffffffffffffffffffffffffffffff168152602001908152602001600020546111f390919063ffffffff16565b600160008473ffffffffffffffffffffffffffffffffffffffff1673ffffffffffffffffffffffffffffffffffffffff168152602001908152602001600020819055508173ffffffffffffffffffffffffffffffffffffffff167f2da466a7b24304f47e87fa2e1e5a81b9831ce54fec19055ce277ca2f39ba42c4826040518082815260200191505060405180910390a25050565b60008060009054906101000a900473ffffffffffffffffffffffffffffffffffffffff1673ffffffffffffffffffffffffffffffffffffffff163373ffffffffffffffffffffffffffffffffffffffff161415156111b957600080fd5b600354905090565b60006007819055506000600881905550565b6111dc81610ab5565b15156111e757600080fd5b6111f081611214565b50565b600080828401905083811015151561120a57600080fd5b8091505092915050565b60008060009054906101000a900473ffffffffffffffffffffffffffffffffffffffff1673ffffffffffffffffffffffffffffffffffffffff163373ffffffffffffffffffffffffffffffffffffffff1614151561127157600080fd5b600160008373ffffffffffffffffffffffffffffffffffffffff1673ffffffffffffffffffffffffffffffffffffffff168152602001908152602001600020549050803073ffffffffffffffffffffffffffffffffffffffff1631101515156112d657fe5b6000600160008473ffffffffffffffffffffffffffffffffffffffff1673ffffffffffffffffffffffffffffffffffffffff168152602001908152602001600020819055508173ffffffffffffffffffffffffffffffffffffffff166108fc829081150290604051600060405180830381858888f19350505050158015611361573d6000803e3d6000fd5b508173ffffffffffffffffffffffffffffffffffffffff167f7084f5476618d8e60b11ef0d7d3f06914655adb8793e28ff7f018d4c76d505d5826040518082815260200191505060405180910390a250505600a165627a7a723058206b28d1607158cc309c27630ebf600cab3373ccf584d5d9ae5eff756d2b33915c0029",
  "source": "pragma solidity ^0.4.23;\r\n\r\nimport '../../node_modules/openzeppelin-solidity/contracts/payment/ConditionalEscrow.sol';\r\nimport './Market.sol';\r\n\r\ncontract MarketEscrow is ConditionalEscrow {\r\n    \r\nbytes32 private hashFile;\r\nbytes32 private hashEncryptedFile;\r\naddress private marketAddress; \r\nuint256 private expiration;\r\naddress private payee;\r\nuint256 private depositPayee;\r\nuint256 private depositBuyer;\r\nMarket private marketIstance;\r\n    \r\nconstructor(address addr) public {\r\n    expiration = now + 86400;\r\n    marketAddress = addr;\r\n    depositPayee = 0;\r\n    depositBuyer = 0;\r\n    marketIstance = Market(marketAddress);\r\n    }    \r\n    \r\nfunction setPayee(address p) public onlyPrimary() {\r\n payee = p;\r\n}\r\n\r\nfunction setFile(string hFileString, string hEncryptedFileString) public onlyPayee() payable {\r\n    bytes32 hFile = marketIstance.convert(hFileString);\r\n    bytes32 hEncryptedFile = marketIstance.convert(hEncryptedFileString);\r\n    require(depositPayee == 0);\r\n    hashFile = hFile;\r\n    hashEncryptedFile = hEncryptedFile;\r\n    depositPayee = msg.value;\r\n}\r\n\r\nfunction getHashAddress() public view onlyPrimary() returns(bytes32) {\r\n    return hashEncryptedFile;\r\n}\r\n\r\nfunction depositFromBuyer() public payable onlyPrimary() {\r\n    require(depositBuyer == 0);\r\n    depositBuyer = msg.value;\r\n}\r\n\r\nfunction withdrawalAllowed(address payee) public view returns (bool) {\r\n\r\n        \r\n        \r\n        address h = marketIstance.getEscrowAddress(hashFile,this.primary());\r\n        //if(stringsEqual(hashFile,h)) return true;\r\n        if (h == address(this)) {           \r\n            return true;\r\n        }\r\n        else {          \r\n            return false;\r\n        }\r\n    }\r\n\r\nfunction withdraw(address payee) public onlyPrimary() {\r\n    require(withdrawalAllowed(payee));\r\n    payee.transfer(depositPayee);\r\n    msg.sender.transfer(depositBuyer);\r\n    resetDeposit();\r\n    super.withdraw(payee);\r\n  }\r\n\r\nfunction blockUser(address payee) public onlyPrimary() {\r\n marketIstance.blockUser(payee,hashFile,this.primary());\r\n}\r\n\r\nfunction resetDeposit() private {\r\n    depositPayee = 0;\r\n    depositBuyer = 0;\r\n}\r\n\r\nfunction refundBuyer(address payee) public onlyPrimary() {\r\n    if (!withdrawalAllowed(payee)){\r\n        //this.primary().transfer(depositPayee);\r\n        msg.sender.transfer(depositPayee);\r\n        msg.sender.transfer(depositBuyer);\r\n        resetDeposit();\r\n        msg.sender.transfer(depositsOf(payee));\r\n        selfdestruct(msg.sender);\r\n    }       \r\n}\r\n\r\nmodifier onlyPayee() {\r\n    require(msg.sender == payee);\r\n    _;\r\n  }\r\n\r\n\r\n}",
  "sourcePath": "C:\\Users\\esolazzo\\Desktop\\client\\contract\\contracts\\MarketEscrow.sol",
  "compiler": {
    "name": "solc",
    "version": "0.4.24+commit.e67f0147.Emscripten.clang"
  },
  "schemaVersion": "2.0.1",
  "updatedAt": "2018-10-30T11:36:07.369Z"
}