{
  "contractName": "Market",
  "abi": [
    {
      "constant": true,
      "inputs": [],
      "name": "children",
      "outputs": [
        {
          "name": "",
          "type": "address"
        }
      ],
      "payable": false,
      "stateMutability": "view",
      "type": "function"
    },
    {
      "inputs": [],
      "payable": false,
      "stateMutability": "nonpayable",
      "type": "constructor"
    },
    {
      "constant": false,
      "inputs": [
        {
          "name": "userAddress",
          "type": "address"
        },
        {
          "name": "key",
          "type": "string"
        }
      ],
      "name": "addUser",
      "outputs": [],
      "payable": false,
      "stateMutability": "nonpayable",
      "type": "function"
    },
    {
      "constant": true,
      "inputs": [
        {
          "name": "userAddress",
          "type": "address"
        }
      ],
      "name": "getUserPublicKey",
      "outputs": [
        {
          "name": "",
          "type": "string"
        }
      ],
      "payable": false,
      "stateMutability": "view",
      "type": "function"
    },
    {
      "constant": true,
      "inputs": [],
      "name": "getOwner",
      "outputs": [
        {
          "name": "",
          "type": "address"
        }
      ],
      "payable": false,
      "stateMutability": "view",
      "type": "function"
    },
    {
      "constant": false,
      "inputs": [
        {
          "name": "hashFile",
          "type": "string"
        },
        {
          "name": "escrowAddress",
          "type": "address"
        }
      ],
      "name": "purchase",
      "outputs": [],
      "payable": false,
      "stateMutability": "nonpayable",
      "type": "function"
    },
    {
      "constant": false,
      "inputs": [
        {
          "name": "hashFile",
          "type": "string"
        },
        {
          "name": "buyer",
          "type": "address"
        }
      ],
      "name": "getEscrowAddress",
      "outputs": [
        {
          "name": "",
          "type": "address"
        }
      ],
      "payable": false,
      "stateMutability": "nonpayable",
      "type": "function"
    },
    {
      "constant": false,
      "inputs": [
        {
          "name": "description",
          "type": "string"
        },
        {
          "name": "hashProduct",
          "type": "string"
        },
        {
          "name": "price",
          "type": "uint256"
        }
      ],
      "name": "addProduct",
      "outputs": [],
      "payable": false,
      "stateMutability": "nonpayable",
      "type": "function"
    },
    {
      "constant": false,
      "inputs": [
        {
          "name": "hashProduct",
          "type": "string"
        }
      ],
      "name": "getProduct",
      "outputs": [
        {
          "name": "",
          "type": "string"
        }
      ],
      "payable": false,
      "stateMutability": "nonpayable",
      "type": "function"
    },
    {
      "constant": false,
      "inputs": [],
      "name": "kill",
      "outputs": [],
      "payable": false,
      "stateMutability": "nonpayable",
      "type": "function"
    }
  ],
  "bytecode": "0x608060405234801561001057600080fd5b50336000806101000a81548173ffffffffffffffffffffffffffffffffffffffff021916908373ffffffffffffffffffffffffffffffffffffffff160217905550610eed806100606000396000f300608060405260043610610099576000357c0100000000000000000000000000000000000000000000000000000000900463ffffffff1680630bf447271461009e57806311231fe01461016757806341c0e1b5146102235780634b68d4311461023a57806359aee552146102c357806368111cce1461034c578063893d20e81461042e578063c2bc80fd14610485578063f28ea1c1146104dc575b600080fd5b3480156100aa57600080fd5b50610125600480360381019080803590602001908201803590602001908080601f0160208091040260200160405190810160405280939291908181526020018383808284378201915050505050509192919290803573ffffffffffffffffffffffffffffffffffffffff169060200190929190505050610595565b604051808273ffffffffffffffffffffffffffffffffffffffff1673ffffffffffffffffffffffffffffffffffffffff16815260200191505060405180910390f35b34801561017357600080fd5b506101a8600480360381019080803573ffffffffffffffffffffffffffffffffffffffff16906020019092919050505061066b565b6040518080602001828103825283818151815260200191508051906020019080838360005b838110156101e85780820151818401526020810190506101cd565b50505050905090810190601f1680156102155780820380516001836020036101000a031916815260200191505b509250505060405180910390f35b34801561022f57600080fd5b5061023861074f565b005b34801561024657600080fd5b506102c1600480360381019080803573ffffffffffffffffffffffffffffffffffffffff169060200190929190803590602001908201803590602001908080601f01602080910402602001604051908101604052809392919081815260200183838082843782019150505050505091929192905050506107c3565b005b3480156102cf57600080fd5b5061034a600480360381019080803590602001908201803590602001908080601f0160208091040260200160405190810160405280939291908181526020018383808284378201915050505050509192919290803573ffffffffffffffffffffffffffffffffffffffff16906020019092919050505061081e565b005b34801561035857600080fd5b506103b3600480360381019080803590602001908201803590602001908080601f01602080910402602001604051908101604052809392919081815260200183838082843782019150505050505091929192905050506109de565b6040518080602001828103825283818151815260200191508051906020019080838360005b838110156103f35780820151818401526020810190506103d8565b50505050905090810190601f1680156104205780820380516001836020036101000a031916815260200191505b509250505060405180910390f35b34801561043a57600080fd5b50610443610aee565b604051808273ffffffffffffffffffffffffffffffffffffffff1673ffffffffffffffffffffffffffffffffffffffff16815260200191505060405180910390f35b34801561049157600080fd5b5061049a610b17565b604051808273ffffffffffffffffffffffffffffffffffffffff1673ffffffffffffffffffffffffffffffffffffffff16815260200191505060405180910390f35b3480156104e857600080fd5b50610593600480360381019080803590602001908201803590602001908080601f0160208091040260200160405190810160405280939291908181526020018383808284378201915050505050509192919290803590602001908201803590602001908080601f016020809104026020016040519081016040528093929190818152602001838380828437820191505050505050919291929080359060200190929190505050610b3d565b005b60006003836040518082805190602001908083835b6020831015156105cf57805182526020820191506020810190506020830392506105aa565b6001836020036101000a038019825116818451168082178552505050505050905001915050908152602001604051809103902060030160008373ffffffffffffffffffffffffffffffffffffffff1673ffffffffffffffffffffffffffffffffffffffff16815260200190815260200160002060009054906101000a900473ffffffffffffffffffffffffffffffffffffffff16905092915050565b6060600260008373ffffffffffffffffffffffffffffffffffffffff1673ffffffffffffffffffffffffffffffffffffffff1681526020019081526020016000206000018054600181600116156101000203166002900480601f0160208091040260200160405190810160405280929190818152602001828054600181600116156101000203166002900480156107435780601f1061071857610100808354040283529160200191610743565b820191906000526020600020905b81548152906001019060200180831161072657829003601f168201915b50505050509050919050565b6000809054906101000a900473ffffffffffffffffffffffffffffffffffffffff1673ffffffffffffffffffffffffffffffffffffffff163373ffffffffffffffffffffffffffffffffffffffff161415156107aa57600080fd5b3373ffffffffffffffffffffffffffffffffffffffff16ff5b80600260008473ffffffffffffffffffffffffffffffffffffffff1673ffffffffffffffffffffffffffffffffffffffff1681526020019081526020016000206000019080519060200190610819929190610c90565b505050565b806003836040518082805190602001908083835b6020831015156108575780518252602082019150602081019050602083039250610832565b6001836020036101000a038019825116818451168082178552505050505050905001915050908152602001604051809103902060030160003373ffffffffffffffffffffffffffffffffffffffff1673ffffffffffffffffffffffffffffffffffffffff16815260200190815260200160002060006101000a81548173ffffffffffffffffffffffffffffffffffffffff021916908373ffffffffffffffffffffffffffffffffffffffff1602179055506003826040518082805190602001908083835b602083101515610940578051825260208201915060208101905060208303925061091b565b6001836020036101000a03801982511681845116808217855250505050505090500191505090815260200160405180910390206004013390806001815401808255809150509060018203906000526020600020016000909192909190916101000a81548173ffffffffffffffffffffffffffffffffffffffff021916908373ffffffffffffffffffffffffffffffffffffffff160217905550505050565b60606003826040518082805190602001908083835b602083101515610a1857805182526020820191506020810190506020830392506109f3565b6001836020036101000a03801982511681845116808217855250505050505090500191505090815260200160405180910390206000018054600181600116156101000203166002900480601f016020809104026020016040519081016040528092919081815260200182805460018160011615610100020316600290048015610ae25780601f10610ab757610100808354040283529160200191610ae2565b820191906000526020600020905b815481529060010190602001808311610ac557829003601f168201915b50505050509050919050565b60008060009054906101000a900473ffffffffffffffffffffffffffffffffffffffff16905090565b600160009054906101000a900473ffffffffffffffffffffffffffffffffffffffff1681565b610b45610d10565b83816000018190525033816020019073ffffffffffffffffffffffffffffffffffffffff16908173ffffffffffffffffffffffffffffffffffffffff168152505081816040018181525050806003846040518082805190602001908083835b602083101515610bc95780518252602082019150602081019050602083039250610ba4565b6001836020036101000a03801982511681845116808217855250505050505090500191505090815260200160405180910390206000820151816000019080519060200190610c18929190610d4f565b5060208201518160010160006101000a81548173ffffffffffffffffffffffffffffffffffffffff021916908373ffffffffffffffffffffffffffffffffffffffff160217905550604082015181600201556060820151816004019080519060200190610c86929190610dcf565b5090505050505050565b828054600181600116156101000203166002900490600052602060002090601f016020900481019282601f10610cd157805160ff1916838001178555610cff565b82800160010185558215610cff579182015b82811115610cfe578251825591602001919060010190610ce3565b5b509050610d0c9190610e59565b5090565b60806040519081016040528060608152602001600073ffffffffffffffffffffffffffffffffffffffff16815260200160008152602001606081525090565b828054600181600116156101000203166002900490600052602060002090601f016020900481019282601f10610d9057805160ff1916838001178555610dbe565b82800160010185558215610dbe579182015b82811115610dbd578251825591602001919060010190610da2565b5b509050610dcb9190610e59565b5090565b828054828255906000526020600020908101928215610e48579160200282015b82811115610e475782518260006101000a81548173ffffffffffffffffffffffffffffffffffffffff021916908373ffffffffffffffffffffffffffffffffffffffff16021790555091602001919060010190610def565b5b509050610e559190610e7e565b5090565b610e7b91905b80821115610e77576000816000905550600101610e5f565b5090565b90565b610ebe91905b80821115610eba57600081816101000a81549073ffffffffffffffffffffffffffffffffffffffff021916905550600101610e84565b5090565b905600a165627a7a72305820a3e6972aa4e7e5bf82e2bf3a9507ca8ea5196bdc873d5829d5c4d4b17f01d3dc0029",
  "source": "pragma solidity ^0.4.23;\n\ncontract Market {\n\naddress private owner;\n\naddress public children;\n\nstruct user {\n  string publicKey;\n  string[] products;\n}\n\nmapping (address => user) private users;\n\nfunction addUser(address userAddress, string key) public {\n  users[userAddress].publicKey = key;\n}\n\nfunction getUserPublicKey(address userAddress) public view returns (string) {\n  return users[userAddress].publicKey;\n}\n\n\nfunction getOwner() public view returns (address) {\n  return owner;\n}\n\nstruct product {\n  string description;\n  address seller;\n  uint256 price;\n  mapping (address => address) purchase;\n  address[] purchaseLUT;\n}\n\nmapping (string => product) private products;\n\n\nfunction purchase(string hashFile, address escrowAddress) {\n  products[hashFile].purchase[msg.sender] = escrowAddress;\n  products[hashFile].purchaseLUT.push(msg.sender);\n}\n\nfunction getEscrowAddress(string hashFile, address buyer) returns(address) {\n  return products[hashFile].purchase[buyer];\n}\n\nfunction addProduct(string description, string hashProduct, uint256 price) public /*payable*/ {\n  product memory p;\n  p.description = description;\n  //p.hashAddress = hashAddress;\n  p.seller = msg.sender;\n  p.price = price;\n  //p.deposit = msg.value;\n  products[hashProduct] = p;\n}\n\nfunction getProduct(string hashProduct) public returns(string) {\n  return products[hashProduct].description;\n}\n\n//function deposit(address payee) public payable\n\n\n\n\nconstructor() public {\n    owner = msg.sender;\n  }\n  \nfunction kill() restricted public {\n    selfdestruct(msg.sender);\n  }\n\nmodifier restricted() {\n    require(msg.sender == owner);\n    _;\n  }\n}\n",
  "sourcePath": "C:\\Users\\esolazzo\\Desktop\\client\\contract\\contracts\\Market.sol",
  "compiler": {
    "name": "solc",
    "version": "0.4.24+commit.e67f0147.Emscripten.clang"
  },
  "schemaVersion": "2.0.1",
  "updatedAt": "2018-10-23T10:13:20.105Z"
}