{
  "contractName": "MarketEscrow",
  "abi": [
    {
      "constant": true,
      "inputs": [],
      "name": "buyer",
      "outputs": [
        {
          "name": "",
          "type": "address"
        }
      ],
      "payable": false,
      "stateMutability": "view",
      "type": "function"
    },
    {
      "constant": true,
      "inputs": [],
      "name": "nameFile",
      "outputs": [
        {
          "name": "",
          "type": "string"
        }
      ],
      "payable": false,
      "stateMutability": "view",
      "type": "function"
    },
    {
      "constant": true,
      "inputs": [],
      "name": "price",
      "outputs": [
        {
          "name": "",
          "type": "uint256"
        }
      ],
      "payable": false,
      "stateMutability": "view",
      "type": "function"
    },
    {
      "constant": true,
      "inputs": [],
      "name": "payee",
      "outputs": [
        {
          "name": "",
          "type": "address"
        }
      ],
      "payable": false,
      "stateMutability": "view",
      "type": "function"
    },
    {
      "constant": true,
      "inputs": [],
      "name": "contractMarketAddress",
      "outputs": [
        {
          "name": "",
          "type": "address"
        }
      ],
      "payable": false,
      "stateMutability": "view",
      "type": "function"
    },
    {
      "constant": true,
      "inputs": [],
      "name": "state",
      "outputs": [
        {
          "name": "",
          "type": "uint8"
        }
      ],
      "payable": false,
      "stateMutability": "view",
      "type": "function"
    },
    {
      "constant": true,
      "inputs": [],
      "name": "addressEncryptedFile",
      "outputs": [
        {
          "name": "",
          "type": "string"
        }
      ],
      "payable": false,
      "stateMutability": "view",
      "type": "function"
    },
    {
      "constant": true,
      "inputs": [],
      "name": "hashFile",
      "outputs": [
        {
          "name": "",
          "type": "bytes32"
        }
      ],
      "payable": false,
      "stateMutability": "view",
      "type": "function"
    },
    {
      "constant": true,
      "inputs": [],
      "name": "keyAddress",
      "outputs": [
        {
          "name": "",
          "type": "string"
        }
      ],
      "payable": false,
      "stateMutability": "view",
      "type": "function"
    },
    {
      "inputs": [
        {
          "name": "addr",
          "type": "address"
        },
        {
          "name": "buyerAddress",
          "type": "address"
        },
        {
          "name": "hFile",
          "type": "bytes32"
        }
      ],
      "payable": false,
      "stateMutability": "nonpayable",
      "type": "constructor"
    },
    {
      "constant": false,
      "inputs": [
        {
          "name": "p",
          "type": "address"
        }
      ],
      "name": "setPayee",
      "outputs": [],
      "payable": false,
      "stateMutability": "nonpayable",
      "type": "function"
    },
    {
      "constant": false,
      "inputs": [
        {
          "name": "hFile",
          "type": "bytes32"
        },
        {
          "name": "hEncryptedFile",
          "type": "string"
        },
        {
          "name": "key",
          "type": "string"
        },
        {
          "name": "name",
          "type": "string"
        }
      ],
      "name": "setFile",
      "outputs": [],
      "payable": true,
      "stateMutability": "payable",
      "type": "function"
    },
    {
      "constant": false,
      "inputs": [],
      "name": "depositFromBuyer",
      "outputs": [],
      "payable": true,
      "stateMutability": "payable",
      "type": "function"
    },
    {
      "constant": false,
      "inputs": [
        {
          "name": "hFile",
          "type": "bytes32"
        }
      ],
      "name": "withdraw",
      "outputs": [
        {
          "name": "",
          "type": "bool"
        }
      ],
      "payable": false,
      "stateMutability": "nonpayable",
      "type": "function"
    }
  ],
  "bytecode": "0x608060405234801561001057600080fd5b50604051606080610f6c83398101806040528101908080519060200190929190805190602001909291908051906020019092919050505062015180420160068190555082600f60006101000a81548173ffffffffffffffffffffffffffffffffffffffff021916908373ffffffffffffffffffffffffffffffffffffffff1602179055506000600a819055506000600b8190555081600e60006101000a81548173ffffffffffffffffffffffffffffffffffffffff021916908373ffffffffffffffffffffffffffffffffffffffff1602179055508060018160001916905550600f60009054906101000a900473ffffffffffffffffffffffffffffffffffffffff16600960006101000a81548173ffffffffffffffffffffffffffffffffffffffff021916908373ffffffffffffffffffffffffffffffffffffffff160217905550600960009054906101000a900473ffffffffffffffffffffffffffffffffffffffff1673ffffffffffffffffffffffffffffffffffffffff166391c57e736001546040518263ffffffff167c0100000000000000000000000000000000000000000000000000000000028152600401808260001916600019168152602001915050602060405180830381600087803b1580156101ee57600080fd5b505af1158015610202573d6000803e3d6000fd5b505050506040513d602081101561021857600080fd5b8101908080519060200190929190505050600c8190555060008060006101000a81548160ff0219169083600481111561024d57fe5b0217905550505050610d08806102646000396000f3006080604052600436106100c5576000357c0100000000000000000000000000000000000000000000000000000000900463ffffffff168063410459ad146100ca57806341d3b12e1461010d5780635db53f8b146102035780637150d8ae1461020d57806381ee132f146102645780638e19899e146102f4578063a035b1fe1461033d578063ae90b21314610368578063b1d3a919146103bf578063c19d93fb14610416578063c5995e9a1461044f578063d8e30a87146104df578063df0b52c814610512575b600080fd5b3480156100d657600080fd5b5061010b600480360381019080803573ffffffffffffffffffffffffffffffffffffffff1690602001909291905050506105a2565b005b6102016004803603810190808035600019169060200190929190803590602001908201803590602001908080601f0160208091040260200160405190810160405280939291908181526020018383808284378201915050505050509192919290803590602001908201803590602001908080601f0160208091040260200160405190810160405280939291908181526020018383808284378201915050505050509192919290803590602001908201803590602001908080601f0160208091040260200160405190810160405280939291908181526020018383808284378201915050505050509192919290505050610642565b005b61020b610755565b005b34801561021957600080fd5b5061022261080a565b604051808273ffffffffffffffffffffffffffffffffffffffff1673ffffffffffffffffffffffffffffffffffffffff16815260200191505060405180910390f35b34801561027057600080fd5b50610279610830565b6040518080602001828103825283818151815260200191508051906020019080838360005b838110156102b957808201518184015260208101905061029e565b50505050905090810190601f1680156102e65780820380516001836020036101000a031916815260200191505b509250505060405180910390f35b34801561030057600080fd5b5061032360048036038101908080356000191690602001909291905050506108ce565b604051808215151515815260200191505060405180910390f35b34801561034957600080fd5b50610352610a5e565b6040518082815260200191505060405180910390f35b34801561037457600080fd5b5061037d610a64565b604051808273ffffffffffffffffffffffffffffffffffffffff1673ffffffffffffffffffffffffffffffffffffffff16815260200191505060405180910390f35b3480156103cb57600080fd5b506103d4610a8a565b604051808273ffffffffffffffffffffffffffffffffffffffff1673ffffffffffffffffffffffffffffffffffffffff16815260200191505060405180910390f35b34801561042257600080fd5b5061042b610ab0565b6040518082600481111561043b57fe5b60ff16815260200191505060405180910390f35b34801561045b57600080fd5b50610464610ac2565b6040518080602001828103825283818151815260200191508051906020019080838360005b838110156104a4578082015181840152602081019050610489565b50505050905090810190601f1680156104d15780820380516001836020036101000a031916815260200191505b509250505060405180910390f35b3480156104eb57600080fd5b506104f4610b60565b60405180826000191660001916815260200191505060405180910390f35b34801561051e57600080fd5b50610527610b66565b6040518080602001828103825283818151815260200191508051906020019080838360005b8381101561056757808201518184015260208101905061054c565b50505050905090810190601f1680156105945780820380516001836020036101000a031916815260200191505b509250505060405180910390f35b600f60009054906101000a900473ffffffffffffffffffffffffffffffffffffffff1673ffffffffffffffffffffffffffffffffffffffff163373ffffffffffffffffffffffffffffffffffffffff161415156105fe57600080fd5b80600d60006101000a81548173ffffffffffffffffffffffffffffffffffffffff021916908373ffffffffffffffffffffffffffffffffffffffff16021790555050565b6000600d60009054906101000a900473ffffffffffffffffffffffffffffffffffffffff1673ffffffffffffffffffffffffffffffffffffffff163373ffffffffffffffffffffffffffffffffffffffff161415156106a057600080fd5b8460001916600154600019161415156106b857600080fd5b600c54341415156106c857600080fd5b83600390805190602001906106de929190610c37565b5082600290805190602001906106f5929190610c37565b50816004908051906020019061070c929190610c37565b5034905061072581600a54610c0490919063ffffffff16565b600a8190555060026000806101000a81548160ff0219169083600481111561074957fe5b02179055505050505050565b6000600f60009054906101000a900473ffffffffffffffffffffffffffffffffffffffff1673ffffffffffffffffffffffffffffffffffffffff163373ffffffffffffffffffffffffffffffffffffffff161415156107b357600080fd5b600c54600202341415156107c657600080fd5b3490506107de81600b54610c0490919063ffffffff16565b600b8190555060016000806101000a81548160ff0219169083600481111561080257fe5b021790555050565b600e60009054906101000a900473ffffffffffffffffffffffffffffffffffffffff1681565b60048054600181600116156101000203166002900480601f0160208091040260200160405190810160405280929190818152602001828054600181600116156101000203166002900480156108c65780601f1061089b576101008083540402835291602001916108c6565b820191906000526020600020905b8154815290600101906020018083116108a957829003601f168201915b505050505081565b6000806000600e60009054906101000a900473ffffffffffffffffffffffffffffffffffffffff1673ffffffffffffffffffffffffffffffffffffffff163373ffffffffffffffffffffffffffffffffffffffff1614151561092f57600080fd5b8360001916600154600019161415610a2f57600b549150600a549050610953610c25565b600d60009054906101000a900473ffffffffffffffffffffffffffffffffffffffff1673ffffffffffffffffffffffffffffffffffffffff166108fc839081150290604051600060405180830381858888f193505050501580156109bb573d6000803e3d6000fd5b503373ffffffffffffffffffffffffffffffffffffffff166108fc829081150290604051600060405180830381858888f19350505050158015610a02573d6000803e3d6000fd5b5060046000806101000a81548160ff02191690836004811115610a2157fe5b021790555060019250610a57565b60036000806101000a81548160ff02191690836004811115610a4d57fe5b0217905550600092505b5050919050565b600c5481565b600d60009054906101000a900473ffffffffffffffffffffffffffffffffffffffff1681565b600f60009054906101000a900473ffffffffffffffffffffffffffffffffffffffff1681565b6000809054906101000a900460ff1681565b60038054600181600116156101000203166002900480601f016020809104026020016040519081016040528092919081815260200182805460018160011615610100020316600290048015610b585780601f10610b2d57610100808354040283529160200191610b58565b820191906000526020600020905b815481529060010190602001808311610b3b57829003601f168201915b505050505081565b60015481565b60028054600181600116156101000203166002900480601f016020809104026020016040519081016040528092919081815260200182805460018160011615610100020316600290048015610bfc5780601f10610bd157610100808354040283529160200191610bfc565b820191906000526020600020905b815481529060010190602001808311610bdf57829003601f168201915b505050505081565b6000808284019050838110151515610c1b57600080fd5b8091505092915050565b6000600a819055506000600b81905550565b828054600181600116156101000203166002900490600052602060002090601f016020900481019282601f10610c7857805160ff1916838001178555610ca6565b82800160010185558215610ca6579182015b82811115610ca5578251825591602001919060010190610c8a565b5b509050610cb39190610cb7565b5090565b610cd991905b80821115610cd5576000816000905550600101610cbd565b5090565b905600a165627a7a723058202158df7e72264b3407a98f082791af93899f18750a375dac6df9c5e4e5e98f7f0029",
  "source": "pragma solidity ^0.4.23;\r\n\r\n//import './MarketEscrow.sol';\r\nimport '../../node_modules/openzeppelin-solidity/contracts/math/SafeMath.sol';\r\n\r\ncontract Market {\r\n\r\naddress private owner;\r\n\r\naddress public children;\r\n\r\nconstructor() public {\r\n  owner = msg.sender;\r\n  productsCount = 0;\r\n}\r\n\r\n\r\nstruct user {\r\n  string publicKey;\r\n  string name;\r\n  string avatar;\r\n  bytes32[] products;\r\n  uint256 productsLenght;\r\n  address[] purchaseLUT;\r\n  uint256 purchaseLUTLenght;\r\n  uint256 saleNumber;\r\n  bool blocked;\r\n}\r\n\r\nmapping (address => user) public users;\r\n\r\nfunction addUser(address userAddress, string key, string name, string avatar) public {\r\n  require(msg.sender == userAddress);\r\n  users[userAddress].publicKey = key;\r\n  users[userAddress].name = name;\r\n  users[userAddress].avatar = avatar;\r\n  users[userAddress].blocked = false;\r\n  users[userAddress].productsLenght = 0;  \r\n  users[userAddress].purchaseLUTLenght = 0; \r\n  users[userAddress].saleNumber = 0;\r\n}\r\n\r\nfunction addUserPurchase(address escrowAddress,address userAddress) public  {\r\n  users[userAddress].purchaseLUT.push(escrowAddress);\r\n  users[userAddress].purchaseLUTLenght++;\r\n}\r\n\r\n\r\nfunction getUser(address userAddress) public view returns (string,string,string,bool,uint256,uint256,uint256) {\r\n  return (users[userAddress].publicKey,users[userAddress].name,users[userAddress].avatar,users[userAddress].blocked,users[userAddress].productsLenght,users[userAddress].purchaseLUTLenght,users[userAddress].saleNumber);\r\n}\r\n\r\n\r\n\r\nfunction getUserProduct(address userAddress, uint256 index) public view returns(bytes32) {\r\n  return users[userAddress].products[index];\r\n}\r\n\r\nfunction getUserPurchase(address userAddress, uint256 index) public view returns(address) {\r\n  return users[userAddress].purchaseLUT[index];\r\n}\r\n\r\n\r\nfunction getOwner() public view returns (address) {\r\n  return owner;\r\n}\r\n/*\r\nfunction blockUser(address user, bytes32 product, address buyer) public {\r\n  var requesterAddress = getEscrowAddress(product,buyer);\r\n  if (msg.sender == requesterAddress) {\r\n    users[user].blocked = true;\r\n  }\r\n}*/\r\n\r\nstruct product {\r\n  string description;\r\n  address seller;\r\n  uint256 price;\r\n  mapping (address => address) purchase;\r\n  address[] purchaseLUT;\r\n  uint256 purchaseLUTLenght;\r\n}\r\n\r\nmapping (bytes32 => product) public products;\r\nmapping (uint => bytes32) private productsIndex; //doSomeStuff(accountBalances[accountIndex[i]]);\r\nuint private  productsCount;\r\n\r\nfunction getProductPurchase(bytes32 product, uint256 index) public view returns(address) {\r\n  return products[product].purchaseLUT[index];\r\n}\r\n\r\nfunction getProductPrice(bytes32 product) public view returns(uint256) {\r\n  return products[product].price;\r\n}\r\n/*\r\nfunction purchase(bytes32 hashFile, address escrowAddress) {\r\n  products[hashFile].purchase[msg.sender] = escrowAddress;\r\n  products[hashFile].purchaseLUT.push(escrowAddress);\r\n  products[hashFile].purchaseLUTLenght++;\r\n  users[products[hashFile].seller].saleNumber++;\r\n}*/\r\n\r\nfunction purchase(bytes32 hashFile, address seller,address buyer) public {\r\n  //require(msg.value == (price*2));\r\n  address instanceEscrowAddress = new MarketEscrow(address(this),buyer,hashFile); \r\n  /*MarketEscrow instanceEscrow = MarketEscrow(instanceEscrowAddress);\r\n  instanceEscrow.setPayee(seller);\r\n  instanceEscrow.depositFromBuyer.value(msg.value)();\r\n\r\n  products[hashFile].purchase[msg.sender] = instanceEscrowAddress;\r\n  products[hashFile].purchaseLUT.push(instanceEscrowAddress);\r\n  products[hashFile].purchaseLUTLenght++;\r\n  users[products[hashFile].seller].saleNumber++;*/\r\n\r\n  addUserPurchase(instanceEscrowAddress,msg.sender);\r\n}\r\n\r\nfunction afterEscrow(bytes32 hashFile,address seller, address escrowAddress) public payable {\r\n  require(msg.value == (products[hashFile].price*2));\r\n  \r\n  MarketEscrow instanceEscrow = MarketEscrow(escrowAddress);\r\n  instanceEscrow.setPayee(seller);\r\n  instanceEscrow.depositFromBuyer.value(msg.value)();\r\n\r\n  products[hashFile].purchase[msg.sender] = escrowAddress;\r\n  products[hashFile].purchaseLUT.push(escrowAddress);\r\n  products[hashFile].purchaseLUTLenght++;\r\n  users[products[hashFile].seller].saleNumber++;\r\n}\r\n\r\nfunction getEscrowAddress(bytes32 hashFile, address buyer) public view returns(address) {\r\n  return products[hashFile].purchase[buyer];\r\n}\r\n\r\n/*function existProduct(string hashFile) public view returns (bool){\r\n  if (products[hashFile].description == \"\") return false;\r\n  else return true;\r\n}*/\r\n\r\n/*\r\nfunction find(uint value) returns(uint) {\r\n        uint i = 0;\r\n        while (values[i] != value) {\r\n            i++;\r\n        }\r\n        return i;\r\n    }\r\n\r\n    function removeByValue(uint value) {\r\n        uint i = find(value);\r\n        removeByIndex(i);\r\n    }\r\n */\r\n\r\n\r\nfunction addProduct(string description, bytes32 hashProduct, uint256 price) public /*payable*/ {\r\n  //bytes32 hashProduct = convert(hashString);\r\n  bytes memory EmptyStringTest = bytes(products[hashProduct].description); \r\n  if(EmptyStringTest.length == 0) {\r\n    products[hashProduct].description = description;\r\n    products[hashProduct].seller = msg.sender;\r\n    products[hashProduct].price = price;\r\n    users[msg.sender].productsLenght++;\r\n    users[msg.sender].products.push(hashProduct);\r\n    productsIndex[productsCount] = hashProduct;\r\n    productsCount++;\r\n  }\r\n}\r\n/*\r\nfunction convert(string key) returns (bytes32 ret) {\r\n    if (bytes(key).length > 32) {\r\n      throw;\r\n    }\r\n\r\n    assembly {\r\n      ret := mload(add(key, 32))\r\n    }\r\n  }*/\r\n/*\r\nfunction getProduct(bytes32 hashProduct) public returns(string,address,uint256,uint256) {\r\n  //bytes32 hashProduct = convert(hashString);\r\n  return (products[hashProduct].description,products[hashProduct].seller,products[hashProduct].price,products[hashProduct].purchaseLUTLenght);\r\n}*/\r\n\r\nfunction getProductCode(uint code) public returns(bytes32) {\r\n  return productsIndex[code];\r\n}\r\n\r\nfunction getProductCode() public returns(uint) {\r\n  return productsCount;\r\n}\r\n\r\nfunction deleteProduct(address user, bytes32 hashProduct, uint256 index) public {\r\n  //bytes32 hashProduct = convert(hashString);\r\n  if (msg.sender == user) {\r\n    users[user].products[index] = users[user].products[users[user].products.length-1];\r\n    delete users[user].products[users[user].products.length-1];\r\n    users[user].products.length--;\r\n    delete products[hashProduct];\r\n    users[user].productsLenght--;\r\n  }\r\n}\r\n\r\n//function deposit(address payee) public payable\r\n/*\r\nfunction unblockUser (address user) restricted public {\r\n  users[user].blocked = false;\r\n}*/\r\n\r\n  \r\nfunction kill() restricted public {\r\n    selfdestruct(msg.sender);\r\n  }\r\n\r\nmodifier restricted() {\r\n    require(msg.sender == owner);\r\n    _;\r\n  }\r\n}\r\n\r\ncontract MarketEscrow /*is ConditionalEscrow*/ {\r\n\r\nusing SafeMath for uint256;\r\n\r\nenum State {Contratto_creato,In_attesa_del_venditore,Prodotto_disponibile,Errore_nella_transazione,Operazione_conclusa}\r\nState public state;\r\n    \r\n \r\nbytes32 public hashFile;\r\n\r\nstring public keyAddress;\r\nstring public addressEncryptedFile; \r\nstring public nameFile; \r\naddress private _marketAddress; \r\nuint256 private _expiration;\r\n\r\nuint256 private depositPayee;\r\nuint256 private depositBuyer;\r\nMarket private _marketIstance;\r\n\r\nuint256 private _depositSeller;\r\nuint256 private _depositBuyer;\r\nuint256 public price;\r\n\r\naddress public payee;\r\naddress public buyer;\r\naddress public contractMarketAddress;\r\n    \r\nconstructor(address addr, address buyerAddress,bytes32 hFile) public {\r\n    _expiration = now + 86400;\r\n    contractMarketAddress = addr;\r\n    _depositSeller = 0;\r\n    _depositBuyer = 0;\r\n    buyer = buyerAddress;\r\n    hashFile = hFile;\r\n    _marketIstance = Market(contractMarketAddress);\r\n    price = _marketIstance.getProductPrice(hashFile);\r\n    state = State.Contratto_creato;\r\n    }    \r\n    \r\nfunction setPayee(address p) public onlyContract() {\r\n payee = p;\r\n}\r\n\r\nfunction setFile(bytes32 hFile, string hEncryptedFile, string key, string name) public payable onlyPayee()  {\r\n    //bytes32 hFile = marketIstance.convert(hFileString);\r\n    //bytes32 hEncryptedFile = marketIstance.convert(hEncryptedFileString);\r\n    /*require(hashFile == hFile);\r\n    addressEncryptedFile = hEncryptedFile;\r\n    keyAddress = key;\r\n    deposit(msg.sender);\r\n    state = State.Prodotto_disponibile;*/\r\n    require(hashFile == hFile);\r\n    require(msg.value == price);\r\n    addressEncryptedFile = hEncryptedFile;\r\n    keyAddress = key;\r\n    nameFile = name;\r\n    uint256 amount = msg.value;\r\n    _depositSeller = _depositSeller.add(amount);\r\n    //deposit(msg.sender);\r\n    //depositPayee = msg.value;\r\n    state = State.Prodotto_disponibile;\r\n}\r\n/*\r\nfunction getHashAddress() public view returns(bytes32) {\r\n    return hashEncryptedFile;\r\n}*/\r\n\r\nfunction depositFromBuyer() public payable onlyContract() {\r\n    /*require(depositBuyer == 0);\r\n    deposit(msg.sender);\r\n    depositBuyer = depositsOf(msg.sender);*/\r\n    require(msg.value == 2*price);\r\n    uint256 amount = msg.value;\r\n    _depositBuyer = _depositBuyer.add(amount);\r\n    state = State.In_attesa_del_venditore;\r\n}\r\n/*\r\nfunction depositFromSeller() public payable onlyPayee() {\r\n    \r\n    deposit(msg.sender);\r\n    \r\n    state = State.In_attesa_del_venditore;\r\n}*/\r\n/*\r\nfunction withdrawalAllowed(address payee) public view returns (bool) {\r\n      \r\n        address h = marketIstance.getEscrowAddress(hashFile,this.primary());\r\n        //if(stringsEqual(hashFile,h)) return true;\r\n        if (h == address(this)) {           \r\n            return true;\r\n        }\r\n        else {          \r\n            return false;\r\n        }\r\n    }\r\n\r\nfunction withdraw(address payee) public onlyPrimary() {\r\n    require(withdrawalAllowed(payee));\r\n    payee.transfer(depositPayee);\r\n    msg.sender.transfer(depositBuyer);\r\n    resetDeposit();\r\n    super.withdraw(payee);\r\n    state = State.Operazione_conclusa;\r\n  }\r\n\r\nfunction blockUser(address payee) public onlyPrimary() {\r\n marketIstance.blockUser(payee,hashFile,this.primary());\r\n}\r\n\r\nfunction resetDeposit() private {\r\n    depositPayee = 0;\r\n    depositBuyer = 0;\r\n}\r\n\r\nfunction refundBuyer(address payee) public onlyPrimary() {\r\n    if (!withdrawalAllowed(payee)){\r\n        //this.primary().transfer(depositPayee);\r\n        msg.sender.transfer(depositPayee);\r\n        msg.sender.transfer(depositBuyer);\r\n        resetDeposit();\r\n        msg.sender.transfer(depositsOf(payee));\r\n        state = State.Operazione_conclusa;\r\n        selfdestruct(msg.sender);\r\n    }       \r\n}*/\r\n\r\nfunction withdraw(bytes32 hFile) public onlyBuyer() returns(bool) {\r\n    if(hashFile == hFile){\r\n        uint256 paymentSeller = _depositBuyer;\r\n        uint256 paymentBuyer = _depositSeller;\r\n        resetDeposit();\r\n        payee.transfer(paymentSeller);\r\n        msg.sender.transfer(paymentBuyer);\r\n        state = State.Operazione_conclusa;\r\n        return true;\r\n    }\r\n    else {\r\n        state = State.Errore_nella_transazione;\r\n        return false;\r\n    }\r\n    \r\n  }\r\n\r\n  function resetDeposit() private {\r\n    _depositSeller = 0;\r\n    _depositBuyer = 0;\r\n}\r\n\r\nmodifier onlyPayee() {\r\n    require(msg.sender == payee);\r\n    _;\r\n  }\r\n\r\nmodifier onlyBuyer() {\r\n    require(msg.sender == buyer);\r\n    _;\r\n }\r\n \r\n modifier onlyContract() {\r\n    require(msg.sender == contractMarketAddress);\r\n    _;\r\n }\r\n\r\n\r\n}",
  "sourcePath": "C:\\Users\\esolazzo\\Desktop\\client\\contract\\contracts\\Market.sol",
  "compiler": {
    "name": "solc",
    "version": "0.4.24+commit.e67f0147.Emscripten.clang"
  },
  "schemaVersion": "2.0.1",
  "updatedAt": "2018-12-14T13:20:52.528Z"
}