{
  "contractName": "Market",
  "abi": [
    {
      "constant": true,
      "inputs": [],
      "name": "children",
      "outputs": [
        {
          "name": "",
          "type": "address"
        }
      ],
      "payable": false,
      "stateMutability": "view",
      "type": "function"
    },
    {
      "inputs": [],
      "payable": false,
      "stateMutability": "nonpayable",
      "type": "constructor"
    },
    {
      "constant": false,
      "inputs": [
        {
          "name": "userAddress",
          "type": "address"
        },
        {
          "name": "key",
          "type": "string"
        },
        {
          "name": "name",
          "type": "string"
        },
        {
          "name": "avatar",
          "type": "string"
        }
      ],
      "name": "addUser",
      "outputs": [],
      "payable": false,
      "stateMutability": "nonpayable",
      "type": "function"
    },
    {
      "constant": true,
      "inputs": [
        {
          "name": "userAddress",
          "type": "address"
        }
      ],
      "name": "getUserPublicKey",
      "outputs": [
        {
          "name": "",
          "type": "string"
        }
      ],
      "payable": false,
      "stateMutability": "view",
      "type": "function"
    },
    {
      "constant": true,
      "inputs": [
        {
          "name": "userAddress",
          "type": "address"
        }
      ],
      "name": "getUserName",
      "outputs": [
        {
          "name": "",
          "type": "string"
        }
      ],
      "payable": false,
      "stateMutability": "view",
      "type": "function"
    },
    {
      "constant": true,
      "inputs": [
        {
          "name": "userAddress",
          "type": "address"
        }
      ],
      "name": "getUserFlagBlock",
      "outputs": [
        {
          "name": "",
          "type": "bool"
        }
      ],
      "payable": false,
      "stateMutability": "view",
      "type": "function"
    },
    {
      "constant": true,
      "inputs": [
        {
          "name": "userAddress",
          "type": "address"
        }
      ],
      "name": "getUserAvatar",
      "outputs": [
        {
          "name": "",
          "type": "string"
        }
      ],
      "payable": false,
      "stateMutability": "view",
      "type": "function"
    },
    {
      "constant": true,
      "inputs": [],
      "name": "getOwner",
      "outputs": [
        {
          "name": "",
          "type": "address"
        }
      ],
      "payable": false,
      "stateMutability": "view",
      "type": "function"
    },
    {
      "constant": false,
      "inputs": [
        {
          "name": "user",
          "type": "address"
        },
        {
          "name": "product",
          "type": "string"
        },
        {
          "name": "buyer",
          "type": "address"
        }
      ],
      "name": "blockUser",
      "outputs": [],
      "payable": false,
      "stateMutability": "nonpayable",
      "type": "function"
    },
    {
      "constant": false,
      "inputs": [
        {
          "name": "hashFile",
          "type": "string"
        },
        {
          "name": "escrowAddress",
          "type": "address"
        }
      ],
      "name": "purchase",
      "outputs": [],
      "payable": false,
      "stateMutability": "nonpayable",
      "type": "function"
    },
    {
      "constant": false,
      "inputs": [
        {
          "name": "hashFile",
          "type": "string"
        },
        {
          "name": "buyer",
          "type": "address"
        }
      ],
      "name": "getEscrowAddress",
      "outputs": [
        {
          "name": "",
          "type": "address"
        }
      ],
      "payable": false,
      "stateMutability": "nonpayable",
      "type": "function"
    },
    {
      "constant": false,
      "inputs": [
        {
          "name": "description",
          "type": "string"
        },
        {
          "name": "hashProduct",
          "type": "string"
        },
        {
          "name": "price",
          "type": "uint256"
        }
      ],
      "name": "addProduct",
      "outputs": [],
      "payable": false,
      "stateMutability": "nonpayable",
      "type": "function"
    },
    {
      "constant": false,
      "inputs": [
        {
          "name": "hashProduct",
          "type": "string"
        }
      ],
      "name": "getProduct",
      "outputs": [
        {
          "name": "",
          "type": "string"
        }
      ],
      "payable": false,
      "stateMutability": "nonpayable",
      "type": "function"
    },
    {
      "constant": false,
      "inputs": [
        {
          "name": "user",
          "type": "address"
        }
      ],
      "name": "unblockUser",
      "outputs": [],
      "payable": false,
      "stateMutability": "nonpayable",
      "type": "function"
    },
    {
      "constant": false,
      "inputs": [],
      "name": "kill",
      "outputs": [],
      "payable": false,
      "stateMutability": "nonpayable",
      "type": "function"
    }
  ],
  "bytecode": "0x608060405234801561001057600080fd5b50336000806101000a81548173ffffffffffffffffffffffffffffffffffffffff021916908373ffffffffffffffffffffffffffffffffffffffff1602179055506116f8806100606000396000f3006080604052600436106100d0576000357c0100000000000000000000000000000000000000000000000000000000900463ffffffff1680630bf44727146100d557806311231fe01461019e578063336e1d0c1461025a57806339d319e51461030357806341c0e1b51461034657806359aee5521461035d57806368111cce146103e6578063893d20e8146104c8578063a4f8826b1461051f578063c2bc80fd1461057a578063c6361c22146105d1578063d84f55ee146106e6578063f28ea1c1146107a2578063f504c8f91461085b575b600080fd5b3480156100e157600080fd5b5061015c600480360381019080803590602001908201803590602001908080601f0160208091040260200160405190810160405280939291908181526020018383808284378201915050505050509192919290803573ffffffffffffffffffffffffffffffffffffffff169060200190929190505050610917565b604051808273ffffffffffffffffffffffffffffffffffffffff1673ffffffffffffffffffffffffffffffffffffffff16815260200191505060405180910390f35b3480156101aa57600080fd5b506101df600480360381019080803573ffffffffffffffffffffffffffffffffffffffff1690602001909291905050506109ed565b6040518080602001828103825283818151815260200191508051906020019080838360005b8381101561021f578082015181840152602081019050610204565b50505050905090810190601f16801561024c5780820380516001836020036101000a031916815260200191505b509250505060405180910390f35b34801561026657600080fd5b50610301600480360381019080803573ffffffffffffffffffffffffffffffffffffffff169060200190929190803590602001908201803590602001908080601f0160208091040260200160405190810160405280939291908181526020018383808284378201915050505050509192919290803573ffffffffffffffffffffffffffffffffffffffff169060200190929190505050610ad1565b005b34801561030f57600080fd5b50610344600480360381019080803573ffffffffffffffffffffffffffffffffffffffff169060200190929190505050610b75565b005b34801561035257600080fd5b5061035b610c2e565b005b34801561036957600080fd5b506103e4600480360381019080803590602001908201803590602001908080601f0160208091040260200160405190810160405280939291908181526020018383808284378201915050505050509192919290803573ffffffffffffffffffffffffffffffffffffffff169060200190929190505050610ca2565b005b3480156103f257600080fd5b5061044d600480360381019080803590602001908201803590602001908080601f0160208091040260200160405190810160405280939291908181526020018383808284378201915050505050509192919290505050610e62565b6040518080602001828103825283818151815260200191508051906020019080838360005b8381101561048d578082015181840152602081019050610472565b50505050905090810190601f1680156104ba5780820380516001836020036101000a031916815260200191505b509250505060405180910390f35b3480156104d457600080fd5b506104dd610f72565b604051808273ffffffffffffffffffffffffffffffffffffffff1673ffffffffffffffffffffffffffffffffffffffff16815260200191505060405180910390f35b34801561052b57600080fd5b50610560600480360381019080803573ffffffffffffffffffffffffffffffffffffffff169060200190929190505050610f9b565b604051808215151515815260200191505060405180910390f35b34801561058657600080fd5b5061058f610ff4565b604051808273ffffffffffffffffffffffffffffffffffffffff1673ffffffffffffffffffffffffffffffffffffffff16815260200191505060405180910390f35b3480156105dd57600080fd5b506106e4600480360381019080803573ffffffffffffffffffffffffffffffffffffffff169060200190929190803590602001908201803590602001908080601f0160208091040260200160405190810160405280939291908181526020018383808284378201915050505050509192919290803590602001908201803590602001908080601f0160208091040260200160405190810160405280939291908181526020018383808284378201915050505050509192919290803590602001908201803590602001908080601f016020809104026020016040519081016040528093929190818152602001838380828437820191505050505050919291929050505061101a565b005b3480156106f257600080fd5b50610727600480360381019080803573ffffffffffffffffffffffffffffffffffffffff169060200190929190505050611180565b6040518080602001828103825283818151815260200191508051906020019080838360005b8381101561076757808201518184015260208101905061074c565b50505050905090810190601f1680156107945780820380516001836020036101000a031916815260200191505b509250505060405180910390f35b3480156107ae57600080fd5b50610859600480360381019080803590602001908201803590602001908080601f0160208091040260200160405190810160405280939291908181526020018383808284378201915050505050509192919290803590602001908201803590602001908080601f016020809104026020016040519081016040528093929190818152602001838380828437820191505050505050919291929080359060200190929190505050611264565b005b34801561086757600080fd5b5061089c600480360381019080803573ffffffffffffffffffffffffffffffffffffffff1690602001909291905050506113b7565b6040518080602001828103825283818151815260200191508051906020019080838360005b838110156108dc5780820151818401526020810190506108c1565b50505050905090810190601f1680156109095780820380516001836020036101000a031916815260200191505b509250505060405180910390f35b60006003836040518082805190602001908083835b602083101515610951578051825260208201915060208101905060208303925061092c565b6001836020036101000a038019825116818451168082178552505050505050905001915050908152602001604051809103902060030160008373ffffffffffffffffffffffffffffffffffffffff1673ffffffffffffffffffffffffffffffffffffffff16815260200190815260200160002060009054906101000a900473ffffffffffffffffffffffffffffffffffffffff16905092915050565b6060600260008373ffffffffffffffffffffffffffffffffffffffff1673ffffffffffffffffffffffffffffffffffffffff1681526020019081526020016000206000018054600181600116156101000203166002900480601f016020809104026020016040519081016040528092919081815260200182805460018160011615610100020316600290048015610ac55780601f10610a9a57610100808354040283529160200191610ac5565b820191906000526020600020905b815481529060010190602001808311610aa857829003601f168201915b50505050509050919050565b6000610add8383610917565b90508073ffffffffffffffffffffffffffffffffffffffff163373ffffffffffffffffffffffffffffffffffffffff161415610b6f576001600260008673ffffffffffffffffffffffffffffffffffffffff1673ffffffffffffffffffffffffffffffffffffffff16815260200190815260200160002060040160006101000a81548160ff0219169083151502179055505b50505050565b6000809054906101000a900473ffffffffffffffffffffffffffffffffffffffff1673ffffffffffffffffffffffffffffffffffffffff163373ffffffffffffffffffffffffffffffffffffffff16141515610bd057600080fd5b6000600260008373ffffffffffffffffffffffffffffffffffffffff1673ffffffffffffffffffffffffffffffffffffffff16815260200190815260200160002060040160006101000a81548160ff02191690831515021790555050565b6000809054906101000a900473ffffffffffffffffffffffffffffffffffffffff1673ffffffffffffffffffffffffffffffffffffffff163373ffffffffffffffffffffffffffffffffffffffff16141515610c8957600080fd5b3373ffffffffffffffffffffffffffffffffffffffff16ff5b806003836040518082805190602001908083835b602083101515610cdb5780518252602082019150602081019050602083039250610cb6565b6001836020036101000a038019825116818451168082178552505050505050905001915050908152602001604051809103902060030160003373ffffffffffffffffffffffffffffffffffffffff1673ffffffffffffffffffffffffffffffffffffffff16815260200190815260200160002060006101000a81548173ffffffffffffffffffffffffffffffffffffffff021916908373ffffffffffffffffffffffffffffffffffffffff1602179055506003826040518082805190602001908083835b602083101515610dc45780518252602082019150602081019050602083039250610d9f565b6001836020036101000a03801982511681845116808217855250505050505090500191505090815260200160405180910390206004013390806001815401808255809150509060018203906000526020600020016000909192909190916101000a81548173ffffffffffffffffffffffffffffffffffffffff021916908373ffffffffffffffffffffffffffffffffffffffff160217905550505050565b60606003826040518082805190602001908083835b602083101515610e9c5780518252602082019150602081019050602083039250610e77565b6001836020036101000a03801982511681845116808217855250505050505090500191505090815260200160405180910390206000018054600181600116156101000203166002900480601f016020809104026020016040519081016040528092919081815260200182805460018160011615610100020316600290048015610f665780601f10610f3b57610100808354040283529160200191610f66565b820191906000526020600020905b815481529060010190602001808311610f4957829003601f168201915b50505050509050919050565b60008060009054906101000a900473ffffffffffffffffffffffffffffffffffffffff16905090565b6000600260008373ffffffffffffffffffffffffffffffffffffffff1673ffffffffffffffffffffffffffffffffffffffff16815260200190815260200160002060040160009054906101000a900460ff169050919050565b600160009054906101000a900473ffffffffffffffffffffffffffffffffffffffff1681565b82600260008673ffffffffffffffffffffffffffffffffffffffff1673ffffffffffffffffffffffffffffffffffffffff168152602001908152602001600020600001908051906020019061107092919061149b565b5081600260008673ffffffffffffffffffffffffffffffffffffffff1673ffffffffffffffffffffffffffffffffffffffff16815260200190815260200160002060010190805190602001906110c792919061149b565b5080600260008673ffffffffffffffffffffffffffffffffffffffff1673ffffffffffffffffffffffffffffffffffffffff168152602001908152602001600020600201908051906020019061111e92919061149b565b506000600260008673ffffffffffffffffffffffffffffffffffffffff1673ffffffffffffffffffffffffffffffffffffffff16815260200190815260200160002060040160006101000a81548160ff02191690831515021790555050505050565b6060600260008373ffffffffffffffffffffffffffffffffffffffff1673ffffffffffffffffffffffffffffffffffffffff1681526020019081526020016000206001018054600181600116156101000203166002900480601f0160208091040260200160405190810160405280929190818152602001828054600181600116156101000203166002900480156112585780601f1061122d57610100808354040283529160200191611258565b820191906000526020600020905b81548152906001019060200180831161123b57829003601f168201915b50505050509050919050565b61126c61151b565b83816000018190525033816020019073ffffffffffffffffffffffffffffffffffffffff16908173ffffffffffffffffffffffffffffffffffffffff168152505081816040018181525050806003846040518082805190602001908083835b6020831015156112f057805182526020820191506020810190506020830392506112cb565b6001836020036101000a0380198251168184511680821785525050505050509050019150509081526020016040518091039020600082015181600001908051906020019061133f92919061155a565b5060208201518160010160006101000a81548173ffffffffffffffffffffffffffffffffffffffff021916908373ffffffffffffffffffffffffffffffffffffffff1602179055506040820151816002015560608201518160040190805190602001906113ad9291906115da565b5090505050505050565b6060600260008373ffffffffffffffffffffffffffffffffffffffff1673ffffffffffffffffffffffffffffffffffffffff1681526020019081526020016000206002018054600181600116156101000203166002900480601f01602080910402602001604051908101604052809291908181526020018280546001816001161561010002031660029004801561148f5780601f106114645761010080835404028352916020019161148f565b820191906000526020600020905b81548152906001019060200180831161147257829003601f168201915b50505050509050919050565b828054600181600116156101000203166002900490600052602060002090601f016020900481019282601f106114dc57805160ff191683800117855561150a565b8280016001018555821561150a579182015b828111156115095782518255916020019190600101906114ee565b5b5090506115179190611664565b5090565b60806040519081016040528060608152602001600073ffffffffffffffffffffffffffffffffffffffff16815260200160008152602001606081525090565b828054600181600116156101000203166002900490600052602060002090601f016020900481019282601f1061159b57805160ff19168380011785556115c9565b828001600101855582156115c9579182015b828111156115c85782518255916020019190600101906115ad565b5b5090506115d69190611664565b5090565b828054828255906000526020600020908101928215611653579160200282015b828111156116525782518260006101000a81548173ffffffffffffffffffffffffffffffffffffffff021916908373ffffffffffffffffffffffffffffffffffffffff160217905550916020019190600101906115fa565b5b5090506116609190611689565b5090565b61168691905b8082111561168257600081600090555060010161166a565b5090565b90565b6116c991905b808211156116c557600081816101000a81549073ffffffffffffffffffffffffffffffffffffffff02191690555060010161168f565b5090565b905600a165627a7a72305820e6fbc5e045fc4e9804c4b0e1b3db5d4f3a2853ce2b1aaeede92865d72c6039bc0029",
  "source": "pragma solidity ^0.4.23;\r\n\r\ncontract Market {\r\n\r\naddress private owner;\r\n\r\naddress public children;\r\n\r\nstruct user {\r\n  string publicKey;\r\n  string name;\r\n  string avatar;\r\n  string[] products;\r\n  bool blocked;\r\n}\r\n\r\nmapping (address => user) private users;\r\n\r\nfunction addUser(address userAddress, string key, string name, string avatar) public {\r\n  users[userAddress].publicKey = key;\r\n  users[userAddress].name = name;\r\n  users[userAddress].avatar = avatar;\r\n  users[userAddress].blocked = false;\r\n}\r\n\r\n\r\nfunction getUserPublicKey(address userAddress) public view returns (string) {\r\n  return users[userAddress].publicKey;\r\n}\r\n\r\nfunction getUserName(address userAddress) public view returns (string) {\r\n  return users[userAddress].name;\r\n}\r\n\r\nfunction getUserFlagBlock(address userAddress) public view returns (bool) {\r\n  return users[userAddress].blocked;\r\n}\r\n\r\nfunction getUserAvatar(address userAddress) public view returns (string) {\r\n  return users[userAddress].avatar;\r\n}\r\n\r\nfunction getOwner() public view returns (address) {\r\n  return owner;\r\n}\r\n\r\nfunction blockUser(address user, string product, address buyer) public {\r\n  var requesterAddress = getEscrowAddress(product,buyer);\r\n  if (msg.sender == requesterAddress) {\r\n    users[user].blocked = true;\r\n  }\r\n}\r\n\r\nstruct product {\r\n  string description;\r\n  address seller;\r\n  uint256 price;\r\n  mapping (address => address) purchase;\r\n  address[] purchaseLUT;\r\n}\r\n\r\nmapping (string => product) private products;\r\n\r\n\r\nfunction purchase(string hashFile, address escrowAddress) {\r\n  products[hashFile].purchase[msg.sender] = escrowAddress;\r\n  products[hashFile].purchaseLUT.push(msg.sender);\r\n}\r\n\r\nfunction getEscrowAddress(string hashFile, address buyer) returns(address) {\r\n  return products[hashFile].purchase[buyer];\r\n}\r\n\r\nfunction addProduct(string description, string hashProduct, uint256 price) public /*payable*/ {\r\n  product memory p;\r\n  p.description = description;\r\n  //p.hashAddress = hashAddress;\r\n  p.seller = msg.sender;\r\n  p.price = price;\r\n  //p.deposit = msg.value;\r\n  products[hashProduct] = p;\r\n}\r\n\r\nfunction getProduct(string hashProduct) public returns(string) {\r\n  return products[hashProduct].description;\r\n}\r\n\r\n//function deposit(address payee) public payable\r\n\r\nfunction unblockUser (address user) restricted public {\r\n  users[user].blocked = false;\r\n}\r\n\r\n\r\nconstructor() public {\r\n    owner = msg.sender;\r\n  }\r\n  \r\nfunction kill() restricted public {\r\n    selfdestruct(msg.sender);\r\n  }\r\n\r\nmodifier restricted() {\r\n    require(msg.sender == owner);\r\n    _;\r\n  }\r\n}\r\n",
  "sourcePath": "C:\\Users\\esolazzo\\Desktop\\client\\contract\\contracts\\Market.sol",
  "compiler": {
    "name": "solc",
    "version": "0.4.24+commit.e67f0147.Emscripten.clang"
  },
  "schemaVersion": "2.0.1",
  "updatedAt": "2018-10-25T10:49:44.329Z"
}