{
  "contractName": "MarketEscrow",
  "abi": [
    {
      "constant": true,
      "inputs": [],
      "name": "buyer",
      "outputs": [
        {
          "name": "",
          "type": "address"
        }
      ],
      "payable": false,
      "stateMutability": "view",
      "type": "function"
    },
    {
      "constant": true,
      "inputs": [],
      "name": "nameFile",
      "outputs": [
        {
          "name": "",
          "type": "string"
        }
      ],
      "payable": false,
      "stateMutability": "view",
      "type": "function"
    },
    {
      "constant": true,
      "inputs": [],
      "name": "price",
      "outputs": [
        {
          "name": "",
          "type": "uint256"
        }
      ],
      "payable": false,
      "stateMutability": "view",
      "type": "function"
    },
    {
      "constant": true,
      "inputs": [],
      "name": "payee",
      "outputs": [
        {
          "name": "",
          "type": "address"
        }
      ],
      "payable": false,
      "stateMutability": "view",
      "type": "function"
    },
    {
      "constant": true,
      "inputs": [],
      "name": "state",
      "outputs": [
        {
          "name": "",
          "type": "uint8"
        }
      ],
      "payable": false,
      "stateMutability": "view",
      "type": "function"
    },
    {
      "constant": true,
      "inputs": [],
      "name": "addressEncryptedFile",
      "outputs": [
        {
          "name": "",
          "type": "string"
        }
      ],
      "payable": false,
      "stateMutability": "view",
      "type": "function"
    },
    {
      "constant": true,
      "inputs": [],
      "name": "hashFile",
      "outputs": [
        {
          "name": "",
          "type": "bytes32"
        }
      ],
      "payable": false,
      "stateMutability": "view",
      "type": "function"
    },
    {
      "constant": true,
      "inputs": [],
      "name": "keyAddress",
      "outputs": [
        {
          "name": "",
          "type": "string"
        }
      ],
      "payable": false,
      "stateMutability": "view",
      "type": "function"
    },
    {
      "inputs": [
        {
          "name": "addr",
          "type": "address"
        },
        {
          "name": "hFile",
          "type": "bytes32"
        }
      ],
      "payable": false,
      "stateMutability": "nonpayable",
      "type": "constructor"
    },
    {
      "constant": false,
      "inputs": [
        {
          "name": "p",
          "type": "address"
        }
      ],
      "name": "setPayee",
      "outputs": [],
      "payable": false,
      "stateMutability": "nonpayable",
      "type": "function"
    },
    {
      "constant": false,
      "inputs": [
        {
          "name": "hFile",
          "type": "bytes32"
        },
        {
          "name": "hEncryptedFile",
          "type": "string"
        },
        {
          "name": "key",
          "type": "string"
        },
        {
          "name": "name",
          "type": "string"
        }
      ],
      "name": "setFile",
      "outputs": [],
      "payable": true,
      "stateMutability": "payable",
      "type": "function"
    },
    {
      "constant": false,
      "inputs": [],
      "name": "depositFromBuyer",
      "outputs": [],
      "payable": true,
      "stateMutability": "payable",
      "type": "function"
    },
    {
      "constant": false,
      "inputs": [
        {
          "name": "hFile",
          "type": "bytes32"
        }
      ],
      "name": "withdraw",
      "outputs": [],
      "payable": false,
      "stateMutability": "nonpayable",
      "type": "function"
    }
  ],
  "bytecode": "0x608060405234801561001057600080fd5b50604051604080610e92833981018060405281019080805190602001909291908051906020019092919050505062015180420160068190555081600560006101000a81548173ffffffffffffffffffffffffffffffffffffffff021916908373ffffffffffffffffffffffffffffffffffffffff1602179055506000600a819055506000600b8190555033600e60006101000a81548173ffffffffffffffffffffffffffffffffffffffff021916908373ffffffffffffffffffffffffffffffffffffffff1602179055508060018160001916905550600560009054906101000a900473ffffffffffffffffffffffffffffffffffffffff16600960006101000a81548173ffffffffffffffffffffffffffffffffffffffff021916908373ffffffffffffffffffffffffffffffffffffffff160217905550600960009054906101000a900473ffffffffffffffffffffffffffffffffffffffff1673ffffffffffffffffffffffffffffffffffffffff166391c57e736001546040518263ffffffff167c0100000000000000000000000000000000000000000000000000000000028152600401808260001916600019168152602001915050602060405180830381600087803b1580156101e457600080fd5b505af11580156101f8573d6000803e3d6000fd5b505050506040513d602081101561020e57600080fd5b8101908080519060200190929190505050600c8190555060008060006101000a81548160ff0219169083600481111561024357fe5b02179055505050610c39806102596000396000f3006080604052600436106100ba576000357c0100000000000000000000000000000000000000000000000000000000900463ffffffff168063410459ad146100bf57806341d3b12e146101025780635db53f8b146101f85780637150d8ae1461020257806381ee132f146102595780638e19899e146102e9578063a035b1fe1461031a578063ae90b21314610345578063c19d93fb1461039c578063c5995e9a146103d5578063d8e30a8714610465578063df0b52c814610498575b600080fd5b3480156100cb57600080fd5b50610100600480360381019080803573ffffffffffffffffffffffffffffffffffffffff169060200190929190505050610528565b005b6101f66004803603810190808035600019169060200190929190803590602001908201803590602001908080601f0160208091040260200160405190810160405280939291908181526020018383808284378201915050505050509192919290803590602001908201803590602001908080601f0160208091040260200160405190810160405280939291908181526020018383808284378201915050505050509192919290803590602001908201803590602001908080601f01602080910402602001604051908101604052809392919081815260200183838082843782019150505050505091929192905050506105c8565b005b6102006106db565b005b34801561020e57600080fd5b50610217610790565b604051808273ffffffffffffffffffffffffffffffffffffffff1673ffffffffffffffffffffffffffffffffffffffff16815260200191505060405180910390f35b34801561026557600080fd5b5061026e6107b6565b6040518080602001828103825283818151815260200191508051906020019080838360005b838110156102ae578082015181840152602081019050610293565b50505050905090810190601f1680156102db5780820380516001836020036101000a031916815260200191505b509250505060405180910390f35b3480156102f557600080fd5b506103186004803603810190808035600019169060200190929190505050610854565b005b34801561032657600080fd5b5061032f6109b5565b6040518082815260200191505060405180910390f35b34801561035157600080fd5b5061035a6109bb565b604051808273ffffffffffffffffffffffffffffffffffffffff1673ffffffffffffffffffffffffffffffffffffffff16815260200191505060405180910390f35b3480156103a857600080fd5b506103b16109e1565b604051808260048111156103c157fe5b60ff16815260200191505060405180910390f35b3480156103e157600080fd5b506103ea6109f3565b6040518080602001828103825283818151815260200191508051906020019080838360005b8381101561042a57808201518184015260208101905061040f565b50505050905090810190601f1680156104575780820380516001836020036101000a031916815260200191505b509250505060405180910390f35b34801561047157600080fd5b5061047a610a91565b60405180826000191660001916815260200191505060405180910390f35b3480156104a457600080fd5b506104ad610a97565b6040518080602001828103825283818151815260200191508051906020019080838360005b838110156104ed5780820151818401526020810190506104d2565b50505050905090810190601f16801561051a5780820380516001836020036101000a031916815260200191505b509250505060405180910390f35b600e60009054906101000a900473ffffffffffffffffffffffffffffffffffffffff1673ffffffffffffffffffffffffffffffffffffffff163373ffffffffffffffffffffffffffffffffffffffff1614151561058457600080fd5b80600d60006101000a81548173ffffffffffffffffffffffffffffffffffffffff021916908373ffffffffffffffffffffffffffffffffffffffff16021790555050565b6000600d60009054906101000a900473ffffffffffffffffffffffffffffffffffffffff1673ffffffffffffffffffffffffffffffffffffffff163373ffffffffffffffffffffffffffffffffffffffff1614151561062657600080fd5b84600019166001546000191614151561063e57600080fd5b600c543414151561064e57600080fd5b8360039080519060200190610664929190610b68565b50826002908051906020019061067b929190610b68565b508160049080519060200190610692929190610b68565b503490506106ab81600a54610b3590919063ffffffff16565b600a8190555060026000806101000a81548160ff021916908360048111156106cf57fe5b02179055505050505050565b6000600e60009054906101000a900473ffffffffffffffffffffffffffffffffffffffff1673ffffffffffffffffffffffffffffffffffffffff163373ffffffffffffffffffffffffffffffffffffffff1614151561073957600080fd5b600c546002023414151561074c57600080fd5b34905061076481600b54610b3590919063ffffffff16565b600b8190555060016000806101000a81548160ff0219169083600481111561078857fe5b021790555050565b600e60009054906101000a900473ffffffffffffffffffffffffffffffffffffffff1681565b60048054600181600116156101000203166002900480601f01602080910402602001604051908101604052809291908181526020018280546001816001161561010002031660029004801561084c5780601f106108215761010080835404028352916020019161084c565b820191906000526020600020905b81548152906001019060200180831161082f57829003601f168201915b505050505081565b600080600e60009054906101000a900473ffffffffffffffffffffffffffffffffffffffff1673ffffffffffffffffffffffffffffffffffffffff163373ffffffffffffffffffffffffffffffffffffffff161415156108b357600080fd5b8260001916600154600019161415156108cb57600080fd5b600b549150600a5490506108dd610b56565b600d60009054906101000a900473ffffffffffffffffffffffffffffffffffffffff1673ffffffffffffffffffffffffffffffffffffffff166108fc839081150290604051600060405180830381858888f19350505050158015610945573d6000803e3d6000fd5b503373ffffffffffffffffffffffffffffffffffffffff166108fc829081150290604051600060405180830381858888f1935050505015801561098c573d6000803e3d6000fd5b5060046000806101000a81548160ff021916908360048111156109ab57fe5b0217905550505050565b600c5481565b600d60009054906101000a900473ffffffffffffffffffffffffffffffffffffffff1681565b6000809054906101000a900460ff1681565b60038054600181600116156101000203166002900480601f016020809104026020016040519081016040528092919081815260200182805460018160011615610100020316600290048015610a895780601f10610a5e57610100808354040283529160200191610a89565b820191906000526020600020905b815481529060010190602001808311610a6c57829003601f168201915b505050505081565b60015481565b60028054600181600116156101000203166002900480601f016020809104026020016040519081016040528092919081815260200182805460018160011615610100020316600290048015610b2d5780601f10610b0257610100808354040283529160200191610b2d565b820191906000526020600020905b815481529060010190602001808311610b1057829003601f168201915b505050505081565b6000808284019050838110151515610b4c57600080fd5b8091505092915050565b6000600a819055506000600b81905550565b828054600181600116156101000203166002900490600052602060002090601f016020900481019282601f10610ba957805160ff1916838001178555610bd7565b82800160010185558215610bd7579182015b82811115610bd6578251825591602001919060010190610bbb565b5b509050610be49190610be8565b5090565b610c0a91905b80821115610c06576000816000905550600101610bee565b5090565b905600a165627a7a7230582017804e035a9f07fe303be8baa7eec7a3c022dd9f4ea37c9c15ba4e2247a0e32a0029",
  "source": "pragma solidity ^0.4.23;\r\n\r\n//import '../../node_modules/openzeppelin-solidity/contracts/payment/ConditionalEscrow.sol';\r\nimport '../../node_modules/openzeppelin-solidity/contracts/math/SafeMath.sol';\r\nimport './Market.sol';\r\n\r\ncontract MarketEscrow /*is ConditionalEscrow*/ {\r\n\r\nusing SafeMath for uint256;\r\n\r\nenum State {Contratto_creato,In_attesa_del_venditore,Prodotto_disponibile,Errore_nella_transazione,Operazione_conclusa}\r\nState public state;\r\n    \r\n \r\nbytes32 public hashFile;\r\n\r\nstring public keyAddress;\r\nstring public addressEncryptedFile; \r\nstring public nameFile; \r\naddress private _marketAddress; \r\nuint256 private _expiration;\r\n\r\nuint256 private depositPayee;\r\nuint256 private depositBuyer;\r\nMarket private _marketIstance;\r\n\r\nuint256 private _depositSeller;\r\nuint256 private _depositBuyer;\r\nuint256 public price;\r\n\r\naddress public payee;\r\naddress public buyer;\r\n    \r\nconstructor(address addr,bytes32 hFile) public {\r\n    _expiration = now + 86400;\r\n    _marketAddress = addr;\r\n    _depositSeller = 0;\r\n    _depositBuyer = 0;\r\n    buyer = msg.sender;\r\n    hashFile = hFile;\r\n    _marketIstance = Market(_marketAddress);\r\n    price = _marketIstance.getProductPrice(hashFile);\r\n    state = State.Contratto_creato;\r\n    }    \r\n    \r\nfunction setPayee(address p) public onlyBuyer() {\r\n payee = p;\r\n}\r\n\r\nfunction setFile(bytes32 hFile, string hEncryptedFile, string key, string name) public payable onlyPayee()  {\r\n    //bytes32 hFile = marketIstance.convert(hFileString);\r\n    //bytes32 hEncryptedFile = marketIstance.convert(hEncryptedFileString);\r\n    /*require(hashFile == hFile);\r\n    addressEncryptedFile = hEncryptedFile;\r\n    keyAddress = key;\r\n    deposit(msg.sender);\r\n    state = State.Prodotto_disponibile;*/\r\n    require(hashFile == hFile);\r\n    require(msg.value == price);\r\n    addressEncryptedFile = hEncryptedFile;\r\n    keyAddress = key;\r\n    nameFile = name;\r\n    uint256 amount = msg.value;\r\n    _depositSeller = _depositSeller.add(amount);\r\n    //deposit(msg.sender);\r\n    //depositPayee = msg.value;\r\n    state = State.Prodotto_disponibile;\r\n}\r\n/*\r\nfunction getHashAddress() public view returns(bytes32) {\r\n    return hashEncryptedFile;\r\n}*/\r\n\r\nfunction depositFromBuyer() public payable onlyBuyer() {\r\n    /*require(depositBuyer == 0);\r\n    deposit(msg.sender);\r\n    depositBuyer = depositsOf(msg.sender);*/\r\n    require(msg.value == 2*price);\r\n    uint256 amount = msg.value;\r\n    _depositBuyer = _depositBuyer.add(amount);\r\n    state = State.In_attesa_del_venditore;\r\n}\r\n/*\r\nfunction depositFromSeller() public payable onlyPayee() {\r\n    \r\n    deposit(msg.sender);\r\n    \r\n    state = State.In_attesa_del_venditore;\r\n}*/\r\n/*\r\nfunction withdrawalAllowed(address payee) public view returns (bool) {\r\n      \r\n        address h = marketIstance.getEscrowAddress(hashFile,this.primary());\r\n        //if(stringsEqual(hashFile,h)) return true;\r\n        if (h == address(this)) {           \r\n            return true;\r\n        }\r\n        else {          \r\n            return false;\r\n        }\r\n    }\r\n\r\nfunction withdraw(address payee) public onlyPrimary() {\r\n    require(withdrawalAllowed(payee));\r\n    payee.transfer(depositPayee);\r\n    msg.sender.transfer(depositBuyer);\r\n    resetDeposit();\r\n    super.withdraw(payee);\r\n    state = State.Operazione_conclusa;\r\n  }\r\n\r\nfunction blockUser(address payee) public onlyPrimary() {\r\n marketIstance.blockUser(payee,hashFile,this.primary());\r\n}\r\n\r\nfunction resetDeposit() private {\r\n    depositPayee = 0;\r\n    depositBuyer = 0;\r\n}\r\n\r\nfunction refundBuyer(address payee) public onlyPrimary() {\r\n    if (!withdrawalAllowed(payee)){\r\n        //this.primary().transfer(depositPayee);\r\n        msg.sender.transfer(depositPayee);\r\n        msg.sender.transfer(depositBuyer);\r\n        resetDeposit();\r\n        msg.sender.transfer(depositsOf(payee));\r\n        state = State.Operazione_conclusa;\r\n        selfdestruct(msg.sender);\r\n    }       \r\n}*/\r\n\r\nfunction withdraw(bytes32 hFile) public onlyBuyer() {\r\n    require(hashFile == hFile);\r\n    uint256 paymentSeller = _depositBuyer;\r\n    uint256 paymentBuyer = _depositSeller;\r\n    resetDeposit();\r\n    payee.transfer(paymentSeller);\r\n    msg.sender.transfer(paymentBuyer);\r\n    \r\n    //super.withdraw(payee);\r\n    state = State.Operazione_conclusa;\r\n  }\r\n\r\n  function resetDeposit() private {\r\n    _depositSeller = 0;\r\n    _depositBuyer = 0;\r\n}\r\n\r\nmodifier onlyPayee() {\r\n    require(msg.sender == payee);\r\n    _;\r\n  }\r\n\r\nmodifier onlyBuyer() {\r\n    require(msg.sender == buyer);\r\n    _;\r\n }\r\n\r\n\r\n}",
  "sourcePath": "C:\\Users\\esolazzo\\Desktop\\client\\contract\\contracts\\MarketEscrow.sol",
  "compiler": {
    "name": "solc",
    "version": "0.4.24+commit.e67f0147.Emscripten.clang"
  },
  "schemaVersion": "2.0.1",
  "updatedAt": "2018-12-11T09:34:12.189Z"
}