{
  "contractName": "Market",
  "abi": [
    {
      "constant": true,
      "inputs": [
        {
          "name": "",
          "type": "bytes32"
        }
      ],
      "name": "products",
      "outputs": [
        {
          "name": "description",
          "type": "string"
        },
        {
          "name": "seller",
          "type": "address"
        },
        {
          "name": "price",
          "type": "uint256"
        },
        {
          "name": "purchaseLUTLenght",
          "type": "uint256"
        }
      ],
      "payable": false,
      "stateMutability": "view",
      "type": "function"
    },
    {
      "constant": true,
      "inputs": [
        {
          "name": "",
          "type": "address"
        }
      ],
      "name": "users",
      "outputs": [
        {
          "name": "publicKey",
          "type": "string"
        },
        {
          "name": "name",
          "type": "string"
        },
        {
          "name": "avatar",
          "type": "string"
        },
        {
          "name": "productsLenght",
          "type": "uint256"
        },
        {
          "name": "purchaseLUTLenght",
          "type": "uint256"
        },
        {
          "name": "saleNumber",
          "type": "uint256"
        },
        {
          "name": "blocked",
          "type": "bool"
        }
      ],
      "payable": false,
      "stateMutability": "view",
      "type": "function"
    },
    {
      "constant": true,
      "inputs": [],
      "name": "children",
      "outputs": [
        {
          "name": "",
          "type": "address"
        }
      ],
      "payable": false,
      "stateMutability": "view",
      "type": "function"
    },
    {
      "inputs": [],
      "payable": false,
      "stateMutability": "nonpayable",
      "type": "constructor"
    },
    {
      "constant": false,
      "inputs": [
        {
          "name": "userAddress",
          "type": "address"
        },
        {
          "name": "key",
          "type": "string"
        },
        {
          "name": "name",
          "type": "string"
        },
        {
          "name": "avatar",
          "type": "string"
        }
      ],
      "name": "addUser",
      "outputs": [],
      "payable": false,
      "stateMutability": "nonpayable",
      "type": "function"
    },
    {
      "constant": false,
      "inputs": [
        {
          "name": "escrowAddress",
          "type": "address"
        }
      ],
      "name": "addUserPurchase",
      "outputs": [],
      "payable": false,
      "stateMutability": "nonpayable",
      "type": "function"
    },
    {
      "constant": true,
      "inputs": [
        {
          "name": "userAddress",
          "type": "address"
        }
      ],
      "name": "getUser",
      "outputs": [
        {
          "name": "",
          "type": "string"
        },
        {
          "name": "",
          "type": "string"
        },
        {
          "name": "",
          "type": "string"
        },
        {
          "name": "",
          "type": "bool"
        },
        {
          "name": "",
          "type": "uint256"
        },
        {
          "name": "",
          "type": "uint256"
        },
        {
          "name": "",
          "type": "uint256"
        }
      ],
      "payable": false,
      "stateMutability": "view",
      "type": "function"
    },
    {
      "constant": false,
      "inputs": [
        {
          "name": "userAddress",
          "type": "address"
        },
        {
          "name": "index",
          "type": "uint256"
        }
      ],
      "name": "getUserProduct",
      "outputs": [
        {
          "name": "",
          "type": "bytes32"
        }
      ],
      "payable": false,
      "stateMutability": "nonpayable",
      "type": "function"
    },
    {
      "constant": false,
      "inputs": [
        {
          "name": "userAddress",
          "type": "address"
        },
        {
          "name": "index",
          "type": "uint256"
        }
      ],
      "name": "getUserPurchase",
      "outputs": [
        {
          "name": "",
          "type": "address"
        }
      ],
      "payable": false,
      "stateMutability": "nonpayable",
      "type": "function"
    },
    {
      "constant": true,
      "inputs": [],
      "name": "getOwner",
      "outputs": [
        {
          "name": "",
          "type": "address"
        }
      ],
      "payable": false,
      "stateMutability": "view",
      "type": "function"
    },
    {
      "constant": false,
      "inputs": [
        {
          "name": "user",
          "type": "address"
        },
        {
          "name": "product",
          "type": "bytes32"
        },
        {
          "name": "buyer",
          "type": "address"
        }
      ],
      "name": "blockUser",
      "outputs": [],
      "payable": false,
      "stateMutability": "nonpayable",
      "type": "function"
    },
    {
      "constant": false,
      "inputs": [
        {
          "name": "product",
          "type": "bytes32"
        },
        {
          "name": "index",
          "type": "uint256"
        }
      ],
      "name": "getProductPurchase",
      "outputs": [
        {
          "name": "",
          "type": "address"
        }
      ],
      "payable": false,
      "stateMutability": "nonpayable",
      "type": "function"
    },
    {
      "constant": false,
      "inputs": [
        {
          "name": "product",
          "type": "bytes32"
        }
      ],
      "name": "getProductPrice",
      "outputs": [
        {
          "name": "",
          "type": "uint256"
        }
      ],
      "payable": false,
      "stateMutability": "nonpayable",
      "type": "function"
    },
    {
      "constant": false,
      "inputs": [
        {
          "name": "hashFile",
          "type": "bytes32"
        },
        {
          "name": "escrowAddress",
          "type": "address"
        }
      ],
      "name": "purchase",
      "outputs": [],
      "payable": false,
      "stateMutability": "nonpayable",
      "type": "function"
    },
    {
      "constant": false,
      "inputs": [
        {
          "name": "hashFile",
          "type": "bytes32"
        },
        {
          "name": "buyer",
          "type": "address"
        }
      ],
      "name": "getEscrowAddress",
      "outputs": [
        {
          "name": "",
          "type": "address"
        }
      ],
      "payable": false,
      "stateMutability": "nonpayable",
      "type": "function"
    },
    {
      "constant": false,
      "inputs": [
        {
          "name": "description",
          "type": "string"
        },
        {
          "name": "hashProduct",
          "type": "bytes32"
        },
        {
          "name": "price",
          "type": "uint256"
        }
      ],
      "name": "addProduct",
      "outputs": [],
      "payable": false,
      "stateMutability": "nonpayable",
      "type": "function"
    },
    {
      "constant": false,
      "inputs": [
        {
          "name": "key",
          "type": "string"
        }
      ],
      "name": "convert",
      "outputs": [
        {
          "name": "ret",
          "type": "bytes32"
        }
      ],
      "payable": false,
      "stateMutability": "nonpayable",
      "type": "function"
    },
    {
      "constant": false,
      "inputs": [],
      "name": "getProductCode",
      "outputs": [
        {
          "name": "",
          "type": "uint256"
        }
      ],
      "payable": false,
      "stateMutability": "nonpayable",
      "type": "function"
    },
    {
      "constant": false,
      "inputs": [
        {
          "name": "code",
          "type": "uint256"
        }
      ],
      "name": "getProductCode",
      "outputs": [
        {
          "name": "",
          "type": "bytes32"
        }
      ],
      "payable": false,
      "stateMutability": "nonpayable",
      "type": "function"
    },
    {
      "constant": false,
      "inputs": [
        {
          "name": "user",
          "type": "address"
        },
        {
          "name": "hashProduct",
          "type": "bytes32"
        },
        {
          "name": "index",
          "type": "uint256"
        }
      ],
      "name": "deleteProduct",
      "outputs": [],
      "payable": false,
      "stateMutability": "nonpayable",
      "type": "function"
    },
    {
      "constant": false,
      "inputs": [
        {
          "name": "user",
          "type": "address"
        }
      ],
      "name": "unblockUser",
      "outputs": [],
      "payable": false,
      "stateMutability": "nonpayable",
      "type": "function"
    },
    {
      "constant": false,
      "inputs": [],
      "name": "kill",
      "outputs": [],
      "payable": false,
      "stateMutability": "nonpayable",
      "type": "function"
    }
  ],
  "bytecode": "0x608060405234801561001057600080fd5b50336000806101000a81548173ffffffffffffffffffffffffffffffffffffffff021916908373ffffffffffffffffffffffffffffffffffffffff1602179055506000600581905550612432806100686000396000f30060806040526004361061011d576000357c0100000000000000000000000000000000000000000000000000000000900463ffffffff16806302dbedac1461012257806339d319e51461017d5780633ee0c4c1146101c057806341c0e1b51461020957806346a5683514610220578063631c6da9146102ad5780636f77926b1461031657806379054391146104ca5780637a491b63146105b55780637cebadb114610636578063893d20e8146106a757806391c57e73146106fe57806392ab73d914610743578063962a64cd146107d4578063a1bf950b14610859578063a87430ba146108d4578063c2bc80fd14610a88578063c6361c2214610adf578063cd748bff14610bf4578063e56422a214610c37578063f41a8c4f14610c88575b600080fd5b34801561012e57600080fd5b5061017b600480360381019080803573ffffffffffffffffffffffffffffffffffffffff169060200190929190803560001916906020019092919080359060200190929190505050610cb3565b005b34801561018957600080fd5b506101be600480360381019080803573ffffffffffffffffffffffffffffffffffffffff169060200190929190505050610fb3565b005b3480156101cc57600080fd5b506101eb6004803603810190808035906020019092919050505061106c565b60405180826000191660001916815260200191505060405180910390f35b34801561021557600080fd5b5061021e611089565b005b34801561022c57600080fd5b5061026b600480360381019080803573ffffffffffffffffffffffffffffffffffffffff169060200190929190803590602001909291905050506110fd565b604051808273ffffffffffffffffffffffffffffffffffffffff1673ffffffffffffffffffffffffffffffffffffffff16815260200191505060405180910390f35b3480156102b957600080fd5b506102f8600480360381019080803573ffffffffffffffffffffffffffffffffffffffff16906020019092919080359060200190929190505050611181565b60405180826000191660001916815260200191505060405180910390f35b34801561032257600080fd5b50610357600480360381019080803573ffffffffffffffffffffffffffffffffffffffff1690602001909291905050506111e5565b604051808060200180602001806020018815151515815260200187815260200186815260200185815260200184810384528b818151815260200191508051906020019080838360005b838110156103bb5780820151818401526020810190506103a0565b50505050905090810190601f1680156103e85780820380516001836020036101000a031916815260200191505b5084810383528a818151815260200191508051906020019080838360005b83811015610421578082015181840152602081019050610406565b50505050905090810190601f16801561044e5780820380516001836020036101000a031916815260200191505b50848103825289818151815260200191508051906020019080838360005b8381101561048757808201518184015260208101905061046c565b50505050905090810190601f1680156104b45780820380516001836020036101000a031916815260200191505b509a505050505050505050505060405180910390f35b3480156104d657600080fd5b506104f960048036038101908080356000191690602001909291905050506115bc565b60405180806020018573ffffffffffffffffffffffffffffffffffffffff1673ffffffffffffffffffffffffffffffffffffffff168152602001848152602001838152602001828103825286818151815260200191508051906020019080838360005b8381101561057757808201518184015260208101905061055c565b50505050905090810190601f1680156105a45780820380516001836020036101000a031916815260200191505b509550505050505060405180910390f35b3480156105c157600080fd5b50610634600480360381019080803590602001908201803590602001908080601f01602080910402602001604051908101604052809392919081815260200183838082843782019150505050505091929192908035600019169060200190929190803590602001909291905050506116a4565b005b34801561064257600080fd5b506106a5600480360381019080803573ffffffffffffffffffffffffffffffffffffffff1690602001909291908035600019169060200190929190803573ffffffffffffffffffffffffffffffffffffffff169060200190929190505050611917565b005b3480156106b357600080fd5b506106bc6119bb565b604051808273ffffffffffffffffffffffffffffffffffffffff1673ffffffffffffffffffffffffffffffffffffffff16815260200191505060405180910390f35b34801561070a57600080fd5b5061072d60048036038101908080356000191690602001909291905050506119e4565b6040518082815260200191505060405180910390f35b34801561074f57600080fd5b506107926004803603810190808035600019169060200190929190803573ffffffffffffffffffffffffffffffffffffffff169060200190929190505050611a0c565b604051808273ffffffffffffffffffffffffffffffffffffffff1673ffffffffffffffffffffffffffffffffffffffff16815260200191505060405180910390f35b3480156107e057600080fd5b5061083b600480360381019080803590602001908201803590602001908080601f0160208091040260200160405190810160405280939291908181526020018383808284378201915050505050509192919290505050611a92565b60405180826000191660001916815260200191505060405180910390f35b34801561086557600080fd5b50610892600480360381019080803560001916906020019092919080359060200190929190505050611aaf565b604051808273ffffffffffffffffffffffffffffffffffffffff1673ffffffffffffffffffffffffffffffffffffffff16815260200191505060405180910390f35b3480156108e057600080fd5b50610915600480360381019080803573ffffffffffffffffffffffffffffffffffffffff169060200190929190505050611b0f565b604051808060200180602001806020018881526020018781526020018681526020018515151515815260200184810384528b818151815260200191508051906020019080838360005b8381101561097957808201518184015260208101905061095e565b50505050905090810190601f1680156109a65780820380516001836020036101000a031916815260200191505b5084810383528a818151815260200191508051906020019080838360005b838110156109df5780820151818401526020810190506109c4565b50505050905090810190601f168015610a0c5780820380516001836020036101000a031916815260200191505b50848103825289818151815260200191508051906020019080838360005b83811015610a45578082015181840152602081019050610a2a565b50505050905090810190601f168015610a725780820380516001836020036101000a031916815260200191505b509a505050505050505050505060405180910390f35b348015610a9457600080fd5b50610a9d611d26565b604051808273ffffffffffffffffffffffffffffffffffffffff1673ffffffffffffffffffffffffffffffffffffffff16815260200191505060405180910390f35b348015610aeb57600080fd5b50610bf2600480360381019080803573ffffffffffffffffffffffffffffffffffffffff169060200190929190803590602001908201803590602001908080601f0160208091040260200160405190810160405280939291908181526020018383808284378201915050505050509192919290803590602001908201803590602001908080601f0160208091040260200160405190810160405280939291908181526020018383808284378201915050505050509192919290803590602001908201803590602001908080601f0160208091040260200160405190810160405280939291908181526020018383808284378201915050505050509192919290505050611d4c565b005b348015610c0057600080fd5b50610c35600480360381019080803573ffffffffffffffffffffffffffffffffffffffff169060200190929190505050611fc4565b005b348015610c4357600080fd5b50610c866004803603810190808035600019169060200190929190803573ffffffffffffffffffffffffffffffffffffffff1690602001909291905050506120bf565b005b348015610c9457600080fd5b50610c9d61229d565b6040518082815260200191505060405180910390f35b8273ffffffffffffffffffffffffffffffffffffffff163373ffffffffffffffffffffffffffffffffffffffff161415610fae57600260008473ffffffffffffffffffffffffffffffffffffffff1673ffffffffffffffffffffffffffffffffffffffff1681526020019081526020016000206003016001600260008673ffffffffffffffffffffffffffffffffffffffff1673ffffffffffffffffffffffffffffffffffffffff1681526020019081526020016000206003018054905003815481101515610d7e57fe5b9060005260206000200154600260008573ffffffffffffffffffffffffffffffffffffffff1673ffffffffffffffffffffffffffffffffffffffff16815260200190815260200160002060030182815481101515610dd857fe5b906000526020600020018160001916905550600260008473ffffffffffffffffffffffffffffffffffffffff1673ffffffffffffffffffffffffffffffffffffffff1681526020019081526020016000206003016001600260008673ffffffffffffffffffffffffffffffffffffffff1673ffffffffffffffffffffffffffffffffffffffff1681526020019081526020016000206003018054905003815481101515610e8157fe5b9060005260206000200160009055600260008473ffffffffffffffffffffffffffffffffffffffff1673ffffffffffffffffffffffffffffffffffffffff168152602001908152602001600020600301805480919060019003610ee491906122a7565b5060036000836000191660001916815260200190815260200160002060008082016000610f1191906122d3565b6001820160006101000a81549073ffffffffffffffffffffffffffffffffffffffff02191690556002820160009055600482016000610f50919061231b565b60058201600090555050600260008473ffffffffffffffffffffffffffffffffffffffff1673ffffffffffffffffffffffffffffffffffffffff16815260200190815260200160002060040160008154809291906001900391905055505b505050565b6000809054906101000a900473ffffffffffffffffffffffffffffffffffffffff1673ffffffffffffffffffffffffffffffffffffffff163373ffffffffffffffffffffffffffffffffffffffff1614151561100e57600080fd5b6000600260008373ffffffffffffffffffffffffffffffffffffffff1673ffffffffffffffffffffffffffffffffffffffff16815260200190815260200160002060080160006101000a81548160ff02191690831515021790555050565b600060046000838152602001908152602001600020549050919050565b6000809054906101000a900473ffffffffffffffffffffffffffffffffffffffff1673ffffffffffffffffffffffffffffffffffffffff163373ffffffffffffffffffffffffffffffffffffffff161415156110e457600080fd5b3373ffffffffffffffffffffffffffffffffffffffff16ff5b6000600260008473ffffffffffffffffffffffffffffffffffffffff1673ffffffffffffffffffffffffffffffffffffffff1681526020019081526020016000206005018281548110151561114e57fe5b9060005260206000200160009054906101000a900473ffffffffffffffffffffffffffffffffffffffff16905092915050565b6000600260008473ffffffffffffffffffffffffffffffffffffffff1673ffffffffffffffffffffffffffffffffffffffff168152602001908152602001600020600301828154811015156111d257fe5b9060005260206000200154905092915050565b6060806060600080600080600260008973ffffffffffffffffffffffffffffffffffffffff1673ffffffffffffffffffffffffffffffffffffffff168152602001908152602001600020600001600260008a73ffffffffffffffffffffffffffffffffffffffff1673ffffffffffffffffffffffffffffffffffffffff168152602001908152602001600020600101600260008b73ffffffffffffffffffffffffffffffffffffffff1673ffffffffffffffffffffffffffffffffffffffff168152602001908152602001600020600201600260008c73ffffffffffffffffffffffffffffffffffffffff1673ffffffffffffffffffffffffffffffffffffffff16815260200190815260200160002060080160009054906101000a900460ff16600260008d73ffffffffffffffffffffffffffffffffffffffff1673ffffffffffffffffffffffffffffffffffffffff16815260200190815260200160002060040154600260008e73ffffffffffffffffffffffffffffffffffffffff1673ffffffffffffffffffffffffffffffffffffffff16815260200190815260200160002060060154600260008f73ffffffffffffffffffffffffffffffffffffffff1673ffffffffffffffffffffffffffffffffffffffff16815260200190815260200160002060070154868054600181600116156101000203166002900480601f0160208091040260200160405190810160405280929190818152602001828054600181600116156101000203166002900480156114645780601f1061143957610100808354040283529160200191611464565b820191906000526020600020905b81548152906001019060200180831161144757829003601f168201915b50505050509650858054600181600116156101000203166002900480601f0160208091040260200160405190810160405280929190818152602001828054600181600116156101000203166002900480156115005780601f106114d557610100808354040283529160200191611500565b820191906000526020600020905b8154815290600101906020018083116114e357829003601f168201915b50505050509550848054600181600116156101000203166002900480601f01602080910402602001604051908101604052809291908181526020018280546001816001161561010002031660029004801561159c5780601f106115715761010080835404028352916020019161159c565b820191906000526020600020905b81548152906001019060200180831161157f57829003601f168201915b505050505094509650965096509650965096509650919395979092949650565b6003602052806000526040600020600091509050806000018054600181600116156101000203166002900480601f0160208091040260200160405190810160405280929190818152602001828054600181600116156101000203166002900480156116685780601f1061163d57610100808354040283529160200191611668565b820191906000526020600020905b81548152906001019060200180831161164b57829003601f168201915b5050505050908060010160009054906101000a900473ffffffffffffffffffffffffffffffffffffffff16908060020154908060050154905084565b60606003600084600019166000191681526020019081526020016000206000018054600181600116156101000203166002900480601f0160208091040260200160405190810160405280929190818152602001828054600181600116156101000203166002900480156117585780601f1061172d57610100808354040283529160200191611758565b820191906000526020600020905b81548152906001019060200180831161173b57829003601f168201915b505050505090506000815114156119115783600360008560001916600019168152602001908152602001600020600001908051906020019061179b92919061233c565b503360036000856000191660001916815260200190815260200160002060010160006101000a81548173ffffffffffffffffffffffffffffffffffffffff021916908373ffffffffffffffffffffffffffffffffffffffff1602179055508160036000856000191660001916815260200190815260200160002060020181905550600260003373ffffffffffffffffffffffffffffffffffffffff1673ffffffffffffffffffffffffffffffffffffffff16815260200190815260200160002060040160008154809291906001019190505550600260003373ffffffffffffffffffffffffffffffffffffffff1673ffffffffffffffffffffffffffffffffffffffff1681526020019081526020016000206003018390806001815401808255809150509060018203906000526020600020016000909192909190915090600019169055508260046000600554815260200190815260200160002081600019169055506005600081548092919060010191905055505b50505050565b60006119238383611a0c565b90508073ffffffffffffffffffffffffffffffffffffffff163373ffffffffffffffffffffffffffffffffffffffff1614156119b5576001600260008673ffffffffffffffffffffffffffffffffffffffff1673ffffffffffffffffffffffffffffffffffffffff16815260200190815260200160002060080160006101000a81548160ff0219169083151502179055505b50505050565b60008060009054906101000a900473ffffffffffffffffffffffffffffffffffffffff16905090565b6000600360008360001916600019168152602001908152602001600020600201549050919050565b600060036000846000191660001916815260200190815260200160002060030160008373ffffffffffffffffffffffffffffffffffffffff1673ffffffffffffffffffffffffffffffffffffffff16815260200190815260200160002060009054906101000a900473ffffffffffffffffffffffffffffffffffffffff16905092915050565b6000602082511115611aa357600080fd5b60208201519050919050565b600060036000846000191660001916815260200190815260200160002060040182815481101515611adc57fe5b9060005260206000200160009054906101000a900473ffffffffffffffffffffffffffffffffffffffff16905092915050565b6002602052806000526040600020600091509050806000018054600181600116156101000203166002900480601f016020809104026020016040519081016040528092919081815260200182805460018160011615610100020316600290048015611bbb5780601f10611b9057610100808354040283529160200191611bbb565b820191906000526020600020905b815481529060010190602001808311611b9e57829003601f168201915b505050505090806001018054600181600116156101000203166002900480601f016020809104026020016040519081016040528092919081815260200182805460018160011615610100020316600290048015611c595780601f10611c2e57610100808354040283529160200191611c59565b820191906000526020600020905b815481529060010190602001808311611c3c57829003601f168201915b505050505090806002018054600181600116156101000203166002900480601f016020809104026020016040519081016040528092919081815260200182805460018160011615610100020316600290048015611cf75780601f10611ccc57610100808354040283529160200191611cf7565b820191906000526020600020905b815481529060010190602001808311611cda57829003601f168201915b5050505050908060040154908060060154908060070154908060080160009054906101000a900460ff16905087565b600160009054906101000a900473ffffffffffffffffffffffffffffffffffffffff1681565b8373ffffffffffffffffffffffffffffffffffffffff163373ffffffffffffffffffffffffffffffffffffffff16141515611d8657600080fd5b82600260008673ffffffffffffffffffffffffffffffffffffffff1673ffffffffffffffffffffffffffffffffffffffff1681526020019081526020016000206000019080519060200190611ddc92919061233c565b5081600260008673ffffffffffffffffffffffffffffffffffffffff1673ffffffffffffffffffffffffffffffffffffffff1681526020019081526020016000206001019080519060200190611e3392919061233c565b5080600260008673ffffffffffffffffffffffffffffffffffffffff1673ffffffffffffffffffffffffffffffffffffffff1681526020019081526020016000206002019080519060200190611e8a92919061233c565b506000600260008673ffffffffffffffffffffffffffffffffffffffff1673ffffffffffffffffffffffffffffffffffffffff16815260200190815260200160002060080160006101000a81548160ff0219169083151502179055506000600260008673ffffffffffffffffffffffffffffffffffffffff1673ffffffffffffffffffffffffffffffffffffffff168152602001908152602001600020600401819055506000600260008673ffffffffffffffffffffffffffffffffffffffff1673ffffffffffffffffffffffffffffffffffffffff168152602001908152602001600020600601819055506000600260008673ffffffffffffffffffffffffffffffffffffffff1673ffffffffffffffffffffffffffffffffffffffff1681526020019081526020016000206007018190555050505050565b600260003373ffffffffffffffffffffffffffffffffffffffff1673ffffffffffffffffffffffffffffffffffffffff1681526020019081526020016000206005018190806001815401808255809150509060018203906000526020600020016000909192909190916101000a81548173ffffffffffffffffffffffffffffffffffffffff021916908373ffffffffffffffffffffffffffffffffffffffff16021790555050600260003373ffffffffffffffffffffffffffffffffffffffff1673ffffffffffffffffffffffffffffffffffffffff1681526020019081526020016000206006016000815480929190600101919050555050565b8060036000846000191660001916815260200190815260200160002060030160003373ffffffffffffffffffffffffffffffffffffffff1673ffffffffffffffffffffffffffffffffffffffff16815260200190815260200160002060006101000a81548173ffffffffffffffffffffffffffffffffffffffff021916908373ffffffffffffffffffffffffffffffffffffffff1602179055506003600083600019166000191681526020019081526020016000206004018190806001815401808255809150509060018203906000526020600020016000909192909190916101000a81548173ffffffffffffffffffffffffffffffffffffffff021916908373ffffffffffffffffffffffffffffffffffffffff16021790555050600360008360001916600019168152602001908152602001600020600501600081548092919060010191905055506002600060036000856000191660001916815260200190815260200160002060010160009054906101000a900473ffffffffffffffffffffffffffffffffffffffff1673ffffffffffffffffffffffffffffffffffffffff1673ffffffffffffffffffffffffffffffffffffffff168152602001908152602001600020600701600081548092919060010191905055505050565b6000600554905090565b8154818355818111156122ce578183600052602060002091820191016122cd91906123bc565b5b505050565b50805460018160011615610100020316600290046000825580601f106122f95750612318565b601f01602090049060005260206000209081019061231791906123e1565b5b50565b508054600082559060005260206000209081019061233991906123e1565b50565b828054600181600116156101000203166002900490600052602060002090601f016020900481019282601f1061237d57805160ff19168380011785556123ab565b828001600101855582156123ab579182015b828111156123aa57825182559160200191906001019061238f565b5b5090506123b891906123e1565b5090565b6123de91905b808211156123da5760008160009055506001016123c2565b5090565b90565b61240391905b808211156123ff5760008160009055506001016123e7565b5090565b905600a165627a7a72305820ff70a9c37d6b7645bd7f7e589d21646e8f5bdd8c8a881aaa2326a85c41ecab820029",
  "source": "pragma solidity ^0.4.23;\r\n\r\ncontract Market {\r\n\r\naddress private owner;\r\n\r\naddress public children;\r\n\r\nconstructor() {\r\n  owner = msg.sender;\r\n  productsCount = 0;\r\n}\r\n\r\n\r\nstruct user {\r\n  string publicKey;\r\n  string name;\r\n  string avatar;\r\n  bytes32[] products;\r\n  uint256 productsLenght;\r\n  address[] purchaseLUT;\r\n  uint256 purchaseLUTLenght;\r\n  uint256 saleNumber;\r\n  bool blocked;\r\n}\r\n\r\nmapping (address => user) public users;\r\n\r\nfunction addUser(address userAddress, string key, string name, string avatar) public {\r\n  require(msg.sender == userAddress);\r\n  users[userAddress].publicKey = key;\r\n  users[userAddress].name = name;\r\n  users[userAddress].avatar = avatar;\r\n  users[userAddress].blocked = false;\r\n  users[userAddress].productsLenght = 0;  \r\n  users[userAddress].purchaseLUTLenght = 0; \r\n  users[userAddress].saleNumber = 0;\r\n}\r\n\r\nfunction addUserPurchase(address escrowAddress) public {\r\n  users[msg.sender].purchaseLUT.push(escrowAddress);\r\n  users[msg.sender].purchaseLUTLenght++;\r\n}\r\n\r\n\r\nfunction getUser(address userAddress) public view returns (string,string,string,bool,uint256,uint256,uint256) {\r\n  return (users[userAddress].publicKey,users[userAddress].name,users[userAddress].avatar,users[userAddress].blocked,users[userAddress].productsLenght,users[userAddress].purchaseLUTLenght,users[userAddress].saleNumber);\r\n}\r\n\r\n\r\n\r\nfunction getUserProduct(address userAddress, uint256 index) returns(bytes32) {\r\n  return users[userAddress].products[index];\r\n}\r\n\r\nfunction getUserPurchase(address userAddress, uint256 index) returns(address) {\r\n  return users[userAddress].purchaseLUT[index];\r\n}\r\n\r\n\r\nfunction getOwner() public view returns (address) {\r\n  return owner;\r\n}\r\n\r\nfunction blockUser(address user, bytes32 product, address buyer) public {\r\n  var requesterAddress = getEscrowAddress(product,buyer);\r\n  if (msg.sender == requesterAddress) {\r\n    users[user].blocked = true;\r\n  }\r\n}\r\n\r\nstruct product {\r\n  string description;\r\n  address seller;\r\n  uint256 price;\r\n  mapping (address => address) purchase;\r\n  address[] purchaseLUT;\r\n  uint256 purchaseLUTLenght;\r\n}\r\n\r\nmapping (bytes32 => product) public products;\r\nmapping (uint => bytes32) private productsIndex; //doSomeStuff(accountBalances[accountIndex[i]]);\r\nuint private  productsCount;\r\n\r\nfunction getProductPurchase(bytes32 product, uint256 index) returns(address) {\r\n  return products[product].purchaseLUT[index];\r\n}\r\n\r\nfunction getProductPrice(bytes32 product) returns(uint256) {\r\n  return products[product].price;\r\n}\r\n\r\nfunction purchase(bytes32 hashFile, address escrowAddress) {\r\n  products[hashFile].purchase[msg.sender] = escrowAddress;\r\n  products[hashFile].purchaseLUT.push(escrowAddress);\r\n  products[hashFile].purchaseLUTLenght++;\r\n  users[products[hashFile].seller].saleNumber++;\r\n}\r\n\r\nfunction getEscrowAddress(bytes32 hashFile, address buyer) returns(address) {\r\n  return products[hashFile].purchase[buyer];\r\n}\r\n\r\n/*function existProduct(string hashFile) public view returns (bool){\r\n  if (products[hashFile].description == \"\") return false;\r\n  else return true;\r\n}*/\r\n\r\n/*\r\nfunction find(uint value) returns(uint) {\r\n        uint i = 0;\r\n        while (values[i] != value) {\r\n            i++;\r\n        }\r\n        return i;\r\n    }\r\n\r\n    function removeByValue(uint value) {\r\n        uint i = find(value);\r\n        removeByIndex(i);\r\n    }\r\n */\r\n\r\n\r\nfunction addProduct(string description, bytes32 hashProduct, uint256 price) public /*payable*/ {\r\n  //bytes32 hashProduct = convert(hashString);\r\n  bytes memory EmptyStringTest = bytes(products[hashProduct].description); \r\n  if(EmptyStringTest.length == 0) {\r\n    products[hashProduct].description = description;\r\n    products[hashProduct].seller = msg.sender;\r\n    products[hashProduct].price = price;\r\n    users[msg.sender].productsLenght++;\r\n    users[msg.sender].products.push(hashProduct);\r\n    productsIndex[productsCount] = hashProduct;\r\n    productsCount++;\r\n  }\r\n}\r\n\r\nfunction convert(string key) returns (bytes32 ret) {\r\n    if (bytes(key).length > 32) {\r\n      throw;\r\n    }\r\n\r\n    assembly {\r\n      ret := mload(add(key, 32))\r\n    }\r\n  }\r\n/*\r\nfunction getProduct(bytes32 hashProduct) public returns(string,address,uint256,uint256) {\r\n  //bytes32 hashProduct = convert(hashString);\r\n  return (products[hashProduct].description,products[hashProduct].seller,products[hashProduct].price,products[hashProduct].purchaseLUTLenght);\r\n}*/\r\n\r\nfunction getProductCode(uint code) public returns(bytes32) {\r\n  return productsIndex[code];\r\n}\r\n\r\nfunction getProductCode() public returns(uint) {\r\n  return productsCount;\r\n}\r\n\r\nfunction deleteProduct(address user, bytes32 hashProduct, uint256 index) public {\r\n  //bytes32 hashProduct = convert(hashString);\r\n  if (msg.sender == user) {\r\n    users[user].products[index] = users[user].products[users[user].products.length-1];\r\n    delete users[user].products[users[user].products.length-1];\r\n    users[user].products.length--;\r\n    delete products[hashProduct];\r\n    users[user].productsLenght--;\r\n  }\r\n}\r\n\r\n//function deposit(address payee) public payable\r\n\r\nfunction unblockUser (address user) restricted public {\r\n  users[user].blocked = false;\r\n}\r\n\r\n  \r\nfunction kill() restricted public {\r\n    selfdestruct(msg.sender);\r\n  }\r\n\r\nmodifier restricted() {\r\n    require(msg.sender == owner);\r\n    _;\r\n  }\r\n}\r\n",
  "sourcePath": "C:\\Users\\esolazzo\\Desktop\\client\\contract\\contracts\\Market.sol",
  "compiler": {
    "name": "solc",
    "version": "0.4.24+commit.e67f0147.Emscripten.clang"
  },
  "schemaVersion": "2.0.1",
  "updatedAt": "2018-12-11T14:55:47.146Z"
}