{
  "contractName": "MarketEscrow",
  "abi": [
    {
      "constant": false,
      "inputs": [
        {
          "name": "recipient",
          "type": "address"
        }
      ],
      "name": "transferPrimary",
      "outputs": [],
      "payable": false,
      "stateMutability": "nonpayable",
      "type": "function"
    },
    {
      "constant": true,
      "inputs": [],
      "name": "buyer",
      "outputs": [
        {
          "name": "",
          "type": "address"
        }
      ],
      "payable": false,
      "stateMutability": "view",
      "type": "function"
    },
    {
      "constant": true,
      "inputs": [],
      "name": "payee",
      "outputs": [
        {
          "name": "",
          "type": "address"
        }
      ],
      "payable": false,
      "stateMutability": "view",
      "type": "function"
    },
    {
      "constant": true,
      "inputs": [],
      "name": "primary",
      "outputs": [
        {
          "name": "",
          "type": "address"
        }
      ],
      "payable": false,
      "stateMutability": "view",
      "type": "function"
    },
    {
      "constant": true,
      "inputs": [],
      "name": "hashFile",
      "outputs": [
        {
          "name": "",
          "type": "bytes32"
        }
      ],
      "payable": false,
      "stateMutability": "view",
      "type": "function"
    },
    {
      "constant": true,
      "inputs": [
        {
          "name": "payee",
          "type": "address"
        }
      ],
      "name": "depositsOf",
      "outputs": [
        {
          "name": "",
          "type": "uint256"
        }
      ],
      "payable": false,
      "stateMutability": "view",
      "type": "function"
    },
    {
      "constant": false,
      "inputs": [
        {
          "name": "payee",
          "type": "address"
        }
      ],
      "name": "deposit",
      "outputs": [],
      "payable": true,
      "stateMutability": "payable",
      "type": "function"
    },
    {
      "inputs": [
        {
          "name": "addr",
          "type": "address"
        },
        {
          "name": "hFile",
          "type": "bytes32"
        }
      ],
      "payable": false,
      "stateMutability": "nonpayable",
      "type": "constructor"
    },
    {
      "anonymous": false,
      "inputs": [
        {
          "indexed": true,
          "name": "payee",
          "type": "address"
        },
        {
          "indexed": false,
          "name": "weiAmount",
          "type": "uint256"
        }
      ],
      "name": "Deposited",
      "type": "event"
    },
    {
      "anonymous": false,
      "inputs": [
        {
          "indexed": true,
          "name": "payee",
          "type": "address"
        },
        {
          "indexed": false,
          "name": "weiAmount",
          "type": "uint256"
        }
      ],
      "name": "Withdrawn",
      "type": "event"
    },
    {
      "constant": false,
      "inputs": [
        {
          "name": "p",
          "type": "address"
        }
      ],
      "name": "setPayee",
      "outputs": [],
      "payable": false,
      "stateMutability": "nonpayable",
      "type": "function"
    },
    {
      "constant": false,
      "inputs": [
        {
          "name": "hFile",
          "type": "bytes32"
        },
        {
          "name": "hEncryptedFile",
          "type": "bytes32"
        }
      ],
      "name": "setFile",
      "outputs": [],
      "payable": true,
      "stateMutability": "payable",
      "type": "function"
    },
    {
      "constant": true,
      "inputs": [],
      "name": "getHashAddress",
      "outputs": [
        {
          "name": "",
          "type": "bytes32"
        }
      ],
      "payable": false,
      "stateMutability": "view",
      "type": "function"
    },
    {
      "constant": false,
      "inputs": [],
      "name": "depositFromBuyer",
      "outputs": [],
      "payable": true,
      "stateMutability": "payable",
      "type": "function"
    },
    {
      "constant": true,
      "inputs": [
        {
          "name": "payee",
          "type": "address"
        }
      ],
      "name": "withdrawalAllowed",
      "outputs": [
        {
          "name": "",
          "type": "bool"
        }
      ],
      "payable": false,
      "stateMutability": "view",
      "type": "function"
    },
    {
      "constant": false,
      "inputs": [
        {
          "name": "payee",
          "type": "address"
        }
      ],
      "name": "withdraw",
      "outputs": [],
      "payable": false,
      "stateMutability": "nonpayable",
      "type": "function"
    },
    {
      "constant": false,
      "inputs": [
        {
          "name": "payee",
          "type": "address"
        }
      ],
      "name": "blockUser",
      "outputs": [],
      "payable": false,
      "stateMutability": "nonpayable",
      "type": "function"
    },
    {
      "constant": false,
      "inputs": [
        {
          "name": "payee",
          "type": "address"
        }
      ],
      "name": "refundBuyer",
      "outputs": [],
      "payable": false,
      "stateMutability": "nonpayable",
      "type": "function"
    }
  ],
  "bytecode": "0x608060405234801561001057600080fd5b506040516040806114d78339810180604052810190808051906020019092919080519060200190929190505050336000806101000a81548173ffffffffffffffffffffffffffffffffffffffff021916908373ffffffffffffffffffffffffffffffffffffffff16021790555062015180420160078190555081600660006101000a81548173ffffffffffffffffffffffffffffffffffffffff021916908373ffffffffffffffffffffffffffffffffffffffff16021790555060006009819055506000600a8190555033600260016101000a81548173ffffffffffffffffffffffffffffffffffffffff021916908373ffffffffffffffffffffffffffffffffffffffff1602179055508060038160001916905550600660009054906101000a900473ffffffffffffffffffffffffffffffffffffffff16600b60006101000a81548173ffffffffffffffffffffffffffffffffffffffff021916908373ffffffffffffffffffffffffffffffffffffffff1602179055506000600260006101000a81548160ff021916908360048111156101a857fe5b02179055505050611319806101be6000396000f3006080604052600436106100db576000357c0100000000000000000000000000000000000000000000000000000000900463ffffffff1680632348238c146100e05780633da0132514610123578063410459ad1461016657806351cff8d9146101a95780635db53f8b146101ec5780635f71f317146101f6578063685ca194146102395780637150d8ae14610294578063a1fed6e8146102eb578063ae90b2131461031d578063c6dbdf6114610374578063d8e30a87146103cb578063e3a9db1a146103fe578063f340fa0114610455578063fa285e4c1461048b575b600080fd5b3480156100ec57600080fd5b50610121600480360381019080803573ffffffffffffffffffffffffffffffffffffffff1690602001909291905050506104be565b005b34801561012f57600080fd5b50610164600480360381019080803573ffffffffffffffffffffffffffffffffffffffff169060200190929190505050610598565b005b34801561017257600080fd5b506101a7600480360381019080803573ffffffffffffffffffffffffffffffffffffffff1690602001909291905050506107af565b005b3480156101b557600080fd5b506101ea600480360381019080803573ffffffffffffffffffffffffffffffffffffffff16906020019092919050505061084e565b005b6101f4610987565b005b34801561020257600080fd5b50610237600480360381019080803573ffffffffffffffffffffffffffffffffffffffff169060200190929190505050610a20565b005b34801561024557600080fd5b5061027a600480360381019080803573ffffffffffffffffffffffffffffffffffffffff169060200190929190505050610bb3565b604051808215151515815260200191505060405180910390f35b3480156102a057600080fd5b506102a9610da8565b604051808273ffffffffffffffffffffffffffffffffffffffff1673ffffffffffffffffffffffffffffffffffffffff16815260200191505060405180910390f35b61031b60048036038101908080356000191690602001909291908035600019169060200190929190505050610dce565b005b34801561032957600080fd5b50610332610eb0565b604051808273ffffffffffffffffffffffffffffffffffffffff1673ffffffffffffffffffffffffffffffffffffffff16815260200191505060405180910390f35b34801561038057600080fd5b50610389610ed6565b604051808273ffffffffffffffffffffffffffffffffffffffff1673ffffffffffffffffffffffffffffffffffffffff16815260200191505060405180910390f35b3480156103d757600080fd5b506103e0610eff565b60405180826000191660001916815260200191505060405180910390f35b34801561040a57600080fd5b5061043f600480360381019080803573ffffffffffffffffffffffffffffffffffffffff169060200190929190505050610f05565b6040518082815260200191505060405180910390f35b610489600480360381019080803573ffffffffffffffffffffffffffffffffffffffff169060200190929190505050610f4e565b005b34801561049757600080fd5b506104a0611095565b60405180826000191660001916815260200191505060405180910390f35b6000809054906101000a900473ffffffffffffffffffffffffffffffffffffffff1673ffffffffffffffffffffffffffffffffffffffff163373ffffffffffffffffffffffffffffffffffffffff1614151561051957600080fd5b600073ffffffffffffffffffffffffffffffffffffffff168173ffffffffffffffffffffffffffffffffffffffff161415151561055557600080fd5b806000806101000a81548173ffffffffffffffffffffffffffffffffffffffff021916908373ffffffffffffffffffffffffffffffffffffffff16021790555050565b6000809054906101000a900473ffffffffffffffffffffffffffffffffffffffff1673ffffffffffffffffffffffffffffffffffffffff163373ffffffffffffffffffffffffffffffffffffffff161415156105f357600080fd5b600b60009054906101000a900473ffffffffffffffffffffffffffffffffffffffff1673ffffffffffffffffffffffffffffffffffffffff16637cebadb1826003543073ffffffffffffffffffffffffffffffffffffffff1663c6dbdf616040518163ffffffff167c0100000000000000000000000000000000000000000000000000000000028152600401602060405180830381600087803b15801561069957600080fd5b505af11580156106ad573d6000803e3d6000fd5b505050506040513d60208110156106c357600080fd5b81019080805190602001909291905050506040518463ffffffff167c0100000000000000000000000000000000000000000000000000000000028152600401808473ffffffffffffffffffffffffffffffffffffffff1673ffffffffffffffffffffffffffffffffffffffff16815260200183600019166000191681526020018273ffffffffffffffffffffffffffffffffffffffff1673ffffffffffffffffffffffffffffffffffffffff1681526020019350505050600060405180830381600087803b15801561079457600080fd5b505af11580156107a8573d6000803e3d6000fd5b5050505050565b6000809054906101000a900473ffffffffffffffffffffffffffffffffffffffff1673ffffffffffffffffffffffffffffffffffffffff163373ffffffffffffffffffffffffffffffffffffffff1614151561080a57600080fd5b80600860006101000a81548173ffffffffffffffffffffffffffffffffffffffff021916908373ffffffffffffffffffffffffffffffffffffffff16021790555050565b6000809054906101000a900473ffffffffffffffffffffffffffffffffffffffff1673ffffffffffffffffffffffffffffffffffffffff163373ffffffffffffffffffffffffffffffffffffffff161415156108a957600080fd5b6108b281610bb3565b15156108bd57600080fd5b8073ffffffffffffffffffffffffffffffffffffffff166108fc6009549081150290604051600060405180830381858888f19350505050158015610905573d6000803e3d6000fd5b503373ffffffffffffffffffffffffffffffffffffffff166108fc600a549081150290604051600060405180830381858888f1935050505015801561094e573d6000803e3d6000fd5b506109576110fa565b6109608161110c565b6004600260006101000a81548160ff0219169083600481111561097f57fe5b021790555050565b6000809054906101000a900473ffffffffffffffffffffffffffffffffffffffff1673ffffffffffffffffffffffffffffffffffffffff163373ffffffffffffffffffffffffffffffffffffffff161415156109e257600080fd5b6000600a541415156109f357600080fd5b34600a819055506001600260006101000a81548160ff02191690836004811115610a1957fe5b0217905550565b6000809054906101000a900473ffffffffffffffffffffffffffffffffffffffff1673ffffffffffffffffffffffffffffffffffffffff163373ffffffffffffffffffffffffffffffffffffffff16141515610a7b57600080fd5b610a8481610bb3565b1515610bb0573373ffffffffffffffffffffffffffffffffffffffff166108fc6009549081150290604051600060405180830381858888f19350505050158015610ad2573d6000803e3d6000fd5b503373ffffffffffffffffffffffffffffffffffffffff166108fc600a549081150290604051600060405180830381858888f19350505050158015610b1b573d6000803e3d6000fd5b50610b246110fa565b3373ffffffffffffffffffffffffffffffffffffffff166108fc610b4783610f05565b9081150290604051600060405180830381858888f19350505050158015610b72573d6000803e3d6000fd5b506004600260006101000a81548160ff02191690836004811115610b9257fe5b02179055503373ffffffffffffffffffffffffffffffffffffffff16ff5b50565b600080600b60009054906101000a900473ffffffffffffffffffffffffffffffffffffffff1673ffffffffffffffffffffffffffffffffffffffff166392ab73d96003543073ffffffffffffffffffffffffffffffffffffffff1663c6dbdf616040518163ffffffff167c0100000000000000000000000000000000000000000000000000000000028152600401602060405180830381600087803b158015610c5b57600080fd5b505af1158015610c6f573d6000803e3d6000fd5b505050506040513d6020811015610c8557600080fd5b81019080805190602001909291905050506040518363ffffffff167c01000000000000000000000000000000000000000000000000000000000281526004018083600019166000191681526020018273ffffffffffffffffffffffffffffffffffffffff1673ffffffffffffffffffffffffffffffffffffffff16815260200192505050602060405180830381600087803b158015610d2357600080fd5b505af1158015610d37573d6000803e3d6000fd5b505050506040513d6020811015610d4d57600080fd5b810190808051906020019092919050505090503073ffffffffffffffffffffffffffffffffffffffff168173ffffffffffffffffffffffffffffffffffffffff161415610d9d5760019150610da2565b600091505b50919050565b600260019054906101000a900473ffffffffffffffffffffffffffffffffffffffff1681565b600860009054906101000a900473ffffffffffffffffffffffffffffffffffffffff1673ffffffffffffffffffffffffffffffffffffffff163373ffffffffffffffffffffffffffffffffffffffff16141515610e2a57600080fd5b6000600954141515610e3b57600080fd5b816000191660035460001916141515610e5357600080fd5b806004816000191690555060028060006101000a81548160ff02191690836004811115610e7c57fe5b0217905550346009819055506003600260006101000a81548160ff02191690836004811115610ea757fe5b02179055505050565b600860009054906101000a900473ffffffffffffffffffffffffffffffffffffffff1681565b60008060009054906101000a900473ffffffffffffffffffffffffffffffffffffffff16905090565b60035481565b6000600160008373ffffffffffffffffffffffffffffffffffffffff1673ffffffffffffffffffffffffffffffffffffffff168152602001908152602001600020549050919050565b60008060009054906101000a900473ffffffffffffffffffffffffffffffffffffffff1673ffffffffffffffffffffffffffffffffffffffff163373ffffffffffffffffffffffffffffffffffffffff16141515610fab57600080fd5b34905061100081600160008573ffffffffffffffffffffffffffffffffffffffff1673ffffffffffffffffffffffffffffffffffffffff1681526020019081526020016000205461112c90919063ffffffff16565b600160008473ffffffffffffffffffffffffffffffffffffffff1673ffffffffffffffffffffffffffffffffffffffff168152602001908152602001600020819055508173ffffffffffffffffffffffffffffffffffffffff167f2da466a7b24304f47e87fa2e1e5a81b9831ce54fec19055ce277ca2f39ba42c4826040518082815260200191505060405180910390a25050565b60008060009054906101000a900473ffffffffffffffffffffffffffffffffffffffff1673ffffffffffffffffffffffffffffffffffffffff163373ffffffffffffffffffffffffffffffffffffffff161415156110f257600080fd5b600454905090565b60006009819055506000600a81905550565b61111581610bb3565b151561112057600080fd5b6111298161114d565b50565b600080828401905083811015151561114357600080fd5b8091505092915050565b60008060009054906101000a900473ffffffffffffffffffffffffffffffffffffffff1673ffffffffffffffffffffffffffffffffffffffff163373ffffffffffffffffffffffffffffffffffffffff161415156111aa57600080fd5b600160008373ffffffffffffffffffffffffffffffffffffffff1673ffffffffffffffffffffffffffffffffffffffff168152602001908152602001600020549050803073ffffffffffffffffffffffffffffffffffffffff16311015151561120f57fe5b6000600160008473ffffffffffffffffffffffffffffffffffffffff1673ffffffffffffffffffffffffffffffffffffffff168152602001908152602001600020819055508173ffffffffffffffffffffffffffffffffffffffff166108fc829081150290604051600060405180830381858888f1935050505015801561129a573d6000803e3d6000fd5b508173ffffffffffffffffffffffffffffffffffffffff167f7084f5476618d8e60b11ef0d7d3f06914655adb8793e28ff7f018d4c76d505d5826040518082815260200191505060405180910390a250505600a165627a7a723058208a86eea77c638f0ee98b3247fad8d4c920ecdce0b6e7f8c24181cdd9ce78e3cd0029",
  "source": "pragma solidity ^0.4.23;\r\n\r\nimport '../../node_modules/openzeppelin-solidity/contracts/payment/ConditionalEscrow.sol';\r\nimport './Market.sol';\r\n\r\ncontract MarketEscrow is ConditionalEscrow {\r\n\r\nenum State {CREATED,DEPOSIT_BUYER,LOADED_FILE,DEPOSIT_SELLER,FINISHED}\r\nState state;\r\n    \r\naddress public buyer;    \r\nbytes32 public hashFile;\r\nbytes32 private hashEncryptedFile;\r\nstring private addressEncryptedFile; // DA VALUTARE\r\naddress private marketAddress; \r\nuint256 private expiration;\r\naddress public payee;\r\nuint256 private depositPayee;\r\nuint256 private depositBuyer;\r\nMarket private marketIstance;\r\n    \r\nconstructor(address addr,bytes32 hFile) public {\r\n    expiration = now + 86400;\r\n    marketAddress = addr;\r\n    depositPayee = 0;\r\n    depositBuyer = 0;\r\n    buyer = msg.sender;\r\n    hashFile = hFile;\r\n    marketIstance = Market(marketAddress);\r\n    state = State.CREATED;\r\n    }    \r\n    \r\nfunction setPayee(address p) public onlyPrimary() {\r\n payee = p;\r\n}\r\n\r\nfunction setFile(bytes32 hFile, bytes32 hEncryptedFile) public onlyPayee() payable {\r\n    //bytes32 hFile = marketIstance.convert(hFileString);\r\n    //bytes32 hEncryptedFile = marketIstance.convert(hEncryptedFileString);\r\n    require(depositPayee == 0);\r\n    require(hashFile == hFile);\r\n    hashEncryptedFile = hEncryptedFile;\r\n    state = State.LOADED_FILE;\r\n    depositPayee = msg.value;\r\n    state = State.DEPOSIT_SELLER;\r\n}\r\n\r\nfunction getHashAddress() public view onlyPrimary() returns(bytes32) {\r\n    return hashEncryptedFile;\r\n}\r\n\r\nfunction depositFromBuyer() public payable onlyPrimary() {\r\n    require(depositBuyer == 0);\r\n    depositBuyer = msg.value;\r\n    state = State.DEPOSIT_BUYER;\r\n}\r\n\r\nfunction withdrawalAllowed(address payee) public view returns (bool) {\r\n      \r\n        address h = marketIstance.getEscrowAddress(hashFile,this.primary());\r\n        //if(stringsEqual(hashFile,h)) return true;\r\n        if (h == address(this)) {           \r\n            return true;\r\n        }\r\n        else {          \r\n            return false;\r\n        }\r\n    }\r\n\r\nfunction withdraw(address payee) public onlyPrimary() {\r\n    require(withdrawalAllowed(payee));\r\n    payee.transfer(depositPayee);\r\n    msg.sender.transfer(depositBuyer);\r\n    resetDeposit();\r\n    super.withdraw(payee);\r\n    state = State.FINISHED;\r\n  }\r\n\r\nfunction blockUser(address payee) public onlyPrimary() {\r\n marketIstance.blockUser(payee,hashFile,this.primary());\r\n}\r\n\r\nfunction resetDeposit() private {\r\n    depositPayee = 0;\r\n    depositBuyer = 0;\r\n}\r\n\r\nfunction refundBuyer(address payee) public onlyPrimary() {\r\n    if (!withdrawalAllowed(payee)){\r\n        //this.primary().transfer(depositPayee);\r\n        msg.sender.transfer(depositPayee);\r\n        msg.sender.transfer(depositBuyer);\r\n        resetDeposit();\r\n        msg.sender.transfer(depositsOf(payee));\r\n        state = State.FINISHED;\r\n        selfdestruct(msg.sender);\r\n    }       \r\n}\r\n\r\nmodifier onlyPayee() {\r\n    require(msg.sender == payee);\r\n    _;\r\n  }\r\n\r\n\r\n}",
  "sourcePath": "C:\\Users\\esolazzo\\Desktop\\client\\contract\\contracts\\MarketEscrow.sol",
  "compiler": {
    "name": "solc",
    "version": "0.4.24+commit.e67f0147.Emscripten.clang"
  },
  "schemaVersion": "2.0.1",
  "updatedAt": "2018-12-04T13:35:11.409Z"
}