{
  "contractName": "MarketEscrow",
  "abi": [
    {
      "constant": false,
      "inputs": [
        {
          "name": "recipient",
          "type": "address"
        }
      ],
      "name": "transferPrimary",
      "outputs": [],
      "payable": false,
      "stateMutability": "nonpayable",
      "type": "function"
    },
    {
      "constant": true,
      "inputs": [],
      "name": "primary",
      "outputs": [
        {
          "name": "",
          "type": "address"
        }
      ],
      "payable": false,
      "stateMutability": "view",
      "type": "function"
    },
    {
      "constant": true,
      "inputs": [
        {
          "name": "payee",
          "type": "address"
        }
      ],
      "name": "depositsOf",
      "outputs": [
        {
          "name": "",
          "type": "uint256"
        }
      ],
      "payable": false,
      "stateMutability": "view",
      "type": "function"
    },
    {
      "constant": false,
      "inputs": [
        {
          "name": "payee",
          "type": "address"
        }
      ],
      "name": "deposit",
      "outputs": [],
      "payable": true,
      "stateMutability": "payable",
      "type": "function"
    },
    {
      "inputs": [
        {
          "name": "addr",
          "type": "address"
        }
      ],
      "payable": false,
      "stateMutability": "nonpayable",
      "type": "constructor"
    },
    {
      "anonymous": false,
      "inputs": [
        {
          "indexed": true,
          "name": "payee",
          "type": "address"
        },
        {
          "indexed": false,
          "name": "weiAmount",
          "type": "uint256"
        }
      ],
      "name": "Deposited",
      "type": "event"
    },
    {
      "anonymous": false,
      "inputs": [
        {
          "indexed": true,
          "name": "payee",
          "type": "address"
        },
        {
          "indexed": false,
          "name": "weiAmount",
          "type": "uint256"
        }
      ],
      "name": "Withdrawn",
      "type": "event"
    },
    {
      "constant": false,
      "inputs": [
        {
          "name": "p",
          "type": "address"
        }
      ],
      "name": "setPayee",
      "outputs": [],
      "payable": false,
      "stateMutability": "nonpayable",
      "type": "function"
    },
    {
      "constant": false,
      "inputs": [
        {
          "name": "hFile",
          "type": "bytes32"
        },
        {
          "name": "hEncryptedFile",
          "type": "bytes32"
        }
      ],
      "name": "setFile",
      "outputs": [],
      "payable": true,
      "stateMutability": "payable",
      "type": "function"
    },
    {
      "constant": true,
      "inputs": [],
      "name": "getHashAddress",
      "outputs": [
        {
          "name": "",
          "type": "bytes32"
        }
      ],
      "payable": false,
      "stateMutability": "view",
      "type": "function"
    },
    {
      "constant": false,
      "inputs": [],
      "name": "depositFromBuyer",
      "outputs": [],
      "payable": true,
      "stateMutability": "payable",
      "type": "function"
    },
    {
      "constant": true,
      "inputs": [
        {
          "name": "payee",
          "type": "address"
        }
      ],
      "name": "withdrawalAllowed",
      "outputs": [
        {
          "name": "",
          "type": "bool"
        }
      ],
      "payable": false,
      "stateMutability": "view",
      "type": "function"
    },
    {
      "constant": false,
      "inputs": [
        {
          "name": "payee",
          "type": "address"
        }
      ],
      "name": "withdraw",
      "outputs": [],
      "payable": false,
      "stateMutability": "nonpayable",
      "type": "function"
    },
    {
      "constant": false,
      "inputs": [
        {
          "name": "payee",
          "type": "address"
        }
      ],
      "name": "blockUser",
      "outputs": [],
      "payable": false,
      "stateMutability": "nonpayable",
      "type": "function"
    },
    {
      "constant": false,
      "inputs": [
        {
          "name": "payee",
          "type": "address"
        }
      ],
      "name": "refundBuyer",
      "outputs": [],
      "payable": false,
      "stateMutability": "nonpayable",
      "type": "function"
    }
  ],
  "bytecode": "0x608060405234801561001057600080fd5b5060405160208061124883398101806040528101908080519060200190929190505050336000806101000a81548173ffffffffffffffffffffffffffffffffffffffff021916908373ffffffffffffffffffffffffffffffffffffffff16021790555062015180420160058190555080600460006101000a81548173ffffffffffffffffffffffffffffffffffffffff021916908373ffffffffffffffffffffffffffffffffffffffff16021790555060006007819055506000600881905550600460009054906101000a900473ffffffffffffffffffffffffffffffffffffffff16600960006101000a81548173ffffffffffffffffffffffffffffffffffffffff021916908373ffffffffffffffffffffffffffffffffffffffff16021790555050611105806101436000396000f3006080604052600436106100ba576000357c0100000000000000000000000000000000000000000000000000000000900463ffffffff1680632348238c146100bf5780633da0132514610102578063410459ad1461014557806351cff8d9146101885780635db53f8b146101cb5780635f71f317146101d5578063685ca19414610218578063a1fed6e814610273578063c6dbdf61146102a5578063e3a9db1a146102fc578063f340fa0114610353578063fa285e4c14610389575b600080fd5b3480156100cb57600080fd5b50610100600480360381019080803573ffffffffffffffffffffffffffffffffffffffff1690602001909291905050506103bc565b005b34801561010e57600080fd5b50610143600480360381019080803573ffffffffffffffffffffffffffffffffffffffff169060200190929190505050610496565b005b34801561015157600080fd5b50610186600480360381019080803573ffffffffffffffffffffffffffffffffffffffff1690602001909291905050506106ad565b005b34801561019457600080fd5b506101c9600480360381019080803573ffffffffffffffffffffffffffffffffffffffff16906020019092919050505061074c565b005b6101d3610861565b005b3480156101e157600080fd5b50610216600480360381019080803573ffffffffffffffffffffffffffffffffffffffff1690602001909291905050506108d6565b005b34801561022457600080fd5b50610259600480360381019080803573ffffffffffffffffffffffffffffffffffffffff169060200190929190505050610a45565b604051808215151515815260200191505060405180910390f35b6102a360048036038101908080356000191690602001909291908035600019169060200190929190505050610c3a565b005b3480156102b157600080fd5b506102ba610cc8565b604051808273ffffffffffffffffffffffffffffffffffffffff1673ffffffffffffffffffffffffffffffffffffffff16815260200191505060405180910390f35b34801561030857600080fd5b5061033d600480360381019080803573ffffffffffffffffffffffffffffffffffffffff169060200190929190505050610cf1565b6040518082815260200191505060405180910390f35b610387600480360381019080803573ffffffffffffffffffffffffffffffffffffffff169060200190929190505050610d3a565b005b34801561039557600080fd5b5061039e610e81565b60405180826000191660001916815260200191505060405180910390f35b6000809054906101000a900473ffffffffffffffffffffffffffffffffffffffff1673ffffffffffffffffffffffffffffffffffffffff163373ffffffffffffffffffffffffffffffffffffffff1614151561041757600080fd5b600073ffffffffffffffffffffffffffffffffffffffff168173ffffffffffffffffffffffffffffffffffffffff161415151561045357600080fd5b806000806101000a81548173ffffffffffffffffffffffffffffffffffffffff021916908373ffffffffffffffffffffffffffffffffffffffff16021790555050565b6000809054906101000a900473ffffffffffffffffffffffffffffffffffffffff1673ffffffffffffffffffffffffffffffffffffffff163373ffffffffffffffffffffffffffffffffffffffff161415156104f157600080fd5b600960009054906101000a900473ffffffffffffffffffffffffffffffffffffffff1673ffffffffffffffffffffffffffffffffffffffff16637cebadb1826002543073ffffffffffffffffffffffffffffffffffffffff1663c6dbdf616040518163ffffffff167c0100000000000000000000000000000000000000000000000000000000028152600401602060405180830381600087803b15801561059757600080fd5b505af11580156105ab573d6000803e3d6000fd5b505050506040513d60208110156105c157600080fd5b81019080805190602001909291905050506040518463ffffffff167c0100000000000000000000000000000000000000000000000000000000028152600401808473ffffffffffffffffffffffffffffffffffffffff1673ffffffffffffffffffffffffffffffffffffffff16815260200183600019166000191681526020018273ffffffffffffffffffffffffffffffffffffffff1673ffffffffffffffffffffffffffffffffffffffff1681526020019350505050600060405180830381600087803b15801561069257600080fd5b505af11580156106a6573d6000803e3d6000fd5b5050505050565b6000809054906101000a900473ffffffffffffffffffffffffffffffffffffffff1673ffffffffffffffffffffffffffffffffffffffff163373ffffffffffffffffffffffffffffffffffffffff1614151561070857600080fd5b80600660006101000a81548173ffffffffffffffffffffffffffffffffffffffff021916908373ffffffffffffffffffffffffffffffffffffffff16021790555050565b6000809054906101000a900473ffffffffffffffffffffffffffffffffffffffff1673ffffffffffffffffffffffffffffffffffffffff163373ffffffffffffffffffffffffffffffffffffffff161415156107a757600080fd5b6107b081610a45565b15156107bb57600080fd5b8073ffffffffffffffffffffffffffffffffffffffff166108fc6007549081150290604051600060405180830381858888f19350505050158015610803573d6000803e3d6000fd5b503373ffffffffffffffffffffffffffffffffffffffff166108fc6008549081150290604051600060405180830381858888f1935050505015801561084c573d6000803e3d6000fd5b50610855610ee6565b61085e81610ef8565b50565b6000809054906101000a900473ffffffffffffffffffffffffffffffffffffffff1673ffffffffffffffffffffffffffffffffffffffff163373ffffffffffffffffffffffffffffffffffffffff161415156108bc57600080fd5b60006008541415156108cd57600080fd5b34600881905550565b6000809054906101000a900473ffffffffffffffffffffffffffffffffffffffff1673ffffffffffffffffffffffffffffffffffffffff163373ffffffffffffffffffffffffffffffffffffffff1614151561093157600080fd5b61093a81610a45565b1515610a42573373ffffffffffffffffffffffffffffffffffffffff166108fc6007549081150290604051600060405180830381858888f19350505050158015610988573d6000803e3d6000fd5b503373ffffffffffffffffffffffffffffffffffffffff166108fc6008549081150290604051600060405180830381858888f193505050501580156109d1573d6000803e3d6000fd5b506109da610ee6565b3373ffffffffffffffffffffffffffffffffffffffff166108fc6109fd83610cf1565b9081150290604051600060405180830381858888f19350505050158015610a28573d6000803e3d6000fd5b503373ffffffffffffffffffffffffffffffffffffffff16ff5b50565b600080600960009054906101000a900473ffffffffffffffffffffffffffffffffffffffff1673ffffffffffffffffffffffffffffffffffffffff166392ab73d96002543073ffffffffffffffffffffffffffffffffffffffff1663c6dbdf616040518163ffffffff167c0100000000000000000000000000000000000000000000000000000000028152600401602060405180830381600087803b158015610aed57600080fd5b505af1158015610b01573d6000803e3d6000fd5b505050506040513d6020811015610b1757600080fd5b81019080805190602001909291905050506040518363ffffffff167c01000000000000000000000000000000000000000000000000000000000281526004018083600019166000191681526020018273ffffffffffffffffffffffffffffffffffffffff1673ffffffffffffffffffffffffffffffffffffffff16815260200192505050602060405180830381600087803b158015610bb557600080fd5b505af1158015610bc9573d6000803e3d6000fd5b505050506040513d6020811015610bdf57600080fd5b810190808051906020019092919050505090503073ffffffffffffffffffffffffffffffffffffffff168173ffffffffffffffffffffffffffffffffffffffff161415610c2f5760019150610c34565b600091505b50919050565b600660009054906101000a900473ffffffffffffffffffffffffffffffffffffffff1673ffffffffffffffffffffffffffffffffffffffff163373ffffffffffffffffffffffffffffffffffffffff16141515610c9657600080fd5b6000600754141515610ca757600080fd5b81600281600019169055508060038160001916905550346007819055505050565b60008060009054906101000a900473ffffffffffffffffffffffffffffffffffffffff16905090565b6000600160008373ffffffffffffffffffffffffffffffffffffffff1673ffffffffffffffffffffffffffffffffffffffff168152602001908152602001600020549050919050565b60008060009054906101000a900473ffffffffffffffffffffffffffffffffffffffff1673ffffffffffffffffffffffffffffffffffffffff163373ffffffffffffffffffffffffffffffffffffffff16141515610d9757600080fd5b349050610dec81600160008573ffffffffffffffffffffffffffffffffffffffff1673ffffffffffffffffffffffffffffffffffffffff16815260200190815260200160002054610f1890919063ffffffff16565b600160008473ffffffffffffffffffffffffffffffffffffffff1673ffffffffffffffffffffffffffffffffffffffff168152602001908152602001600020819055508173ffffffffffffffffffffffffffffffffffffffff167f2da466a7b24304f47e87fa2e1e5a81b9831ce54fec19055ce277ca2f39ba42c4826040518082815260200191505060405180910390a25050565b60008060009054906101000a900473ffffffffffffffffffffffffffffffffffffffff1673ffffffffffffffffffffffffffffffffffffffff163373ffffffffffffffffffffffffffffffffffffffff16141515610ede57600080fd5b600354905090565b60006007819055506000600881905550565b610f0181610a45565b1515610f0c57600080fd5b610f1581610f39565b50565b6000808284019050838110151515610f2f57600080fd5b8091505092915050565b60008060009054906101000a900473ffffffffffffffffffffffffffffffffffffffff1673ffffffffffffffffffffffffffffffffffffffff163373ffffffffffffffffffffffffffffffffffffffff16141515610f9657600080fd5b600160008373ffffffffffffffffffffffffffffffffffffffff1673ffffffffffffffffffffffffffffffffffffffff168152602001908152602001600020549050803073ffffffffffffffffffffffffffffffffffffffff163110151515610ffb57fe5b6000600160008473ffffffffffffffffffffffffffffffffffffffff1673ffffffffffffffffffffffffffffffffffffffff168152602001908152602001600020819055508173ffffffffffffffffffffffffffffffffffffffff166108fc829081150290604051600060405180830381858888f19350505050158015611086573d6000803e3d6000fd5b508173ffffffffffffffffffffffffffffffffffffffff167f7084f5476618d8e60b11ef0d7d3f06914655adb8793e28ff7f018d4c76d505d5826040518082815260200191505060405180910390a250505600a165627a7a7230582095fe681cf1e4f9bab60ec5622eeb04ab4ac5269f013640a7157d510fe35cc95a0029",
  "source": "pragma solidity ^0.4.23;\r\n\r\nimport '../../node_modules/openzeppelin-solidity/contracts/payment/ConditionalEscrow.sol';\r\nimport './Market.sol';\r\n\r\ncontract MarketEscrow is ConditionalEscrow {\r\n    \r\nbytes32 private hashFile;\r\nbytes32 private hashEncryptedFile;\r\naddress private marketAddress; \r\nuint256 private expiration;\r\naddress private payee;\r\nuint256 private depositPayee;\r\nuint256 private depositBuyer;\r\nMarket private marketIstance;\r\n    \r\nconstructor(address addr) public {\r\n    expiration = now + 86400;\r\n    marketAddress = addr;\r\n    depositPayee = 0;\r\n    depositBuyer = 0;\r\n    marketIstance = Market(marketAddress);\r\n    }    \r\n    \r\nfunction setPayee(address p) public onlyPrimary() {\r\n payee = p;\r\n}\r\n\r\nfunction setFile(bytes32 hFile, bytes32 hEncryptedFile) public onlyPayee() payable {\r\n    //bytes32 hFile = marketIstance.convert(hFileString);\r\n    //bytes32 hEncryptedFile = marketIstance.convert(hEncryptedFileString);\r\n    require(depositPayee == 0);\r\n    hashFile = hFile;\r\n    hashEncryptedFile = hEncryptedFile;\r\n    depositPayee = msg.value;\r\n}\r\n\r\nfunction getHashAddress() public view onlyPrimary() returns(bytes32) {\r\n    return hashEncryptedFile;\r\n}\r\n\r\nfunction depositFromBuyer() public payable onlyPrimary() {\r\n    require(depositBuyer == 0);\r\n    depositBuyer = msg.value;\r\n}\r\n\r\nfunction withdrawalAllowed(address payee) public view returns (bool) {\r\n\r\n        \r\n        \r\n        address h = marketIstance.getEscrowAddress(hashFile,this.primary());\r\n        //if(stringsEqual(hashFile,h)) return true;\r\n        if (h == address(this)) {           \r\n            return true;\r\n        }\r\n        else {          \r\n            return false;\r\n        }\r\n    }\r\n\r\nfunction withdraw(address payee) public onlyPrimary() {\r\n    require(withdrawalAllowed(payee));\r\n    payee.transfer(depositPayee);\r\n    msg.sender.transfer(depositBuyer);\r\n    resetDeposit();\r\n    super.withdraw(payee);\r\n  }\r\n\r\nfunction blockUser(address payee) public onlyPrimary() {\r\n marketIstance.blockUser(payee,hashFile,this.primary());\r\n}\r\n\r\nfunction resetDeposit() private {\r\n    depositPayee = 0;\r\n    depositBuyer = 0;\r\n}\r\n\r\nfunction refundBuyer(address payee) public onlyPrimary() {\r\n    if (!withdrawalAllowed(payee)){\r\n        //this.primary().transfer(depositPayee);\r\n        msg.sender.transfer(depositPayee);\r\n        msg.sender.transfer(depositBuyer);\r\n        resetDeposit();\r\n        msg.sender.transfer(depositsOf(payee));\r\n        selfdestruct(msg.sender);\r\n    }       \r\n}\r\n\r\nmodifier onlyPayee() {\r\n    require(msg.sender == payee);\r\n    _;\r\n  }\r\n\r\n\r\n}",
  "sourcePath": "C:\\Users\\esolazzo\\Desktop\\client\\contract\\contracts\\MarketEscrow.sol",
  "compiler": {
    "name": "solc",
    "version": "0.4.24+commit.e67f0147.Emscripten.clang"
  },
  "schemaVersion": "2.0.1",
  "updatedAt": "2018-11-20T08:18:52.726Z"
}