{
  "contractName": "Secondary",
  "abi": [
    {
      "inputs": [],
      "payable": false,
      "stateMutability": "nonpayable",
      "type": "constructor"
    },
    {
      "constant": true,
      "inputs": [],
      "name": "primary",
      "outputs": [
        {
          "name": "",
          "type": "address"
        }
      ],
      "payable": false,
      "stateMutability": "view",
      "type": "function"
    },
    {
      "constant": false,
      "inputs": [
        {
          "name": "recipient",
          "type": "address"
        }
      ],
      "name": "transferPrimary",
      "outputs": [],
      "payable": false,
      "stateMutability": "nonpayable",
      "type": "function"
    }
  ],
  "bytecode": "0x608060405234801561001057600080fd5b50336000806101000a81548173ffffffffffffffffffffffffffffffffffffffff021916908373ffffffffffffffffffffffffffffffffffffffff16021790555061021a806100606000396000f30060806040526004361061004c576000357c0100000000000000000000000000000000000000000000000000000000900463ffffffff1680632348238c14610051578063c6dbdf6114610094575b600080fd5b34801561005d57600080fd5b50610092600480360381019080803573ffffffffffffffffffffffffffffffffffffffff1690602001909291905050506100eb565b005b3480156100a057600080fd5b506100a96101c5565b604051808273ffffffffffffffffffffffffffffffffffffffff1673ffffffffffffffffffffffffffffffffffffffff16815260200191505060405180910390f35b6000809054906101000a900473ffffffffffffffffffffffffffffffffffffffff1673ffffffffffffffffffffffffffffffffffffffff163373ffffffffffffffffffffffffffffffffffffffff1614151561014657600080fd5b600073ffffffffffffffffffffffffffffffffffffffff168173ffffffffffffffffffffffffffffffffffffffff161415151561018257600080fd5b806000806101000a81548173ffffffffffffffffffffffffffffffffffffffff021916908373ffffffffffffffffffffffffffffffffffffffff16021790555050565b60008060009054906101000a900473ffffffffffffffffffffffffffffffffffffffff169050905600a165627a7a72305820f030b910c0788352c61eebaa372e3a5b7603a3a79dfbcccfa69dfed8fa8c9b600029",
  "source": "pragma solidity ^0.4.24;\n\n\n/**\n * @title Secondary\n * @dev A Secondary contract can only be used by its primary account (the one that created it)\n */\ncontract Secondary {\n  address private _primary;\n\n  /**\n   * @dev Sets the primary account to the one that is creating the Secondary contract.\n   */\n  constructor() public {\n    _primary = msg.sender;\n  }\n\n  /**\n   * @dev Reverts if called from any account other than the primary.\n   */\n  modifier onlyPrimary() {\n    require(msg.sender == _primary);\n    _;\n  }\n\n  function primary() public view returns (address) {\n    return _primary;\n  }\n\n  function transferPrimary(address recipient) public onlyPrimary {\n    require(recipient != address(0));\n\n    _primary = recipient;\n  }\n}\n",
  "sourcePath": "C:\\Users\\esolazzo\\Desktop\\client\\node_modules\\openzeppelin-solidity\\contracts\\ownership\\Secondary.sol",
  "compiler": {
    "name": "solc",
    "version": "0.4.24+commit.e67f0147.Emscripten.clang"
  },
  "schemaVersion": "2.0.1",
  "updatedAt": "2018-10-31T08:20:18.883Z"
}